:101000006F30605A1300000013000000130000004E
:101010001300000013000000130000001300000084
:101020001300000013000000130000001300000074
:08103000130000007300100022
:101038000010000000000000EA3D0000EE3D000046
:1010480000000000F23D0000000000000000000069
:10105800F03D0000424500000000000000000000D4
:101068004037000000000000464500000000000076
:10107800484500004A4500004C4500004E45000028
:101088005045000052450000E6370000F4370000E4
:1010980002380000103800001E3800005E450000CD
:1010A8006045000062450000644500006645000098
:1010B800684500006A4500006C4500006E45000068
:1010C8007045000072450000744500002C3800008F
:1010D800784500000C3200007C450000B432000066
:1010E800C4320000E632000008330000242E00005D
:1010F8003A2E0000482E00005E2E00008E450000AB
:101108009045000092450000944500009645000077
:101118005C3800009A4500009C4500009E45000090
:10112800A0450000A2450000A44500000000000002
:081138000000000000000000AF
:101140003D432A876373C3029377F700BDEFADE594
:10115000937606FF3D8ABA960CC34CC30CC74CC7A6
:101160004107E36BD7FE11E28280B306C3408A06D3
:101170009702000096966780A6002307B700A30693
:10118000B7002306B700A305B7002305B700A304E3
:10119000B7002304B700A303B7002303B700A302DB
:1011A000B7002302B700A301B7002301B700A300D3
:1011B000B7002300B700828093F5F50F9396850062
:1011C000D58D93960501D58D61B79396270097022B
:1011D000000096968682E78086FA9680C1171D8F5A
:1011E0003E96E374C3F8A5B7397101436EC619A0E2
:1011F000397141536AC866CA62CC5ECE19A0397192
:1012000001535AD056D252D44ED64AD826DA22DCCE
:1012100006DE33016140828241114AC026C222C4E7
:1012200006C68282B24D4101024D924C224CB24B15
:101230004101024B924A224AB24941010249924479
:101240002244B24041018280EFF21FFD1C418841DF
:101250008297EDB785476307F60089476306F60076
:10126000014582800CC1EDBF9C411CC1D5BFEFF28E
:10127000BFFA1C418297D9B785476307F6008947B3
:101280006306F600014582800CC1EDBF9C411CC184
:10129000D5BF1C4599C7EFF23FF8AA850D46829746
:1012A00071BF828041118147A14638003306F700A3
:1012B0003307F500182385071337470618A2E3966E
:1012C000D7FE81470147A14630003E961022850790
:1012D0003297E39BD7FE014509CF954763DDE700D1
:1012E0009C8489CF9C8599CB1C8689CB1C8709451A
:1012F00091C7410182800545E30DA7FE108501CA13
:1013000094851C86DD8E81C61C871545FDF38946B4
:101310000545E3D0E6FE98841C84BA979885B29779
:101320009086BA97188632971087329790873297AF
:1013300063D6F600E34FE5FA114565BF0545E3DAEC
:10134000E6FAE388D7FA0D456DB7EFF25FEB3704A5
:1013500000201304040081441389418DA1490840F1
:1013600089451104EF30F00F0325C4FFEF30D00C96
:101370001181B30799001345F5FF88A38504E39015
:1013800034FF45BDEFF25FE937860000B785000006
:10139000130646639385C5631385819BEF20000187
:1013A00081479386418C7D551387418B3546B385A4
:1013B000F60088A1B305F700238005008507E398B0
:1013C000C7FEADBD9385418C1387418B0146938742
:1013D000418B9386418C1388418DA1483305C80009
:1013E000082103C305006373650088A103C30700D8
:1013F0006373A30088A3050685058507E31016FF20
:101400008147A1453386F600102208236364A600B5
:10141000210610A385070507E396B7FE0547238C31
:10142000E1848280EFF25FDF85452A844D45EF300D
:101430005003814511C085454D45EF30900FFDBBF0
:10144000EFF2FFDBB707002083A707160547AA8442
:10145000639DE7020144A149B3878400902383C7B9
:10146000818593150401C181118291CF22061385D4
:10147000418E0504EF10A007E31034FF1385418E61
:10148000EF0030457DB34206DDB70947E39CE7FE38
:101490000144414AA149B3878400902383C78185D1
:1014A0009315040111823306CA40C1811376F60FE9
:1014B00091CB22061385418E0504EF104003E31CF7
:1014C00034FD6DBF4206FDB701479386418C9308FA
:1014D000F00F1386418B214EB387E60003C307004C
:1014E000B307E5009C233308E60003480800B387F0
:1014F0006740B387170333086840B3C7070363D453
:10150000F8009307F00F3388E50063D307008147A5
:101510002300F8000507E311C7FD8280FD571CA2D8
:1015200023800600238005002A8E03C5818539CDDE
:10153000814701488148930EF00F130F1003214398
:1015400033071E0118233387EE406343EF00014742
:10155000B30F1703BA977E9883CF060063D3EF00CB
:1015600098A2834F06006353F70118A28508E399F8
:1015700068FC99C71307F00F3308E802B347F80275
:10158000938717F01D47B3C7E7029CA18280EFF253
:101590003FC6AA84EF305003938701849823AA8A18
:1015A000938931841389418411EB05472320A900D5
:1015B0002380990098A313050008BDB183C70900D3
:1015C0000324090013070008B387F440C207C1834E
:1015D00013950701418533848A40635DA70693878D
:1015E00007F01395070141851306000001CCEF6059
:1015F000101F2A8A2285EF60F02AAA855285EF50B3
:10160000F0792A86138721841C2393864189939538
:10161000270085079D8B1CA303C71184AE9690C23B
:101620009D46138441899387118463E4E60005078E
:1016300098A383CB0700014A130B000063834B037D
:101640000C405A85050AEF50D03E2A8B137AFA0FC8
:101650001104EDB7130700F8E358E5F89387071076
:1016600049B723809900232059015E85EF60301728
:10167000AA855A85EF509072B787000083A5C76589
:10168000EF60002EB787000083A50766EF50703A21
:10169000930500002A84EF60E02363430502B787C7
:1016A000000083A487652285A685EF60401A6353F6
:1016B000A00026842285EF3070051375F50FF5BD67
:1016C00013040000C5BFEFF23FB541111385418EF1
:1016D000EF0010131385418EEF00B01F05459933BD
:1016E000F16509461385819B93850520EF10E07C09
:1016F000B7850000938545681385819BEF10B04640
:1017000013854190EF00207423AA0184A567938775
:1017100047A7F453BC531387019174C30146814614
:1017200013850191930530033CC7EF100033B727B1
:101730000000938767873EC0B71700009387872410
:101740003EC6B7170000938747258A851385019108
:101750003EC4EF10C0320A852D3EB72700009387A4
:1017600087C73EC0B71700009387E7263EC6B71766
:101770000000938787278A85138501913EC4EF1067
:10178000C0340A853936410155BCEFF2FFA81387F2
:1017900001851C431384418585071CC30567130716
:1017A0008738B3E7E70285E71040B78500009385E7
:1017B00045661385819BEF10703F03C68185B78511
:1017C0000000938505671385819BEF10303EB53E81
:1017D00018408D476316F704EF30005F1384C1840F
:1017E0001C401D8D9307900F63F8A702EF30C05D7A
:1017F000138781841C2308C01306800293C7170037
:101800001CA391E301461385418EA145EF00304EA4
:101810001385418EEF00F00B0545EF30605C2DA085
:1018200083C78185014681C7056613060640A14529
:101830001385418EEF00B04B1385418EEF00700988
:1018400018408D47E30AF7F8D5BAEFF2FF9C9306EC
:1018500020056D46A5451385418EEF00D045EF303C
:10186000A05623A2A186D9BAEFF21F9B1385418E01
:10187000EF002077E1B2EFF2BF9741112A8402C254
:1018800002C402C601456359800013850191EF002F
:10189000F0501375F50F7D14B94763E7A702A167F0
:1018A000938747430A053E951C418287378600008F
:1018B000B785000013064663938505471385819B12
:1018C000EF10D02E23AA0184B789000037890000C9
:1018D0006351803A13850191EF00504C9376F50FD8
:1018E000138649639305495E1385819B7D14EF1030
:1018F000F02BF9BF37860000B7850000130646635A
:10190000938585481385819BEF10502A054723AAAC
:10191000E1845DBF37860000B78500000D4789462A
:10192000130646639385054A1385819BEF101028A3
:10193000930720307C8235464C0013850191EF00DF
:10194000B05159B737860000B785000013064663CB
:101950009385854B1385819BEF10502525340D47CA
:1019600023AAE184EF30404623A4A186EF30C0458E
:101970008567938787383E9523A6A186B1B783C62E
:10198000818537860000B78500001306466393857E
:10199000054D1385819B5482EF10502169BF378616
:1019A0000000B7850000130646639385054F138535
:1019B000819BEF10B01F83C781858DCB8144138A33
:1019C000418C9389418BA14AB3079A009023A68545
:1019D00013854190E129B387990090239385840072
:1019E000138541908504D921E39054FF13854190DC
:1019F000D129D9BDB7850000938545501385819BBA
:101A0000EF10701637860000B78500001385819BA4
:101A10001306466393854551EF105019814493890D
:101A2000418C1389418BA14AA685138541909D2144
:101A3000B387990088A393858400138541909929E1
:101A4000B307990088A38504E39054FF0547238CCE
:101A5000E1849DBD37860000B7850000130646630C
:101A6000938585521385819BEF10501435469385DD
:101A7000418CE1B537860000B78500001306466348
:101A80009385C5531385819BEF105012354693857E
:101A9000418B65B59D47E3D987E237890000B7855B
:101AA000000013064963938505551385819BEF104C
:101AB000F00F8149138A418C378B0000A14A1385AE
:101AC0000191EF00B02DB3073A0188A39376F50F8B
:101AD0001306496393054B561385819B8509EF10C7
:101AE000F00CE39E59FDB78500001306496393850A
:101AF00005571385819BEF10700B9387C1850547B0
:101B000098A39C3361140547E390E7DC238CF184B0
:101B100065BB9D47E3DA87DA37890000B7850000A7
:101B2000130649639385C5571385819BEF101008F1
:101B30008149138A418B378B0000A14A138501919B
:101B4000EF00D025B3073A0188A39376F50F13066B
:101B5000496393050B591385819B8509EF10100587
:101B6000E39E59FDB7850000130649639385055729
:101B70001385819BEF1090039387C185054798B328
:101B800061149C2349B78D47E3D087D41385019115
:101B9000EF00D0202A8A13850191EF003020AA841B
:101BA00013850191EF00901F2A8913850191EF00A1
:101BB000F01E3706FF00C204F18C41667D16220933
:101BC0003379C900B3E424011376F50F1385418EF0
:101BD000458E9375FA0FEF00901171141385418EA5
:101BE000CD29DDB16357800813850191EF00101BEB
:101BF0009374F50F37860000B7850000A68613069C
:101C000046639385C5591385819BEF10207AB707EA
:101C1000002023A097167D14E39804CA1385418EF3
:101C2000EF00D0151385418E65BF63548004138582
:101C30000191EF00B016AA849376F50F3786000065
:101C4000B7850000130646639385455B1385819B2A
:101C5000EF10C07513F5F40F7D14EFF0AFFCADB1CC
:101C6000B78500009385055D1385819BEF10A06FFC
:101C7000A1B941016FF04FDBEFF26FD813840186F9
:101C80001C401307803E011185071CC0639AE702C0
:101C9000EF30801393844186944037860000B785E7
:101CA0000000B306D540130646639385056213858D
:101CB000819BEF10A06FEF30201188C0232004001B
:101CC00083A741850547638FE70081CB0D47638577
:101CD000E71635469385418D81A21385418DEFF03E
:101CE0002FF6C5BF1385418D0C08EFF0EFFDB70748
:101CF000002083A607160D47138407166385E600A8
:101D00000808EFF0EFF39306F1001306E1009305E6
:101D1000D1000808EFF09F806307051018408D4739
:101D20006317F70C8886EF50A049B787000003A619
:101D3000876083A6C760EF40D002EF60404E2A84E0
:101D4000EF300010EF608023AA84EF604029AA855D
:101D50002285EF50306A138A14009D472A8963D385
:101D600047011D4A1385418EEF0050019D4763E5F1
:101D700097044A85EF60E03FB78700002A86AE8669
:101D800003A5076183A54761EF403049B78700008D
:101D900003A6876183A6C761EF40A07CEF50C03BDC
:101DA00013160501B707FF00939504017D8EC181CD
:101DB0001385418EEF00A0739D4763E74703B78704
:101DC000000083A547604A85EF509039EF60001B03
:101DD00013160501B707FF0093150A017D8EC18117
:101DE0001385418EEF00A0701385418EDD249C8603
:101DF0000808230CF1001C87A30CF1009C87230D1D
:101E0000F100EFF02FCA230EA1008886EFF02FF823
:101E1000A30DA10035460C0813850191EF00D003F6
:101E200005616FF00FC1A3060100231C0100230D03
:101E30000100230E0100D1BF1385418DEFF04FE06B
:101E4000EFF04FD879B5EFF22FBDE9471CC51C4123
:101E50002A848DEF6945EF20107DB707002003D756
:101E6000478008C03706002018A183D767801CB1BF
:101E70008947184463FCE700939617001840B29610
:101E800083D6C6803E97850714A3E5B723020400D6
:101E90006FF0CFBA1C41014781CB63C705001445E1
:101EA00063F4D500AE9798233A8582801C4191CB8C
:101EB00063C90500184563F6E500054758A1AE97CC
:101EC00090A382805C21F5C3B707002010411387DF
:101ED000078083A70780411114223EC01C32C2072D
:101EE000B6973EC21C47B7066745938636123EC476
:101EF0005C473797EFCD1307B79A3EC6B727024026
:101F0000D4C3D8C394C798C7984B1367070298CB1C
:101F1000984B1367070498CBD847058B75FF984BF0
:101F2000B7050020372802401377F7FD98CB984B70
:101F3000A1461367070198CB8147139717009308B1
:101F40000101BA9883D808FF2E9723101781032721
:101F5000C800058B6DFF8507E391D7FE144595CA30
:101F600089471305F00F37080020B728024063F2B5
:101F7000D7023307F6000C23638BA50013971700D5
:101F800042972316B78003A7C800058B6DFF85070E
:101F9000F9BFB7270240984B05453D9B98CB984B1E
:101FA0001367070898CB4101828005458280EFF2D4
:101FB000AFA62A84013F23200400232404006FF0ED
:101FC000EFA79387419023A007002382070023A453
:101FD00007008280EFF24FA413854190C93F6FF054
:101FE000EFA5EFF26FA32A844845EF3040060315B2
:101FF0006400634505008145EF20B0466FF00FA4F3
:102000008317650063C30702EFF20FA12A84854599
:102010003E85EF201045031564008145EF20705187
:1020200085471CB005456FF06FA1A3000500014571
:102030008280EFF26F9E2A8448454111AE84EF30D2
:10204000000138381C2811466313F7000D4633068B
:1020500096024206418252A0328532C6EF20907E1F
:1020600048C409C932468145EFF08F8D26A0410151
:102070006FF0CF9C2312040023110400CDBF13D8AE
:1020800025401378380013D7654013D64540A30880
:10209000050113F8350093B505100CA14C450D8BC7
:1020A0000D8A34398348050138B910A9230905017F
:1020B00085C1B3861641118F93B6160013371700EA
:1020C0006388E600EFF24F952E21A5376FF00F974A
:1020D00082805C4563890730EFF20F942A84930471
:1020E000B012EF20304F5C486374F50048C8D5BF8C
:1020F0001D8DE3F8A4FE9967739007801C20638A06
:10210000072C5C444E20144C504C8823BE951387FA
:102110001700930700083378F50090CA6303081688
:1021200001000100010001000100010001000100A7
:102130000100010001000100010001000100010097
:102140000100010001000100010001000100010087
:102150000100010001000100010001000100010077
:102160000100010001000100010001000100010067
:102170000100010001000100010001000100010057
:102180000100010001000100010001000100010047
:102190000100010001000100010001000100010037
:1021A0000100010001000100010001000100010027
:1021B0000100010001000100010001000100010017
:1021C0000100010001000100010001000100010007
:1021D00001000100010001000100010001000100F7
:1021E00001000100010001000100010001000100E7
:1021F00001000100010001000100010001000100D7
:10220000D0CA01000100010001000100010001002D
:1022100001000100010001000100010001000100B6
:1022200001000100010001000100010001000100A6
:102230000100010001000100010001000100010096
:102240000100010001000100010001000100010086
:102250000100010001000100010001000100010076
:102260000100010001000100010001000100010066
:102270000100010085876389071493F7F70F0100B8
:1022800059BD010001000100010001000100010031
:102290000100010001000100010001000100010036
:1022A0000100010001000100010001000100010026
:1022B0000100010001000100010001000100010016
:1022C0000100010001000100010001000100010006
:1022D00001000100010001000100010001000100F6
:1022E0000100010001000100010001000100D0CA4D
:1022F00001000100010001000100010001000100D6
:1023000001000100010001000100010001000100C5
:1023100001000100010001000100010001000100B5
:1023200001000100010001000100010001000100A5
:102330000100010001000100010001000100010095
:102340000100010001000100010001000100010085
:102350000100010001000100010001000100010075
:102360000100010001000100010001000100010065
:102370000100010001000100010001000100010055
:102380000100010001000100010001000100010045
:102390000100010001000100010001000100010035
:1023A0000100010001000100010001000100010025
:1023B0000100010001000100010001000100010015
:1023C0000100010001007DB56375B7000823050712
:1023D00089B399679387870873900780EF20901FD0
:1023E00048C86FE0BFE58280EFE21FE31C312A841A
:1023F000AE8481CB03156500634505008145EF2060
:1024000050061C3066A089CB85452685EF207005D7
:1024100081452685EF20F0117A20930740029376BC
:10242000F70F63EED704A567938747A78A06BE9682
:102430009C4213770770D98F13D747003D8B114605
:1024400081466369E600B7060020938686020A0784
:10245000369714430547BD8BB317F70014CC5CCCFB
:1024600037170140639BE60037270240185BB70629
:10247000000F758F19E3B5835CCC6FE03FDC1376FA
:10248000070C9305000CFD57E318B6FA1306900CE1
:10249000E364D6FA9377F703A5669386C6A48A0702
:1024A000B6979C43A566938646A78A07B697137787
:1024B00007709C4349B7EFE23FD64111AE84A300B9
:1024C0000500B6852304050023260500232A050000
:1024D0002A8432C6EFF0BFBAA6852285EFF07FB519
:1024E00032462285B285093741016FE03FD53E2152
:1024F00063F5F5048348850093560601135786005B
:10250000639E080293F6F60F1377F70F1378F60F12
:1025100003433501034E05015C4563126E040D460D
:10252000B385C502BE951C29AE9794A31C39AE97FE
:1025300098A33C29BE9523800501828093F6F60F6F
:102540001377F70F1378F60FB386160333071703C5
:10255000A1823308180321831358880055BF8A05C8
:10256000BE956182639808001376F60F2E932300C0
:10257000C30055BF330616032182CDBFEFE2DFC98A
:10258000522148458145EFE0BFBB6FE03FCB01459D
:1025900082801A2D6A293305A74082807E29162D54
:1025A0002A8763F8D7001449BE96850788227EAB38
:1025B00082807D5582807A291E2D6376F7001C4922
:1025C000BA97882382807D558280084D8327050A2B
:1025D00081CFEFE27FC48327450A2311050213054B
:1025E000850982976FE09FC58280EFE2FFC2834733
:1025F00045024111CC872A84B1C32631930700409C
:10260000850463C997041E3163FF97009307000296
:1026100063F4F40093040002484CA685EF20704A4E
:1026200009CD48CC06B036305C4C98870545B69746
:1026300098A33E3085073EB019A801A00546930532
:10264000F10013058502EF000077133515004101F5
:102650006FE0DFBE0145E5BFEFE27FBA8347450289
:102660002A843289A9CB263193070040B29463E2D1
:1026700097041E31AE8963FD97029307000263F44D
:10268000F40093040002484CA685EF20904305C156
:1026900048CC06B03E30484C4A86CE853E95EF2069
:1026A000B01B3E30CA973EB04A856FE09FB801A08C
:1026B000F5F00149D5BF4206418213058502EF00BE
:1026C000806F7DD1FDB79307803E1CC5A1679387BE
:1026D000476A1CC1A567232805082320050A93879C
:1026E00047A7F84F2322050078C1BC4F3CC5828024
:1026F0005E2963F6B702EFE23FB2930700022E8431
:1027000063F4F50013040002AA840849A285EF20AF
:10271000503B09C588C8C2A86FE05FB201A08280A3
:10272000EFE29FAF004D0329C50241118327040941
:102730009DCF7A281E2C636CF702AA84CA85228555
:10274000453F08484A8693858403EF20F01083278D
:102750000409231B0400231C24014AC699E3EF202B
:10276000A06D832744096C001305840882974101FA
:102770006FE0DFAC584D11CBEFE21FAA123181455B
:102780003A85EFE0FF9B6FE07FAB8280EFE2DFA84E
:102790002A84231B0500231C0500084909C552286B
:1027A0008145EFE0FF99231104022285E1376FE0B4
:1027B000FFA8EFE2FFA32A8468410111EF20A02EB9
:1027C0008145EF20004A6C401147014593D74500F1
:1027D000BD8B6369F700370700208A07130787025C
:1027E000BA978843BD898547B395B700C205C181B3
:1027F000EF100036631D05182844370A0020514B9E
:10280000EF20602A8545EF20C045914B130A8A02CC
:10281000054CB7F400E025492C44014593D7450009
:10282000BD8B63E5FB008A07D2978843BD89B3154A
:10283000BC00C205C181EF1080349844DC4413060B
:10284000803E3AC03EC29848DC4881469309170052
:10285000B3BAE900BE9AB3055903B3373903330558
:102860003903BE95EF30D016024792473AC43EC6B0
:10287000014781479044D44432C036C22246B24612
:102880000248924863E8D810639416016364C81044
:10289000024E924E2248B24833030E4133366E0048
:1028A00033881E419A863308C840BE9633B6F60078
:1028B000429732970246B687924632C436C6E36BD9
:1028C000B7FA6394E500E3E7A7FA2C44014593D7F0
:1028D0004500BD8B63E5FB008A07D2978843BD891D
:1028E000B315BC00C205C181EF1020289844DC4418
:1028F0001306803E3AC83ECA9848DC488146930990
:102900001700B3BAE900BE9AB3055903B3373903C8
:1029100033053903BE95EF30B00B4247D2473ACC6E
:102920003ECE014781479044D44432C836CA6246FD
:10293000F2464248D24863E3D80863941601636FB5
:10294000C806424ED24E6248F24833030E41333637
:102950006E0033881E419A863308C840BE9633B64F
:10296000F600429732974246B687D24632CC36CEF0
:10297000E36BB7FA6394E500E3E7A7FA7D1BE31D79
:102980000BE82844EF2020128145EF20802D0561BF
:102990006FE09F892248B248024EB3860941924EA9
:1029A00033B3D900B3881A413386C601B38868406F
:1029B0003338D600F698B2864698C5BD6248F248CC
:1029C000424EB3860941D24E33B3D900B3881A417F
:1029D0003386C601B38868403338D600F698B2868D
:1029E0004698ADBFEFE25F8393971500FD1593B551
:1029F0001500A302F5022301B508A301C5082302AF
:102A0000D50823280500232A0500231C0500230DD3
:102A1000050028C1232E05002320050223020502FC
:102A20002A84413B8346540293048402E165116683
:102A30009385056A2685112A8347240889EFB725DF
:102A400000009385A55C2685E12EB72500009385BF
:102A500005722685E1266FE06FFEEFE2EFFB93F54E
:102A6000F50F49376FE08FFD944118415C4114C167
:102A7000D441411154C198C1DCC141018280EFE2CF
:102A8000AFF99C45411102C42A841309850889CBFA
:102A900009460A85AE848297DC443EC69C443EC407
:102AA000CA850A85D137A247032704090A85232846
:102AB000F408B2473AC403274409232AF4083AC663
:102AC000EFE02FFD41016FE06FF7EFE2EFF49C457F
:102AD000411102C42A841309850989CB09460A8554
:102AE000AE848297DC443EC69C443EC4CA850A85B7
:102AF000A53FA2470327040A0A852320F40AB24708
:102B00003AC40327440A2322F40A3AC6EFE06FF8D6
:102B100041016FE0AFF2EFE22FF013850191EFF08A
:102B20009FBA6FE0AFF1EFE22FEF13840191A1673D
:102B30009387476A130584091CC0EFE08FF51305DE
:102B40008408EFE00FF56FE06FEF63090516EFE221
:102B50000FEB2A84484D216AAE8493054A7FB689DB
:102B60003289EF1030182A8B0850A16A93854A7C6D
:102B7000EF105017AA8563010B14630F05125A85D5
:102B8000EF10901A08C063090512B75700409387E9
:102B90000740130B44006319F502854537052000F3
:102BA000EF10E037814537052000EF1040378545AD
:102BB00037052000EF10E0329307F0025CD0930756
:102BC00000031CD423A861871840B767004093878F
:102BD00007806319F702854537054000EF10203460
:102BE000814537054000EF108033854537054000AB
:102BF000EF10202F930710035CD0930720031CD401
:102C000023AA6187085093854A7CEF10D009484C6D
:102C100093054A7FEF103009084061671307076A80
:102C200048C0BA876371970237270600130707A8C1
:102C3000BA87637A970037470F0013070724814745
:102C400063639700BA8761671CC4231604001307E7
:102C5000076A916763649700B167FD177EA49307C5
:102C600000403EA88347A40523183401231A2401F9
:102C700085EF5E215850854693E707705EA1935714
:102C80005700938707043396E6008A0737E700E08A
:102C9000BA9790C3105493575600938707048A0736
:102CA000B396C600BA9794C393058400EF00707C76
:102CB00008408545EF10000B6FE0AFD78280EFE250
:102CC000AFD52A840841B704001093850440EF1063
:102CD000E00D11C5084093850440EF1040100840F6
:102CE000B704001093850410EF10400C11C5084084
:102CF00093850410EF10A00E6FE04FD4EFE2CFD118
:102D00002A840841B7050010C105EF10200A09C543
:102D100008408545EF1000056FE04FD2EFE2CFCFBE
:102D20002A840841B704001093850404EF100008BA
:102D300009C9938404047D490840A685EF10000763
:102D400015E50840C145EF10200429E50840B70506
:102D5000001093850508EF10600509C55C5899C3FC
:102D6000228582972285A13F6FE04FCD0840EF106A
:102D7000200183478405E361F9FC83478405A2971A
:102D8000238CA70283478405850793F7F70F230C4D
:102D9000F4045DB78347840593F7F70F5CD4230CE5
:102DA00004045C546356F0001C5899C32285829732
:102DB0002285A93761BFEFE2AFC3AA842E8B328A86
:102DC00037090600EF00B00CAA8A814901441309B3
:102DD0004908894B636544014E856FE0EFC4B30732
:102DE0008B008C23C84005041374F40FEF00107996
:102DF000C840CA85EF00507971FDEF0050093305D6
:102E0000554163EBAB008840EF00707961D52685B2
:102E10007D352685E535E9BF95496DBF0CD98280A2
:102E20004CD9828003A501879387C180984371158F
:102E3000050798C3E5357300203093874180984398
:102E4000050798C37300203003A54187938701814C
:102E500098437115050798C3D135730020309387C7
:102E600081809843050798C37300203082807D5588
:102E70008280EFE26FBA1C414111CC87DC4393059D
:102E8000F1000546829741016FE04FBBEFE2CFB8FA
:102E900041119305F1004105EF10503C09E5888789
:102EA00041016FE0AFB97D55E5BFEFE2EFB62E858A
:102EB000B285EF10F02A6FE06FB813773600938772
:102EC0000183BA9703C807006CC12300C5041377B8
:102ED000060393070003930600606307F7009376E9
:102EE0000602B336D000AA0609860D8A7D168947E8
:102EF000014763E7C7000606938741833E961A227F
:102F0000A1476306F800A547630BF80001A001463E
:102F1000EFE28FB04105EF10501B6FE02FB2056656
:102F2000C5BF13F7F50F9307400263EDE700A567F0
:102F3000938747A70A073E971C4393F50570CD8FEB
:102F40005CD5828093F6050C1306000CFD57E399BF
:102F5000C6FE9306900CE3E5E6FE93F7F5032567BE
:102F60001307C7A48A07BA979C432567130747A787
:102F70008A07BA9793F505709C43D1B713F7F50FFD
:102F80009307400263EDE700A567938747A70A0709
:102F90003E971C4393F50570CD8F1CD5828093F628
:102FA000050C1306000CFD57E399C6FE9306900C22
:102FB000E3E5E6FE93F7F50325671307C7A48A0741
:102FC000BA979C432567130747A78A07BA9793F5D3
:102FD00005709C43D1B7EFE22FA49307803E1CC538
:102FE000A567938707B11CC10CC923220500A94519
:102FF0002A84053FA5452285513758541C54631433
:10300000F700FD575CD4FD571CD85CD86FE00FA3C8
:10301000EFE28FA0B7450140938505801385819B22
:103020005D3F6FE0AFA1EFE22F9F1C452A8481CB6B
:103030000D46AA85829723240400232604002285B6
:103040006FE0CF9FB7370140938707C0630BF5024E
:103050003707004085476307E502130707408947A4
:103060006302E50237170040930607808D47630B24
:10307000D500130707C091476306E500C167FD1738
:1030800011A081473E858280EFE20F992A84084D86
:10309000553FAA8413058401EF1000628A0413854A
:1030A00001A02695232A0400930444082320050048
:1030B0001304440363878400C1142685EFE06F9DE9
:1030C000D5BF6FE0AF97EFE22F9541112A84C1641D
:1030D0002E852EC6FD14BD37B2456313950001A0A1
:1030E0001C4C91C301A093172500138501A03E95A8
:1030F000930744011CC1930700085CD493070004A4
:103100001CD80CCC1305840140C8232E04002320B6
:10311000040223120402EF10A05213054403EFF03F
:103120009FF013054404EFF01FF013054405EFF082
:103130009FEF13054406EFF01FEF13054407EFF070
:103140009FEE084C232004002322040023240400C3
:103150002326040023280400232E040004D08545E0
:10316000EF007064084C9305C401EF00305D41012D
:103170006FE0CF8CEFE24F8A232E05022326050451
:10318000232E050423260506232E0506232C0500E1
:10319000EFF07FF3B7E700E01307002023A2E7106A
:1031A00005679306078023A2D71023A2E7100967BB
:1031B00023A2E710116723A2E7106FE02F88EFE248
:1031C000AF85184519E3EF1030475C4582976FE0F3
:1031D000EF8611E101A0EFE22F842A8408418545A2
:1031E000EF00105E15C11C40DE27858B91CF228534
:1031F000EF10C04408415C5D81C713054503C1372A
:1032000008408545EF00505D6FE04F8303A501A0A6
:1032100019C111057D3F7300203011E101A0EFD2EB
:10322000BFFF2A8408415E25898B91EB5E25918B37
:1032300099E75E25A18B81E75E25C18B9DC78945F6
:10324000EF0010581C4005C589453E85EF00D05859
:1032500085442285EF10803E084192049384440304
:1032600026951C4599C3EFF09FF56FD03FFD3E8535
:103270009145EF00F0541C4019C591453E85EF0083
:10328000B0558944F9B73E85A145EF0070531C4005
:1032900019C5A1453E85EF0030548D445DBFC14541
:1032A0003E85EF00F05155D50840C1459144EF00EF
:1032B000B05245B703A501A001C51105EFF0FFF518
:1032C00073002030411122C6138401A0484001C977
:1032D0001105EFF01FF048401105EFF01FF43244E4
:1032E000410173002030411122C6138401A008441B
:1032F00001C91105EFF0FFED08441105EFF0FFF1F2
:103300003244410173002030411122C6138401A0D0
:10331000484401C91105EFF0DFEB48441105EFF017
:10332000DFEF324441017300203095C1EFD2DFEE70
:1033300041112A842E852EC6EF20E0051C40B2459F
:103340002A86DC432285829741016FD03FEF0145F9
:103350008280EFD27FECB785000093850560EFF0A7
:10336000DFFC6FD0BFEDEFD23FEBAA84EFF0FFFBA5
:103370002A842685EFF0FFFD22956FD03FECEFD237
:10338000BFE9328419C9AE87634C05000947634918
:10339000A700B2853E85EF10A05C22856FD01FEAA2
:1033A00018412286BE8558430297C5BF397132D471
:1033B000301006CE36D63AD83EDA42DC46DE32C689
:1033C000EF204006F24021618280EFD2FFE42A84A0
:1033D000EF10901F48C41C402285DC4B8297635A33
:1033E0000500EF10701E5C441D8D1C44E365F5FE66
:1033F0007D556FD0BFE4EFD23FE24111AA84014472
:103400002EC632C4630EC4002685EFF01FFC63494C
:103410000500B2452246B387850088A30504CDB7D1
:10342000228541016FD09FE1EFD27FDD01449DC233
:10343000B68432892E8AAA8901444E85EFF0FFF8BE
:10344000634A050063084501B307890088A30504A2
:10345000E39584FE22856FD0DFDDEFD2FFDBB92656
:103460006FD0DFDD914763E3A706EFD2FFDAA567F0
:10347000938747B30A053E951C41854582871145D0
:10348000EF005024371501401305058001A82145A0
:10349000EF00502337150140130505C06FD01FDA28
:1034A0004145EF00302237150140CDBF1305000222
:1034B000EF0050213715014013050540C5B713052E
:1034C0000004EF003020372501407DBF0145828098
:1034D000EFD29FD4A1659385856CEF1080033D8169
:1034E0009377F50145476373F70001A02565130540
:1034F00085B43E9508216FD07FD485671387170068
:103500006306E50089076305F50001A04145828057
:1035100045458280EFD25FD0B727014093870740AF
:103520006314F502854513050020EF00B01903A5CB
:1035300041819317350163C70700A1659385856CA9
:10354000EF0070766FD09FCFB73701409387078029
:10355000E31FF5FC854513050040C1BFEFD2DFCB6B
:103560008145C1266FD09FCDEFD21FCB7971AA8440
:103570001306000281450808EFD09FBC93973401E1
:103580002317010063D407088567890763E097085C
:103590002685EFF09FF6372401402A891304044062
:1035A000228523AA9180EFF0FFF63165EF009004A9
:1035B00085472302F102B7070E003ECE0C0885476F
:1035C00022853ED402D002CA02C802CC012685451B
:1035D000228523200400B1269375F90F22859D468C
:1035E0000546A52685452285A926894522851129D6
:1035F0006DDD7C442285C207C1837C87EFF01FF616
:1036000022856924288745616FD05FC3A1659385B2
:10361000856C2685EF00106D2A842685EFF05FEB20
:103620002A89BDBFEFD2BFBDA569411193854982EB
:103630002A8AEF00306BEFF0FFA013192500938466
:1036400001A0CA949840138401A015E39385498290
:103650005285EF0030692AC613054008EF10607AE2
:10366000B245AA89EFF01FB19C4023A03701B307F0
:1036700024019C43804309C82285EFF0FFA09305F5
:1036800040082285EF10607A41016FD09FBA03A5F0
:10369000818783A5C18782808280EFD2FFB7EFF058
:1036A0001FFF6FD0BFB9EFD29FB54111EFF03FFEC2
:1036B000B7F400E09844DC442A893AC43EC62E841C
:1036C000EFF0FFFC9844DC44AA893AC29848DC48F1
:1036D00013061700B336E600BE966314A900630A0A
:1036E000B40212451304803E3305A640B337A6004A
:1036F000B387F640B307F402B335A4023305A4023E
:10370000BE9533043403EF20B02C229541016FD0D5
:103710005FB22247B2471304803E3305E640B3351B
:10372000A600B387F6408D8FB307F402B335A40229
:103730003305A402BE95EF20B02933042403F1B76A
:103740009387818703A8070083A847001307180001
:103750003335070198C3B3061501D4C3EFF0DFF387
:10376000B7F700E023A2070073002030B7F700E0AE
:1037700023A2070023A00700814694C70147D8C7AA
:1037800003A701829306803E3357D7028146130672
:10379000F7FF90CBD4CB3D4798C3B7E700E07D5708
:1037A0002386E740056723A0E7108280EFD2DFA6DB
:1037B000EFF0DFFB6FD09FA8814705476307E50067
:1037C0008507058193F7F70FD5BF370700208E07D0
:1037D0001307C703BA97DC4391C7EFD2FFA38297C1
:1037E0006FD0DFA582800545B5240545EFF0DFFCED
:1037F000730020300945B92C0945EFF0FFFB730039
:1038000020301145812C1145EFF01FFB7300203053
:10381000214589242145EFF03FFA730020304145CE
:10382000152C4145EFF05FF973002030411122C69D
:1038300026C41304000295442285F52A01C9228575
:10384000112C131504014181EFF01FF7FD1406043C
:10385000E5F43244A244410173002030411122C6F4
:1038600026C41304004099442285F12201C922850F
:10387000D522131504014181EFF01FF4FD14060455
:10388000E5F43244A244410173002030EFD2DF98C6
:10389000B727014093870740631CF5008545130552
:1038A0000020B92D814513050020992D6FD01F9957
:1038B000B737014093870780E31AF5FE8545130566
:1038C00000403D2D814513050040C5B75C413707D9
:1038D000F1E01307F7EF944D7D8F9C41D58FD44DC8
:1038E000D58FD441A206D58FD98F5CC11C4537F73F
:1038F000F1FF1307D77FD4457D8F9C49D58F944521
:103900008606D58FD98F1CC55C55370710FF7D17EC
:103910007D8FDC29FD1793F7F70FD207D98F5CD580
:1039200082801C4589C593E717001CC58280F99BDE
:10393000EDBF1C4591C537075000D98F1CC582804B
:103940003707B0FF7D17F98FD5BFA54763F7B704D9
:103950008D47138765FF3307F7020328C5009D478E
:10396000B397E70093C7F7FFB3F70701B396E600F5
:10397000DD8E54C5994763E3C70495477D1633062A
:10398000F6025859FD47B397C70093C7F7FFF98F61
:103990003396C5005D8E50D982800D473387E5028E
:1039A000032805019D47B397E70093C7F7FFB3F7D7
:1039B0000701B396E600DD8E14C96DBFB14763E21F
:1039C000C702954765163306F6021859FD47B397A7
:1039D000C70093C7F7FFF98F3396C5005D8E10D9E6
:1039E000828095474D163306F6025855FD47B3972A
:1039F000C70093C7F7FFF98FB395C500DD8D4CD590
:103A0000828008416D8D3335A000828013878181CB
:103A10001C43938681AC3E95636BD500B75600205E
:103A20009386068063E5A60008C33E858280FD5725
:103A3000EDBF82808280B70701401387074083A7CC
:103A40000740584B698F09C77D8D3335A0008280B0
:103A500001458280B707014023AAA74082809C4588
:103A600013F7070113F8F70001C7D8413368E800DE
:103A700037270240145B3707000F758F4DEB8546E3
:103A80002380D188371701406315E5009A213583DB
:103A90009AA18E2113F7F50F39C318418146854E3F
:103AA0003D4F930F800293028004214E3396DE0037
:103AB000B3F8C500631116039398260033131F0152
:103AC0001343F3FF3377E300B318180133E7E8003B
:103AD0006397F70750C98506E39AC6FD18C1130717
:103AE000F00F6375B70454412146854E3D4F930F47
:103AF000800293028004414EB398CE0033F7150143
:103B00006392E8021317260001173313EF001343E3
:103B1000F3FFB376D3003317E800D98E6395F7032C
:103B2000232A15010506E319C6FD54C18280371703
:103B30000140E310E5F603C7018821DF81BFE39C64
:103B400057F810C949BFE39F57FC23281501D9BF77
:103B5000B71701406316F50083C7018891C3B5818B
:103B600008456D8D3335A0008280B717014063167C
:103B7000F50083C7018891C3B5810CC98280B7174E
:103B800001406316F50083C7018891C3B5814CC914
:103B90008280B707014063570504DC4F13570501C6
:103BA0009376F7001316050137073000418233780A
:103BB000E500635A05066317E804138706018D467E
:103BC000B396E60093C6F6FFF58F89C913575501E2
:103BD00012073317E600D98F6355050637070140F2
:103BE0005CCF828037270240145BDC433707000F2D
:103BF000758F4DF713D71700F976CE07758FCD83E4
:103C0000D98F69BF1317B500635607000D47B31668
:103C1000D7004DBF1357550112073317E60013475E
:103C2000F7FFF98F5DB76312E8023708014083267A
:103C30004800370700F17D17F98F758F2322E800C0
:103C4000D1F5370701405CC382801317B500635C70
:103C500007000D473317D7001347F7FF7D8FB707CE
:103C6000000FD98FF1BF1357550112073317E60024
:103C7000E5B7EFD26FDA79712A84462168082EC63B
:103C80005922925737470F001307072433D7E7020B
:103C9000C204C18093F404FCC204C180B2456165D2
:103CA0001305056A131607014182D18C46A0162020
:103CB000C206C182F99AC206C18216A09441636904
:103CC000D5048606B3D7D7029146139707014183DF
:103CD000BA876373D700914705064206C20741823F
:103CE000C18312B05EAC1E20DA21B62593E717001F
:103CF0001EA01E20558FC207C18393F757BFD98FCF
:103D00001EA09A25DE25D98F1EA445616FD00FD342
:103D1000EA2131667D16631DC5020D46B386C602D3
:103D2000B3D7D702C207C1839396470199E293E7BD
:103D30001700A166D58F9306C0123307D7029306EA
:103D4000803E3347D7020507420741831AB059BF67
:103D50006546B386C602B3D7D7029166C207C18350
:103D6000D58FD9B71E2189C593E717001EA1828080
:103D7000C207C183F99BC207C183CDBF0EA9828050
:103D80000A291375F50F82805E290A2D42055D8D83
:103D90006D8D220521810D8D1335150082805E29E0
:103DA0000A2D42055D8D220521818280411102C4C8
:103DB00002C693D7C5012AC63EC4A247A205A18167
:103DC00099CBB247D1073EC6B247884341016D8DBA
:103DD0003335A0008280B247C181E107EDB793C5BA
:103DE000F5FFC205C1814EA982807300203001A079
:103DF00001A001A0B7160240DC4251777D17F98F70
:103E00005D8DC8C28280371702405C439146B18BFA
:103E10006385D700A1466382D706B7177A009387D8
:103E200007201CC1371602405C42370700201307E9
:103E3000C70B9183BD8BBA9794231C41B3D7D7008E
:103E40005CC15442A1829D8ABA969422B3D6D7000F
:103E500014C55442AD829D8A36971823B3D7E70024
:103E60005CC558423983937637001387C1813697F2
:103E70001823B3D7E7021CC982805C435843C1664C
:103E8000C983BD8B758F8907C5466393D700C94722
:103E900001EF3747024003270780418B09CF3717CF
:103EA0007A001307072021A83717024058439316BA
:103EB000E700E3D606FE37173D0013070790B387E8
:103EC000E70285B799C5371702401C4F5D8D08CFB3
:103ED0008280B7170240984F1345F5FF798D88CF40
:103EE000828099C5371702405C4F5D8D48CF828034
:103EF000B7170240D84F1345F5FF798DC8CF8280A0
:103F000099C5371702405C475D8D48C78280B71757
:103F10000240D8471345F5FF798DC8C7828099C5FF
:103F2000371702401C4B5D8D08CB8280B7170240CB
:103F3000984B1345F5FF798D88CB82801E2137374A
:103F40000140130707C0C207C1836304E5023707B6
:103F500000406300E50213070740630CE5003717D4
:103F60000040930607806306D500130707C0631659
:103F7000E500BA2193F7F7F8D98FFA2193F7F7CF35
:103F8000C207C183D98F1EA1DE215EB59E211EB559
:103F9000B7370140938707C06314F5009C251EB90D
:103FA00085475EA982801E2189C593E707081EA167
:103FB0008280C207C18393F7F7F7C207C183C5BFE9
:103FC0001E294A25ED8F4205418189C76D8D333504
:103FD000A00082800145828093C5F5FFC205C181A2
:103FE0000EA98280EFD24FA31629F577FD17F58F22
:103FF000F621DA257971D58F1EA95625FD7793878D
:10400000379FF58FD6212A842EC6D58F9625D58F3A
:10401000B625D58F5EA55E29C207C18393F7F7CF7A
:10402000D98F5EA96808EFF01FDEB747014093877C
:104030000780B245631AF404A25756246547B38734
:10404000E702C206C186984163D2060406075224DD
:104050004206B3D7E702130740064186B3D6E7020C
:10406000B3F7E7029206635506028E07938727038C
:10407000B3D7E70213F77700B367D700C207C1834E
:104080001EA445616FD08F9B925745BF0A07C1B7E9
:10409000920793872703B3D7E702BD8BD58FF9BF6C
:1040A00091C55E250967D98F5EA582805A25F9776B
:1040B000FD17F98FD5BF93F5F51F4EA182804A21D8
:1040C0001375F51F82805E2989C593E787005EA975
:1040D0008280C207C183DD9BC207C183CDBF0A2195
:1040E0006D8D3335A0008280B71702409843B70624
:1040F000FFF81367170098C3D843758FD8C3984348
:10410000B706F7FEFD16758F98C39843B706FCFFF8
:10411000FD16758F98C3D843B70681FFFD16758FBE
:10412000D8C337079F0098C7B746024003A7068049
:104130001367070123A0E680D843B706C1FFFD1629
:10414000D8C3D843D8C3D84313670740D8C3D8438C
:10415000758FD8C3D843B7063C00558FD8C3984352
:10416000B7060001558F98C3984393166700E3DDA7
:1041700006FED843B7160240719BD8C3D8431367D5
:104180002700D8C32147DC42B18BE39EE7FE828043
:10419000FD577D576317F500014582806387A700AF
:1041A000B1059C41E39CE7FEC5BF05458280EFD287
:1041B0000F85411102C202C402C6FD576313F50008
:1041C00001A09377F50013972700A5679387C7C9C8
:1041D000118113D48540BA973D89AE8403A90700A5
:1041E0001374F407EFF00FA8AA890DC4854505459F
:1041F000EFF05FCD7D149307F00463ED8700A567B2
:104200009387C7B50A043E941C40828785450545BF
:10421000EFF03F9893D7244013F734008D8B63075A
:1042200007243AC40947638FE7220D47638EE722CC
:1042300005476387E722C1473EC6A1A48145C1BFA8
:1042400085450945F1B78145EDBF85451145C9B79C
:104250008145EDBF8545214565BF8145EDBF85455C
:10426000370514001305050365B7854537051400A8
:10427000410579BF8145EDB7854537051600130522
:10428000050C79B78545370516001305050449B7B0
:104290008145E5B7854537051800130505308DBF05
:1042A000854537051800130505209DB78545370559
:1042B000180013050510A9BF8145F1BF85453715C5
:1042C0001A00130505C0A9B737151A00854513054F
:1042D00005803DBF8145E5B78545056515BF81452D
:1042E000EDBF854537451D0025B7854537651D0060
:1042F00005B78145E5BF8545216519BF8145EDBFFE
:10430000854537052000050521B78145DDBF854579
:104310003705200013050502E5BD8145D5BF85455C
:10432000370520009DB78145E5BF8545370520004D
:1043300013050508F1BD8145D5BF8545370520002A
:104340000905F9B58145DDBF854537052000110513
:10435000C1B58145DDBF85453705200021054DBD2F
:104360008145DDBF85453705200019B78145E5BF8B
:1043700085453705300035BF85453705300025B701
:104380008545370530001305054059B58545371576
:104390002000BDBD8145E5BF8145372520008DBD8D
:1043A0008545E5BF8545374520009DB58145E5BF7D
:1043B00085453705008061BF8145E5BF85453705E7
:1043C00013807DB581453705138049BF8145C5BF41
:1043D00085453705158055BD8545370515801DBFB9
:1043E0008145C5BF85453705008071BF8145E5BF63
:1043F000854537053080A9B785453705308021B719
:104400008145C5BF85453705328089BF854537055C
:10441000328035BF8145C5BF854537053480DDBD58
:10442000854537053480A9B58145C5BF8545370524
:104430003680FDBD85453705368081BD8145C5BFC8
:1044400085453705388085B585453705388095B56C
:104450008145C5BF85453705208035B78145E5BF16
:10446000D147D9BBE147C9BBF147F9B305476383DE
:10447000E70299C789466381D702930780026DBB23
:1044800002C64C004E8523122101EFF04FDD4101A1
:104490006FC03FDA91474DB391848D8893078004B4
:1044A000E39DE4FC51BBFD577D57631DF500828001
:1044B0006399A700EFC25FD68C45EFF05FCF6FC066
:1044C000FFD7B1059C41E395E7FE01A07D579C41D4
:1044D0006394E700014582806394A700C84182800D
:1044E000B105F5B7FD576308F500EFC2FFD2EFF055
:1044F000FFFD6FC0BFD4014582807D579C4163940E
:10450000E7007D5582806394A70088458280B105CD
:10451000F5B7FD576308F500EFC21FD0EFF0FFFDC0
:104520006FC0DFD17D5582806305B50019C181E57B
:10453000AA852E8582808145EDBF01A001A001A042
:1045400001A001A001A001A001A001A001A001A063
:1045500001A001A001A001A001A001A001A001A053
:1045600001A001A001A001A001A001A001A001A043
:1045700001A001A001A001A001A001A001A001A033
:1045800001A001A001A001A001A001A001A001A023
:1045900001A001A001A001A001A001A001A001A013
:1045A00001A001A001A097C1FF1F9381A13B17119A
:1045B0000020130121A517550000130525A097C55C
:1045C000FF1F938525A41386018463FAC500832207
:1045D000050023A0550011059105E3EAC5FE1385EA
:1045E0000184938581AC6377B50023200500110514
:1045F000E36DB5FEFD42739002BC8D427390428024
:104600009302800873A0023097D2FFFF938202A327
:1046100093E232007390523017150000130545984D
:10462000EF003017EF00301BEFF01FAC97020000D7
:104630009382824673901234730020307115828009
:10464000EFC29FBD1841B7370140938707C02A8446
:104650006318F7000565854513050580EFF09F8613
:104660001840B70700406316F70085450545EFF091
:104670005F871840B7070040938707406316F7002D
:1046800085450945EFF0FF851840B717004093872F
:1046900007806316F70085451145EFF09F841840A9
:1046A000B7170040938707C06316F700854521457B
:1046B000EFF03F836FC09FB8EFC21FB61841B73706
:1046C0000140938707C02A846318F7000565814578
:1046D00013050580EFF00FFF1840B7070040631681
:1046E000F70081450545EFF0CFFF1840B7070040C0
:1046F000938707406316F70081450945EFF06FFE89
:104700001840B7170040938707806316F70081456C
:104710001145EFF00FFD1840B7170040938707C011
:104720006316F70081452145EFF0AFFB6FC01FB165
:10473000EFC29FAB2A84084DA56A4111AE8D9385C7
:10474000CA9E328D368CBA8CEFF0DFD92AC6484C1F
:10475000256A9305CA98EFF0FFD8AA840850A56986
:1047600093850995EFF01FD8AA8B485025699305CA
:104770004991EFF03FD7B2476385070E544C7D5700
:104780002A8B6384E600638E040C14507D57638487
:10479000E60063880B0C54507D576384E600630287
:1047A0000B0C3E85A685EFF03FD8DE8508C0EFF004
:1047B000BFD708C0DA85EFF03FD708C05DC1B74763
:1047C0000140938707806311F50A85451165EFF075
:1047D0006FEF93075003230604021CD4084C938503
:1047E000CA9EEFF05FCC91C4484C9305CA98EFF095
:1047F0009FCB014A63890B00085093850995130AE2
:104800000010EFF05FCA63090B004850930549910F
:10481000136A0A20EFF03FC98347C40208402324EB
:10482000B40113972700938741A1BA971307440057
:1048300098C3B14748C02316A40123179401231835
:1048400084013EA8231A440181E48545EFF0BF8727
:10485000484093058400EFF0EFF848408545EFF0BD
:104860003F8441016FC01F9CB747004093870740BA
:10487000631DF500854537050200EFF08FE685479B
:104880002306F4029307600389BFB75700401387DC
:104890000780631DE500854537050400EFF06FE4F0
:1048A00089472306F4029307700305BF938707C067
:1048B000E316F5F2854537050800EFF08FE28D47E6
:1048C0002306F4029307D00309BF19C5EFC2DF9492
:1048D000EFF01FE66FC09F968280EFC2FF93A5673F
:1048E00003A487A9A5659385C59E2285EFF09FBF88
:1048F00005C137050020F1659307C50C01478146C6
:104900000146938505201305C50C80CFEFF05FE2CB
:104910006FC0DF92EFC25F908347C502930500022C
:1049200013972700938741A1BA979C438843EFF0E0
:104930000FFB133515006FC07F90EFC2FF8D8347CB
:10494000C5029305000413972700938741A1BA97E6
:104950009C438843EFF0AFF8133515006FC01F8EEE
:10496000EFC21F8937040020AA84AE89EFE03FD24E
:104970009307C40C03C7C7028D472A8A1304C40CCB
:1049800063E9E7040347C402938741A10A07BA9782
:1049900003A90700938A41A1711963060904130B47
:1049A000703E4A85EFF07FF959ED338A3401638D0B
:1049B00044034A85EFF07FF86DFD8347C402850408
:1049C00083C5F4FF8A07D6979C438843EFF0AFEE88
:1049D000F9BFA56703AB87A925699305C99E5A85C9
:1049E000EFF05FB009E581494E856FC0FF83230674
:1049F00004028D4B938A41A18347C40263FAFB00F2
:104A0000EFF0BFED0347C4028D47E3FDE7F6E1BFDA
:104A10008A07D6979C4399E78347C40285072306F4
:104A2000F402D9BF9305C99E5A85EFF0BFAB034787
:104A3000C40293172700D6979C439C43E39EA7FC90
:104A4000E3F2EBF475BFEFE09FC4B30745413335A4
:104A5000F500E39AA5F8E376FBF471B711E57D550F
:104A600082807D556FC08FFDEFC20FFB2A84AE841C
:104A7000EFF05FEA7DF58347C40213972700938721
:104A800041A1BA979C438843EFF06FE388A00145AA
:104A9000D1BF8280EFC24FF8EFE03F9CEFC0BFC2B2
:104AA000EFC0BFCEF5BF93574500BD8B114763677D
:104AB000F7022567130747A781471376F50F93067B
:104AC00050020C436397C50013750570C98F3E856E
:104AD000828085071107E396D7FED5BF9307500262
:104AE000FDB71377F50FA547AA8663EAE702A56726
:104AF0009387C7A4131627003E961042937705703C
:104B000093054002D18F13F6F70F63F6C50493F5B2
:104B1000070C1305000C6382A50A7D55828013786B
:104B2000050C9307000C7D556318F8089305900C4D
:104B300063E4E50813F6F603A5679387C7A40A069E
:104B40003E96104293F7067093084002D18F13F6F9
:104B5000F70F63EBC804A567938747A70A063E963D
:104B6000A547104263E9E700A5670A079387C7A432
:104B70003E971C432DA093F7060C9305000C1305DC
:104B800000706391B7029307900C63EDE70093F711
:104B9000F60325678A071307C7A4BA979C43DD8EDF
:104BA00013F50670518D09A893F8070C6396080158
:104BB00093F7F70363F9C50082809305900C93F790
:104BC000F703E3ECC5F4A5658A079385C5A4AE9702
:104BD0009C432566130646A78A07B2979043A547CC
:104BE00063E5E7000A072E9769B793F7060C1308E9
:104BF000000C13050070E39707FB9307900CE3E3A9
:104C0000E7FA13F7F603F9BF6387C502637DB600C1
:104C1000918D8547B397B700636EF5000505335551
:104C2000B5007D15828001C90505B305B640331571
:104C3000B500C5BF01458280EFC20FDEEFF07FEA0D
:104C4000FD57630EF500138441820C40EFE0DF91C5
:104C500003A681820C40EFF03FFB6FC02FDE0145C1
:104C6000EDBFEFC2CFD99377F50F13074002636D05
:104C7000F70625678A07130747A7BA978043137576
:104C80000570FD57498C6308F4089357240093F985
:104C9000C703938741A2CE979C43137AF400AE8456
:104CA000B3D74701858B138941A28DC7A56593852D
:104CB00045822285EFF0CFCD01C52285EFE09F969A
:104CC000B307390194430547331747011347F7FFEB
:104CD000758F98C3954763ED9704A5658A049385FE
:104CE000C5CDAE949C4082871377050C9306000CCB
:104CF0006313D7021307900C636FF7009377F503E4
:104D000025678A071307C7A4BA979C439DB79145A7
:104D10002285EFF0CFC96FC0CFD18D45D5BFE1451A
:104D2000C5BF93058002EDB78145DDB79D45CDB781
:104D300001A0EFC26FCE1377F50F930740022E86C6
:104D400063E5E704A567938747A70A073E971C43D7
:104D500013750570C98F13D747003D8B91460145E8
:104D600063E9E600B70600200A07938686023697B5
:104D70000843BD8B0547B317F70093950701C18121
:104D800029C2EFE09FDE6FC06FCB9376050C9305D1
:104D9000000CFD57E391B6FC9306900CE3EDE6FAA8
:104DA0009377F50325671307C7A48A07BA979C432F
:104DB0002567130747A78A07BA97137505709C43A1
:104DC00051BFEFE0DFDBC1B7EFC20FC5EFE0FF8CF3
:104DD0006FC0CFC6EFC24FC4EFE0FF8C6FC00FC6ED
:104DE00005C1EFC26FC32A84EFE03F8BAA84EFF0C6
:104DF0005FCAEFE09F8A058DE36B85FE6FC00FC42D
:104E00008280411122C406C62A8411E1054422850C
:104E1000152C11E5212811E1B5220295CDBFB24034
:104E20002244410182806FF0DFFD11A89387418801
:104E300088430F00F00F8280411106C6A12201AC09
:104E4000011126CA93141500858022CC13D4740155
:104E50004AC806CE4EC652C456C2130414F8D947E7
:104E60002A8963CB87082A8A634D0404B70A800025
:104E70009384FAFFB3D48440B3F7A400AA8985CB06
:104E800097470000938787E78C43EF20803A93058C
:104E90000000EF20D01B635CA0006356090033D4F0
:104EA0008A40330A240193C9F4FFB3F94901F2405F
:104EB00062444E85D2444249B249224A924A05612F
:104EC000828097470000938767E38C43CA89EF206D
:104ED000403693050000EF209017E35AA0FC930999
:104EE0000000E35609FCCA89F9D097470000938770
:104EF000A7E083A9070065BFB707807FAA89E3E819
:104F0000F4FAAA85EF20E032AA8955B793577501C4
:104F100093F7F70F938617F8F94563CAD50213572D
:104F2000F5411367170063C606042A86370580001B
:104F30009305F5FF6D8ED945498E63D1D5029387D0
:104F4000A7F6B317F6003307F7023A8582804111BE
:104F500006C6EF30A002B24041018280B707400090
:104F6000B3D7D740B2975D46B306D640B3D7D70084
:104F7000D9BF938727F893B71700B307F0407D8F09
:104F80003A8582804111194506C6C12E0545EF308C
:104F9000404AAA85814601460145E1A14111974752
:104FA00000009387E70022C41744000013040401A3
:104FB0001D8C26C206C60984BE8419E42244B24070
:104FC000924441016FE0FFA67D1493172400A69739
:104FD0009C438297DDB7411197470000938707FCF8
:104FE00022C417440000130464FB1D8C26C24AC06F
:104FF00006C6098481443E8963988402EFE09FA33A
:1050000097470000938787F917440000130444FA78
:105010001D8C098481443E89639F8400B2402244F0
:10502000924402494101828093972400CA979C438D
:1050300085048297D1B793972400CA979C4385042F
:105040008297D9BF9387C182AA85884365A2938737
:10505000C182AA858843EDA8B3C7A5008D8B33070D
:10506000C50081E78D4763EDC700AA87637EE50829
:10507000942185078505A38FD7FEE3EBE7FE8280A9
:1050800093763500AA8789CA942185078505A38F61
:10509000D7FE93F63700C5BF9376C7FF138606FE8B
:1050A00063F0C70683A3050083A2450083AF850094
:1050B00003AFC50083AE050103AE450103A385011F
:1050C00083A8C5019385450223A0770003A8C5FFE7
:1050D00023A2570023A4F70123A6E70123A8D701A1
:1050E00023AAC70123AC670023AE170193874702A9
:1050F00023AE07FF75B790419107910523AEC7FE18
:10510000E3EBD7FEE3E6E7F6828063F1A504B3861E
:10511000C500637DD5029345F6FF8147FD17639374
:10512000F50082803387F600034807003387C70005
:105130002A9723000701DDB73387F50014233307CF
:10514000F500850714A3E319F6FE82808147E5BFC9
:10515000CDC183A7C5FF411122C406C626C2138450
:10516000C5FF63D307003E94AA846D2B9387818883
:105170009C4399EB2322040023A481882244B2405B
:1051800026859244410145A3637EF4001440330711
:10519000D4006396E7009843DC43369718C05CC0A0
:1051A000E1BFBA87D84319C3E37DE4FE9443338655
:1051B000D700631F86001040B29694C33386D70091
:1051C000E31EC7FA10435843B29694C3D8C37DB7C1
:1051D0006375C400B1479CC055B71040B306C40006
:1051E0006316D70014435843B29614C058C0C0C3C6
:1051F00071B78280011126CA93843500F19806CEDA
:1052000022CC4AC84EC6A104B14763F1F404B144AC
:1052100063E0B4042A8939239387818898433A84C8
:1052200031E09387C1889C4391E781454A854520B9
:1052300023A6A188A6854A855928FD5963173507F5
:10524000B1472320F9004A85F92929A0E3D204FCBB
:10525000B1471CC10145F2406244D2444249B249BF
:10526000056182801C40858F63CE0702AD4663F6E0
:10527000F6001CC03E9404C031A05C40631287025B
:1052800023A4F1884A8545211305B40093074400FF
:1052900061993307F54061D33A94898F1CC065BF8B
:1052A0005CC3CDB722874040A5BF13043500719879
:1052B000E30385FCB305A4404A851128E31D35FBB3
:1052C00041B79387C1822E86AA858843B1A941112F
:1052D00022C42A842E8523A201AC06C6EFE00FF378
:1052E000FD576317F500938741AC9C4391C31CC0E5
:1052F000B240224441018280FD4763F6B700D9479E
:105300001CC17D5582807C41011122CC06CE2E86A7
:105310002A8491C713972500BA97984319EB2285E1
:1053200032C68528AA85228562443246F24005614C
:105330001DA8854601456308D700FD566319D700AF
:10534000D9471CC00545F2406244056182802E8524
:1053500023A0070002970145FDB79387C182AA8564
:1053600088436FF07FF9411122C42A842E85B285CB
:1053700023A201AC06C6EF308009FD576317F50084
:10538000938741AC9C4391C31CC0B240224441016D
:1053900082806F300007AA87850703C7F7FF6DFF7C
:1053A0003385A7407D158280130101DC930700201F
:1053B000232C812223263123232E1122232A9122DA
:1053C000232821233ECE2A84AE89368701C91C4D6D
:1053D00091E732C436C6E12A324722461309010258
:1053E000B286CA85700822859921AA847D5591CC00
:1053F000F2462686CE85228535282ACE638624016C
:10540000A6852285EFF0DFD472458320C1230324D3
:10541000812383244123032901238329C1221301EA
:10542000012482809387C182B2862E86AA85884312
:105430006FF09FF7411122C42A842E85B2853686EB
:1054400023A201AC06C6EFD09FF3FD576317F5000A
:10545000938741AC9C4391C31CC0B240224441019C
:105460008280938701899C432A8E99EF138781A3B9
:1054700023A8E18817B5FFFF1305C5B8BA8709C58A
:105480001C4123A0F1ACBA87D8437D487D556347C2
:10549000E804630E0E0203A887086301080493184A
:1054A0002700C29823A0C80003230810054633161E
:1054B000E6003363C3002320681023A0D808894680
:1054C0006317DE0083264810558E2322C8109306EA
:1054D00017000A07D4C3BA978CC70145828097B7D3
:1054E000FFFF938727B299C717050000130545AB47
:1054F0006FF03FAA8280411122C406C62A844EA5BD
:1055000072A5232005002322050023240500232261
:10551000050623280500232A0500232C0500214623
:1055200081451305C505EFB0BFC1970700009387FC
:1055300067255CD0970700009387A7271CD497079F
:1055400000009387A72B5CD4970700009387072E52
:1055500000D01CD8B240224441018280970500004F
:105560009385E54899AA411126C2130680069384C3
:10557000F5FFB384C4024AC02E8922C406C69385AF
:105580004407EFF03FC72A8401CD232005002322E2
:105590002501310508C4138684068145EFB05FBA42
:1055A0002285B240224492440249410182801C4D2E
:1055B000A5E7411106C622C497070000938747FA62
:1055C0001CD59387C1839C4323240504232605040B
:1055D000232805046314F50085471CCD2A8435284B
:1055E00048C022851D2808C42285052848C4484093
:1055F00001469145EFF03FF008440546A545EFF020
:105600009FEF48440946C945EFF0FFEE85471CCCA3
:10561000B240224441018280828041119387C1833C
:1056200026C284434AC006C69C4C22C42A8981E70C
:105630002685EFF0DFF7938484048044DC40FD1777
:1056400063D607009C40B9CF8440C5BF0317C40090
:1056500039E7C1778507232204062320040023228B
:105660000400232404005CC423280400232A04002B
:10567000232C0400214681451305C405EFB05FAC1F
:10568000232A0402232C04022324040423260404D2
:105690002285B2402244924402494101828013048F
:1056A000840671BF91454A85EFF0FFEB88C049FD44
:1056B000B1472320F9000144E1BF797122D44AD0D7
:1056C00052CC56CA5AC85EC606D626D24ECE2A8AB2
:1056D000AE8A130485040149054BFD5B09ECB25009
:1056E00022544A8592540259F249624AD24A424BA4
:1056F000B24B45618280044483294400FD1963D480
:1057000009000040E1BFDE24637BFB008397E400D7
:1057100063877701A6855285829A3369A9009384AD
:105720008406E9BF8280828081E5B2856FF09FACFC
:10573000011122CC06CE26CA4AC84EC6328401EEDA
:10574000EFF01FA10149F24062444A85D244424928
:10575000B24905618280AE84AA891D262689E37438
:1057600085FEA2854E85EFF0FFA82A8969DDA68512
:105770002286EFF07F8EA6854E85EFF07F9DE1B704
:10578000411122C42E848395E50006C6EF00F01F68
:10579000634905007C48AA977CC8B2402244410175
:1057A00082805E247D777D17F98F5EA4FDB7DE25AC
:1057B000011122CC26CA4AC84EC606CE93F707105E
:1057C000AA842E843289B68991C78395E5008946DB
:1057D000014641245E247D777D17F98F5EA48315F1
:1057E000E4006244F240CE864A86B24942492685A8
:1057F000D24405616FF01FC4411122C42E848395E9
:10580000E50006C6B924FD575A24631AF500FD7752
:10581000FD17F98F5EA4B240224441018280856762
:10582000D98F5EA468C8C5BF8395E5008DA01971A6
:10583000A2DC86DE32841C40368695C51308806063
:1058400081E7130880288145231A01012EC42ECC3C
:1058500063DF07009307B0081CC18147F650665408
:105860003E8509618280130880288147F1BF3EC8C8
:105870003ECEBA86FD572C00FC83FD2C8147E34FBA
:1058800005FCA24708C023800700E247C1BF4111C1
:1058900022C42A842E8523A201AC06C6EF20B0358F
:1058A000FD576317F500938741AC9C4391C31CC01F
:1058B000B240224441018280DE25011122CC26CA59
:1058C00006CE4AC84EC613F78700AA842E8461EF1D
:1058D000D841634DE000B841634AE0000145F24021
:1058E0006244D2444249B2490561828058547DD70E
:1058F00003A904009396370123A0040063DC060685
:1059000070485E24918B99C75C401D8E5C5899C38A
:105910003C401D8E5C540C50814626858297FD5775
:105920005A24631DF5009440F54763E9D706B7078D
:1059300040208507B3D7D700858BADC31C482322F1
:1059400004001CC09317370163D80700FD57631488
:10595000F5009C4091E368C84C5823A02401BDDDAC
:10596000930744046385F5002685EFF06FFE232A34
:105970000402ADB70C500146854626850297FD57B7
:105980002A86E310F5F89C40ADDF75476385E70094
:1059900059476393E70423A0240189B713670704D9
:1059A0005AA47D552DBF83A90501E38909F203A9F6
:1059B00005008D8B23A0350133093941014791E35F
:1059C000D84918C4E35C20F11C540C50CA864E869A
:1059D000268582976347A0005E2493E707045EA4B0
:1059E000C9B7AA993309A940F1BF9C49ADC30111B8
:1059F00022CC06CE2A8419C51C4D89E72EC6EFF0AD
:105A00001FBBB2459737000093878731639CF50031
:105A10004C408397C5009DC722856244F2400561D2
:105A20006FF09FE997370000938787316394F50003
:105A30000C44C5B7973700009387872CE39BF5FC90
:105A40004C44C1BFF240624401450561828001457A
:105A50008280411122C42A842E85B285368623A2F3
:105A600001AC06C6EF20701BFD576317F500938746
:105A700041AC9C4391C31CC0B2402244410182808E
:105A800083A7C5FF1385C7FF63D50700AA959C416F
:105A90003E95828001114AC803A9850022CC52C4D8
:105AA0005AC006CE26CA4EC656C22E84328B368ABD
:105AB00063E92609DE2513F7074851C304408C49E2
:105AC0005848AA8AB389B4408D44B384E402094794
:105AD000B3C4E402138716004E9763F3E400BA845C
:105AE00093F70740BDCFA6855685EFF0AFF02A8922
:105AF0001DE1B14723A0FA005E247D5593E707041A
:105B00005EA4F2406244D2444249B249224A924AD7
:105B1000024B056182800C484E86EFF0EFD35E2485
:105B200093F7F7B793E707085EA42328240144C836
:105B30004E99B38434412320240104C452896373F1
:105B40002A01528908404A86DA85EFF00FDC1C44AE
:105B50000145B38727411CC41C403E9923202401E2
:105B60004DB726865685EFF03FBC2A895DFD0C486F
:105B70005685EFF0EFDDB5BFDE25717126D34AD132
:105B80004ECF06D722D552CD56CB5AC95EC762C575
:105B900066C393F70708AA892E89B284B9C39C49C2
:105BA000A9E39305000436C6EFF0CFE42320A90053
:105BB0002328A900B24615E1B14723A0F9007D557D
:105BC000BA502A549A540A59FA496A4ADA4A4A4B4C
:105BD000BA4B2A4C9A4C4D61828093070004232AC9
:105BE000F90093070002A30CF1029307000302DA05
:105BF000230DF10236CE930B5002973A0000938AA0
:105C00002A16054C294B26841C2099C363987709D2
:105C1000B30C9440638E0C00E6862686CA854E85BA
:105C2000EFF05FE7FD576308F518D256E69636DACF
:105C30001C2063820718FD579304140002D002D67B
:105C40003ED202D4A301010682DC8C201546568583
:105C5000A52313841400825721E513F7070109C710
:105C600013070002A301E10613F7870009C7130712
:105C7000B002A301E10694201307A002638AE602A2
:105C8000B257268481462546182093051400130731
:105C900007FD6372E6068DC63ED61DA00504ADB7AE
:105CA000330555413315AC00C98F3ED0A28471BF76
:105CB000724793064700184336CE634707023AD629
:105CC00018209307E002631DF70418309307A00221
:105CD000631BF702F2470904138747009C433ACE3F
:105CE00063C107023ED22DA83307E04093E72700A7
:105CF0003AD63ED0F1B7B387670385462E84BA976C
:105D000061B7FD57C5B7050402D2814681472546D4
:105D1000182093051400130707FD6374E606F9F2D3
:105D20000C200D461735000013050504712111CD17
:105D300097370000938747031D8D93070004B3979F
:105D4000A700025505045D8D2AD00C201946173591
:105D500000001305A50193041400230CB102A92926
:105D600025C597A7FFFF9387E72995E70257F247D5
:105D70001377071009CF91073ECED257D2973EDA5C
:105D800059B5B387670385462E84BA9751B79D07E7
:105D9000E19BA107D5B77808970600009386C6CF88
:105DA0004A860C104E8597000000E7000000FD5762
:105DB0002A8AE314F5FC8357C9007D5593F707043D
:105DC000E39007E05255EDBB7808970600009386F4
:105DD000A6CC4A860C104E85012AD1BF797156CACD
:105DE0009C49BA8A984522D426D24ECE52CC06D6A9
:105DF0004AD05AC85EC6AA892E84B284368A63D332
:105E0000E700BA879CC00347340419C385079CC0C8
:105E10001C4093F7070281C79C4089079CC0032957
:105E2000040013796900631A0900130B9401FD5BE8
:105E30005C449840998F634CF9041C4083463404B9
:105E400093F70702B336D000A5EB13063404D285CE
:105E50004E85829AFD576303F5041C401146984015
:105E6000998B544481446397C700B384E64063D35D
:105E7000040081441C4418486354F700998FBE9471
:105E8000014969047D5B63982405014509A885469D
:105E90005A86D2854E85829A631E75017D55B25011
:105EA000225492540259F249624AD24A424BB24BAE
:105EB000456182800509ADBF3307D4001306000396
:105EC000A301C7040347540493871600A2978906C9
:105ED000A381E7049DBF85462286D2854E85829A9E
:105EE000E30E65FB050945B7797122D426D24AD065
:105EF0004ECE06D652CC56CA5AC8B689942D9307B0
:105F000090063289AA842E8413863504638DF602A6
:105F100063E2D706930780056386F61863EDD70022
:105F2000638E062093073004638EF60A930A2404D6
:105F30002301D404C9A0930730066385F60A9307AA
:105F40004006E395F6FE1C40084393F607089305C8
:105F50004500C5C61C410CC363D807001307D00217
:105F6000B307F040A301E40497360000938686E06F
:105F7000294765A8930700076382F61663E5D702F1
:105F80009307E0066389F6189307F006E390F6FAA4
:105F90000C401C4313F805081385470063070806E7
:105FA00008C39C4385A893075007E383F6FE930735
:105FB00080076389F61293073007E399F6F61C43CE
:105FC000D04181459386470014C383AA07005685B4
:105FD000E52201C53305554148C05C401CC8A301FA
:105FE000040461A81C43930A2404938647009C433D
:105FF00014C32301F4048547D5B793F607041C4165
:106000000CC3B9DAC207C18781BF93F5050408C381
:10601000C9D99E231307F0066387E60E9736000062
:10602000938646D52947A30104044C400CC463C59C
:10603000050008406D9908C099E3B28A89CDB28AFB
:10604000B3F5E702FD1AB6958C212380BA00B3D5CB
:10605000E70263F0E70CA147631EF7001C40858B45
:1060600091CB58401C4863C7E70093070003A38FF8
:10607000FAFEFD1A3306564110C84E87CA867000D4
:10608000A2852685EFF09FD57D5A631D450B7D5572
:10609000B250225492540259F249624AD24A424BB7
:1060A00045618280A382D50497360000938686CC12
:1060B0000C40084313F805081C411105630D080244
:1060C00008C313F7150001C793E505020CC041474B
:1060D000B9FB0C4093F5F5FD0CC0B1B79C4193E7BB
:1060E00007029CC193078007A302F40497360000BF
:1060F000938686C975BF13F8050408C3E30308FC3B
:10610000C207C1837DBF973600009386A6C621478C
:1061100019BFAE8735B794411C43CC4913F8060824
:10612000138547006306080008C39C438CC339A04D
:1061300008C393F606049C43F5DA8EA323280400D3
:10614000B28A25BF14485686CA8526858299E300FF
:1061500045F51C40898B8DE7B2474844E35AF5F278
:106160003E853DB785465686CA8526858299E300D9
:1061700065F3050A5C443247998FE345FAFEE9BFAF
:10618000014A930A94017D5BF5B7411122C42A8428
:106190002E85B285368623A201AC06C6EF20A02844
:1061A000FD576317F500938741AC9C4391C31CC016
:1061B000B24022444101828093F5F50F2A96631480
:1061C000C500014582801C21E38EB7FE0505C5BFD1
:1061D000B687B2882A832E88639B061463F8C50AA3
:1061E0004167636BE61AB70700016360F6349356A4
:1061F0008601E14717370000130747CA369718236F
:10620000BA97130700021D8F19CB3398E500B357D7
:10621000F500B318E60033E807013313E50013D6A1
:1062200008013355C80293960801C18293570301B0
:106230003377C802B385A60242073368F700637A52
:10624000B80046989307F5FF636418016365B8309A
:106250003E853308B8403357C80242031353030145
:106260003378C802B386E602420833686800637B6D
:10627000D80046989307F7FF6365180179176363A1
:10628000D8003E874205598D8145828001E6054749
:10629000B358C702416763E8E80EB707000163EA35
:1062A000F82893D68801E14717370000130707BF86
:1062B00036971423BE9693070002958FFDE7939EB1
:1062C00008013387154113DF080193DE0E01854570
:1062D000935703013355E7033377E703B306D50339
:1062E0004207D98F63FAD700C6971307F5FF63E417
:1062F000170163E5D7263A85958F33D7E703420325
:1063000013530301B3F7E703B30ED703C207B3E791
:10631000670063FBD701C6979306F7FF63E5170194
:10632000791763E3D70136874205598D828063E18F
:10633000D504C16763E1F604B707000163E3F61E05
:1063400013D78601614897370000938727B5BA971E
:106350009823130E00024297330EEE40631A0E0C80
:1063600063EDB61C3335C5001345150081458280A9
:106370008145014582809307F00F63F3D71C13D743
:1063800086002148C9B71307F00FC686E37E17F1D0
:1063900093D68800A14709BF1307F00FB286E37BAD
:1063A000C7E493568600A147B1B5B398F80033D639
:1063B000D50013DF0801335EE6033397F500B356CB
:1063C000D500558F939E080193DE0E013313F5001F
:1063D00093550701B376E603B387CE03C206CD8E8D
:1063E00063FBF600C6961306FEFF63E4161763F21E
:1063F000F616791EC6969D8E33D6E60393170701CF
:10640000C183B3F6E6033385CE02139706015D8F91
:10641000637BA70046979307F6FF636817136376BD
:10642000A7127916469793150E01098FD18D4DB598
:10643000B357E600B396C601DD8E33D3E50013DF14
:106440000601B357E303939E060193DE0E013398D2
:10645000C5013357E5003368070193580801331627
:10646000C6013373E303B385FE024203B36813012D
:1064700063FBB800B6981387F7FF63EAD80C63F89C
:10648000B80CF917B698B388B84033D7E803420878
:1064900013580801B3F8E8033383EE02C208B3E5EA
:1064A000080163FB6500B6951308F7FF63EDD50897
:1064B00063FB65087917B695C207416FD98F13073B
:1064C000FFFFB3F6E70093D80701718F4182B38EC7
:1064D000E602B3856540B386C60213D80E01338742
:1064E000E802BA96C2963386C80263F3E6007A964B
:1064F00093D80601469663E2C5026385C5003E85D2
:106500008145828041677D17F98EC206B3FEEE0099
:106510003315C501F696E374D5FE1385F7FF814563
:10652000828013D70601414839BD93560601C14701
:10653000D1B193D60801C14785BB8145054582800D
:106540003687014809B5428785BF3E86E9BDBA87CF
:106550001DBF328E4DB579154698E5B97915C697A8
:1065600061BB39714AD813D945014ED652D456D29F
:106570009399C50006DE22DC26DA5AD05ECE137966
:10658000F97F2A8A93D9C90093DAF501630D090EC0
:106590009307F07F6306F9181354D5018E09B36988
:1065A00034013704800033E4890093143500130963
:1065B00019C08149814B13D74601139AC60013773E
:1065C000F77FB285135ACA0013DBF601630B07107D
:1065D0009307F07F6303F7049357D6010E0A33EA5B
:1065E0004701130717C0B7078000B367FA00931578
:1065F00036003A99814833C76A01BD463A85130887
:10660000190063E8361717260000130626798A0951
:10661000B29983A60900B2968286B367CA001309AD
:10662000F97F6399071293E9290081458948E1B709
:1066300001479307F07F3704080081443204D207F2
:1066400031807E075D8C598CA285F250625426857C
:106650004259D254B259225A925A025BF24B2161EA
:1066600082805A853E84AE84C68B8947638DFB0E3B
:106670008D47E38FFBFA85472A87639EFB38814766
:106680000144814465BF33E4A90061C036C632C409
:10669000638C092A4E85EF10304F2246B246AA87F6
:1066A000130755FF7544938487FF198CB39999009C
:1066B00033548A0033643401B3149A0013D746016B
:1066C0001309D0C0139AC6001377F77F3309F94036
:1066D0008149814BB285135ACA0013DBF601E319D5
:1066E00007EEB367CA00B1C7630F0A22528532C4EE
:1066F000EF10904922462A87930655FFF5479305E8
:1067000087FF958F331ABA00B357F600B3E74701F6
:10671000B315B6003309E9401309D9C08148E1BD7A
:1067200033E4A90001ECA14981441309F07F894BAE
:1067300059B593E919008145854875BD4E84AA84F1
:10674000B1491309F07F8D4BBDB591498144014991
:10675000854B95B593E93900D2878D4869BD894746
:106760005685E397FBF02A879307F07F0144814425
:10677000F1B5C16E1386FEFF93D6040113DE050149
:10678000F18CF18D338695023383B602935806015E
:1067900033059E021A95AA98B382C60363F3680074
:1067A000F692C16F1383FFFF33F5670093D30701A0
:1067B000B3F76800C207337366003E933306950251
:1067C00093D80801B387A602135F0601B38493022E
:1067D000BE94FA94B38E760263F3F400FE9E416A8F
:1067E0009307FAFF935F0401B376F400B3F9F40062
:1067F0007D8EC1803384D502C209338FD401B29912
:10680000CE98B307DE02935E0401B385BF02AE9754
:10681000BE9E330EFE0363F3BE00529EC167938596
:10682000F7FF33F6BE006D8C4206229693DE0E0112
:10683000B305D502769E3385AF0213D40501B38626
:10684000D302AA96A296B38FF30363F3A600BE9F6A
:1068500041657D15B3F7A600C2076D8DAA97B38574
:106860005800B3B93501FA97B2953384370133B67E
:10687000C500B30EC4013385CE0033343401B3B741
:10688000E701C18F33BECE0113D406013336C500F4
:106890003E943366CE009394950032947E94B3E494
:1068A0006400260493567501B3349000DD8193177C
:1068B0009500CD8C558CDD8C9317740063DB07003D
:1068C00093D7140085889316F401DD8CD58C058050
:1068D00042899307F93F6359F00893F6740081CE1B
:1068E00093F6F40011466388C60093864400B3B45F
:1068F00096002694B6849316740063D80600B707F2
:1069000000FFFD177D8C930709409306E07F63CF5E
:10691000F60E93D634009314D4012604D58C31801E
:1069200093F7F77F21BB328532C4EF10F025930631
:106930005501F147130705022246E3D1D7DC611563
:10694000B317A6008145F9B3EF10102413075501C2
:10695000F145930705022246B246E3D5E5D4611519
:106960003314AA00814499BB85469D8EB1E7130973
:10697000E941B3972401B3D4D40033192401B337C8
:10698000F000B3649900DD8C93F77400B356D40023
:1069900081CF93F7F40011466388C70093874400C2
:1069A000B3B49700A696BE849397860063D8070475
:1069B00085470144814459B113068003E341D6CC95
:1069C0007D46E356D6FA0556B307F6409305000216
:1069D0003356F4006387B6001309E943B317240163
:1069E000DD8CB3349000D18C93F67400014499CAC5
:1069F00093F7F40011468146E392C7FA1394960088
:106A00003180F6068D80D58C81470DB99307F07FD4
:106A10000144814425B142896DBD370710007D17BF
:106A200001113373B70093D84601758F935ED60179
:106A300022CC26CA0E0393D445019357D5010E07E5
:106A400006CE4AC84EC693F8F87F130EF07F33E7A0
:106A5000EE0093F4F47F13D4F50133E36700131FC2
:106A60003500FD82931E36006380C81993C6160058
:106A7000B38514416305D4126351B018638B081AAF
:106A8000B70780005D8F6381C4599307800363C497
:106A9000B734FD4763C5B748930700028D8FB3D95C
:106AA000BE003318F700B39EFE0033683801335739
:106AB000B700B339D001336838013303E340B30979
:106AC0000F41B3373F013306F3409317860063D37A
:106AD0000724370980007D1933792601630F092CBB
