:101000006F20007E1300000013000000130000009A
:101010001300000013000000130000001300000084
:101020001300000013000000130000001300000074
:08103000130000007300100022
:1010380000100000000000002430000028300000EC
:10104800000000002C30000000000000000000003C
:101058002A3000007C37000000000000000000007B
:101068008429000000000000803700000000000014
:101078008237000084370000863700008837000078
:101088008A3700008C370000262A0000322A000028
:101098003E2A00004A2A0000582A0000983700001B
:1010A8009A3700009C3700009E370000A0370000E8
:1010B800A2370000A4370000A6370000A8370000B8
:1010C800AA370000AC370000AE370000662A0000DF
:1010D800B237000026240000B6370000CC240000F8
:1010E800DA240000F8240000162500004A20000039
:1010F800602000006E20000084200000C837000037
:10110800CA370000CC370000CE370000D0370000C7
:10111800962A0000D4370000D6370000D8370000E0
:10112800DA370000DC370000DE370000000000007E
:081138000000000000000000AF
:101140003D432A876373C3029377F700BDEFADE594
:10115000937606FF3D8ABA960CC34CC30CC74CC7A6
:101160004107E36BD7FE11E28280B306C3408A06D3
:101170009702000096966780A6002307B700A30693
:10118000B7002306B700A305B7002305B700A304E3
:10119000B7002304B700A303B7002303B700A302DB
:1011A000B7002302B700A301B7002301B700A300D3
:1011B000B7002300B700828093F5F50F9396850062
:1011C000D58D93960501D58D61B79396270097022B
:1011D000000096968682E78086FA9680C1171D8F5A
:1011E0003E96E374C3F8A5B7397101436EC619A0E2
:1011F000397141536AC866CA62CC5ECE19A0397192
:1012000001535AD056D252D44ED64AD826DA22DCCE
:1012100006DE33016140828241114AC026C222C4E7
:1012200006C68282B24D4101024D924C224CB24B15
:101230004101024B924A224AB24941010249924479
:101240002244B24041018280EFF21FFD1C418841DF
:101250008297EDB785476307F60089476306F60076
:10126000014582800CC1EDBF9C411CC1D5BFEFF28E
:10127000BFFA1C418297D9B785476307F6008947B3
:101280006306F600014582800CC1EDBF9C411CC184
:10129000D5BF1C4599C7EFF23FF8AA850D46829746
:1012A00071BF8280EFF2BFF537040020AA891304D2
:1012B00004008144294908401104EF20703B11814A
:1012C000B38799001345F5FF88A38504E39524FFB0
:1012D0008DB7EFF2FFF1B75500009385058D1385AB
:1012E0008196EF10802A014A375C0000B75B00004E
:1012F0009389C188375B000013890188B75A0000C1
:101300009384418793050C8E13858196EF100025F9
:101310002946D28513858196EF10003393854B8E35
:1013200013858196EF108023B38749018C232946CA
:1013300013858196EF10E0349305CB8E138581964B
:10134000EF10C021B30749018C23294613858196EC
:10135000EF10203393854A8F13858196EF1000207C
:10136000B38744018C23294613858196EF10003200
:10137000050AA947E318FAF845BDEFF2FFE9B755AA
:1013800000009385C58B13858196EF10402181471E
:101390009386C1887D55138701882946B385F60059
:1013A00088A1B305F700238005008507E398C7FEF1
:1013B00071B5EFF27FE64111EF20303B4800DD359B
:1013C000138701881385C188938701888145138617
:1013D000C18829485400AE9694228348050063F3DF
:1013E000160114A183C8070063F3D80094A38505F0
:1013F00005058507E39005FF814713854187294847
:10140000B306F6008C22142363E5D500938685008D
:1014100014A31423B308F5008507AE9685862380B0
:10142000D8000507E39E07FD410109BD01479386EA
:10143000C1889308F00F13860188294EB387E60010
:1014400003C30700B307E5009C233308E600034805
:101450000800B3876740B387170333086840B3C7F2
:10146000070363D4F8009307F00F3388E50063D3D4
:10147000070081472300F8000507E311C7FD8280BC
:10148000814713874187854829483306F500B3060D
:10149000F700034306009022B386F5006378C3008B
:1014A000238006008507E39207FF828023801601D0
:1014B000D5BFEFF27FD641112E844C00853F1387B4
:1014C000818901468146814729484C00B29588218F
:1014D0000C430506AA96B305B5021107AE97E316AD
:1014E00006FF1307100301456356D702B3C7D7029F
:1014F0001307E015930600089E07B3C7E7023E876F
:1015000093F7F70F63F4F600130700F8130707F8D3
:1015100018A0054541011DB3EFF21FD0F16541113F
:1015200009461385819693850520EF00703BB755DA
:1015300000009385C58F13858196EF104006814684
:1015400001461385018C93053003EF008073B717B4
:1015500000009387E75E3EC0B7170000938787249B
:101560003EC6B7170000938747258A851385018CEF
:101570003EC4EF0040730A85293BB71700009387EC
:10158000876C3EC0B71700009387E7263EC6B717A3
:101590000000938787278A851385018C3EC4EF005E
:1015A00040750A85FD3193878189130730FD98C303
:1015B0001307D0FDD8C31D5798C74557D8C76D57D7
:1015C00098CB1547D8CB3D4798CF6547D8CF130761
:1015D000300298D31307D002D8D3410185B182805D
:1015E000EFF29FC3EF20701823A6A18481B9EFF218
:1015F000BFC2B7550000AA8493854587138581969D
:10160000EF00F07903A701841389018423A4E18406
:10161000635690021385018C7D22B755000023206C
:10162000A9009385858813858196EF003073832503
:101630000900294613858196EF10A0018327090030
:101640002147FD146386E7066362F7020D47638F47
:10165000E704635A90061385018CB522AA852946B2
:1016600013858196EF00F07EFD14E5B73147638363
:10167000E7043947E39FE7FC3709002013090916FF
:1016800083470900B75500009385C58993C71700A4
:10169000138581962300F900EF00506C8345090003
:1016A000294613858196EF00D07A65B7F93155B791
:1016B0000D3145B7EF20700BAA8529461385819619
:1016C000EF00107E79B79DBEEFF21FB51384418401
:1016D0001C401307803E011185071CC0639BE70275
:1016E000B75500009385858A13858196EF001067B2
:1016F000EF20B0079384C1848C402946B305B540E0
:1017000013858196EF00D079EF20300688C0232022
:10171000040083A701843547636DF70815678A07BE
:101720001307C783BA979C4382872800A53E51318F
:1017300029462C0001A82800B5364C082800FD31A8
:1017400029464C081385018C252A99A02800993E2A
:101750004C0828003533EDB72800A9364C0828007E
:10176000893B8347410105462C001385018C5C842D
:10177000012AB75500009385058B13858196EF00EC
:10178000F05D83454101294613858196EF00107075
:1017900005616DB429469385C1886DB72946938547
:1017A00001884DB729469385418769BF85477C8469
:1017B00041B72800C53CADBF014582801A2D6A297A
:1017C0003305A74082807E29162D2A8763F8D7002B
:1017D0001449BE96850788227EAB82807D55828023
:1017E0007A291E2D6376F7001C49BA9788238280D8
:1017F0007D558280084D8327050A99CBEFF2DFA142
:101800008327450A231105021305850982973DB4F4
:101810008280EFF27FA0834745024111CC872A8462
:10182000B1C3263193070040850463C997041E3174
:1018300063FF97009307000263F4F400930400022F
:10184000484CA685EF20502609CD48CC06B036304E
:101850005C4C98870545B69798A33E3085073EB007
:1018600019A801A005469305F10013058502EF00B4
:10187000E0761335150041016FF05F9C0145E5BF2F
:10188000EFF2FF97834745022A843289A9CB26319C
:1018900093070040B29463E297041E31AE8963FD62
:1018A00097029307000263F4F40093040002484C8B
:1018B000A685EF20701F05C148CC06B03E30484CCD
:1018C0004A86CE853E95EF20E07B3E30CA973EB0FB
:1018D0004A856FF01F9601A0F5F00149D5BF420679
:1018E000418213058502EF00606F7DD1FDB793073C
:1018F000803E1CC595679387C7911CC195672328B7
:1019000005082320050A9387C7CEF84F2322050038
:1019100078C1BC4F3CC582805E2963F6B702EFF206
:10192000BF8F930700022E8463F4F50013040002B6
:10193000AA840849A285EF20301709C588C8C2A823
:101940006FF0DF8F01A08280EFF21F8D004D032921
:10195000C5024111832704099DCF7A281E2C636C90
:10196000F702AA84CA852285453F08484A8693859E
:101970008403EF20207183270409231B0400231C08
:1019800024014AC699E3EF202062832744096C00B2
:1019900013058408829741016FF05F8A584D11CB7F
:1019A000EFF29F87123181453A85EFF06FF96FF0C2
:1019B000FF888280EFF25F862A84231B0500231CA8
:1019C0000500084909C552288145EFF06FF723113A
:1019D00004022285E1376FF07F86EFF27F812A844F
:1019E00068410111EF20A02F8145EF20004B6C4092
:1019F0001147014593D74500BD8B6369F700370751
:101A000000208A0713078702BA978843BD89854754
:101A1000B395B700C205C181EF102037631D0518CB
:101A20002844370A0020514BEF20602B8545EF20DA
:101A3000C046914B130A8A02054CB7F400E02549D1
:101A40002C44014593D74500BD8B63E5FB008A0715
:101A5000D2978843BD89B315BC00C205C181EF1080
:101A6000A0359844DC441306803E3AC03EC29848F4
:101A7000DC48814693091700B3BAE900BE9AB30562
:101A80005903B337390333053903BE95EF203020AE
:101A9000024792473AC43EC6014781479044D44426
:101AA00032C036C22246B2460248924863E8D81095
:101AB000639416016364C810024E924E2248B248E5
:101AC00033030E4133366E0033881E419A86330845
:101AD000C840BE9633B6F600429732970246B687A4
:101AE000924632C436C6E36BB7FA6394E500E3E787
:101AF000A7FA2C44014593D74500BD8B63E5FB0055
:101B00008A07D2978843BD89B315BC00C205C1813D
:101B1000EF1040299844DC441306803E3AC83ECA80
:101B20009848DC48814693091700B3BAE900BE9A89
:101B3000B3055903B337390333053903BE95EF2095
:101B400010154247D2473ACC3ECE014781479044D8
:101B5000D44432C836CA6246F2464248D24863E3A9
:101B6000D80863941601636FC806424ED24E62488D
:101B7000F24833030E4133366E0033881E419A8695
:101B80003308C840BE9633B6F600429732974246B5
:101B9000B687D24632CC36CEE36BB7FA6394E50013
:101BA000E3E7A7FA7D1BE31D0BE82844EF20201391
:101BB0008145EF20802E05616FF00FE72248B24883
:101BC000024EB3860941924E33B3D900B3881A410D
:101BD0003386C601B38868403338D600F698B2869B
:101BE0004698C5BD6248F248424EB3860941D24E7E
:101BF00033B3D900B3881A413386C601B38868402D
:101C00003338D600F698B2864698ADBFEFF2CFE0F3
:101C100093971500FD1593B51500A302F502230156
:101C2000B508A301C5082302D50823280500232AE7
:101C30000500231C0500230D050028C1232E0500E7
:101C400023200502230205022A84413B83465402D5
:101C500093048402E16511669385056A2685092A45
:101C60008347240889EFB71500009385457F2685B3
:101C7000D92EB7250000938585942685D9266FF047
:101C8000EFDBEFF26FD993F5F50F49376FF00FDB0C
:101C9000944118415C4114C1D441411154C198C1CF
:101CA000DCC141018280EFF22FD79C45411102C473
:101CB0002A841309850889CB09460A85AE84829750
:101CC000DC443EC69C443EC4CA850A85D137A2473F
:101CD000032704090A852328F408B2473AC40327D6
:101CE0004409232AF4083AC6EFF0AFDA41016FF055
:101CF000EFD4EFF26FD29C45411102C42A8413093C
:101D0000850989CB09460A85AE848297DC443EC6A4
:101D10009C443EC4CA850A85A53FA2470327040AFE
:101D20000A852320F40AB2473AC40327440A23222F
:101D3000F40A3AC6EFF0EFD541016FF02FD0EFF281
:101D4000AFCD1385018C65366FF04FCFEFF2CFCC5E
:101D50001384018C95679387C791130584091CC070
:101D6000EFF02FD313058408EFF0AFD26FF00FCD53
:101D700063090516EFF2AFC82A84484D156AAE8490
:101D80009305CAA6B6893289EF1070192A8B0850BC
:101D9000956A9385CAA3EF109018AA8563010B1466
:101DA000630F05125A85EF10D01B08C06309051296
:101DB000B757004093870740130B44006319F5029F
:101DC000854537052000EF10203981453705200073
:101DD000EF108038854537052000EF102034930739
:101DE000F0025CD0930700031CD423A8618518403F
:101DF000B7670040938707806319F7028545370569
:101E00004000EF106035814537054000EF10C034C9
:101E1000854537054000EF106030930710035CD014
:101E2000930720031CD423AA618508509385CAA375
:101E3000EF10100B484C9305CAA6EF10700A08402B
:101E400061671307076A48C0BA876371970237272B
:101E50000600130707A8BA87637A970037470F0071
:101E600013070724814763639700BA8761671CC41F
:101E7000231604001307076A916763649700B1672C
:101E8000FD177EA4930700403EA88347A4052318AE
:101E90003401231A240185EF5E215850854693E7CB
:101EA00007705EA193575700938707043396E600A7
:101EB0008A0737E700E0BA9790C31054935756004B
:101EC000938707048A07B396C600BA9794C393050D
:101ED0008400EF00B07D08408545EF10400C6FF0A6
:101EE0004FB58280EFF24FB32A840841B704001047
:101EF00093850440EF10200F11C5084093850440DE
:101F0000EF1080110840B704001093850410EF1003
:101F1000800D11C5084093850410EF10E00F6FF09D
:101F2000EFB1EFF26FAF2A840841B7050010C10589
:101F3000EF10600B09C508408545EF1040066FF0B3
:101F4000EFAFEFF26FAD2A840841B704001093851C
:101F50000404EF10400909C9938404047D49084032
:101F6000A685EF10400815E50840C145EF10600553
:101F700029E50840B705001093850508EF10A00675
:101F800009C55C5899C3228582972285A13F6FF0CD
:101F9000EFAA0840EF10600283478405E361F9FC73
:101FA00083478405A297238CA7028347840585076E
:101FB00093F7F70F230CF4045DB78347840593F779
:101FC000F70F5CD4230C04045C546356F0001C58D7
:101FD00099C3228582972285A93761BFEFF24FA16D
:101FE000AA842E8B328A37090600EF005018AA8A7D
:101FF0008149014413094908894B636544014E85B1
:102000006FF08FA2B3078B008C23C84005041374B4
:10201000F40FEF00507AC840CA85EF00907A71FD46
:10202000EF00F0143305554163EBAB008840EF003F
:10203000B07A61D526857D352685E535E9BF954998
:102040006DBF0CD982804CD9828003A5018593870E
:10205000C18098437115050798C3E535730020309A
:10206000938741809843050798C37300203003A5E8
:1020700041859387018198437115050798C3D13530
:1020800073002030938781809843050798C37300BD
:10209000203082807D558280EFF20F981C414111E3
:1020A000CC87DC439305F1000546829741016FF030
:1020B000EF98EFF26F9641119305F1004105EF1093
:1020C000903D09E5888741016FF04F977D55E5BF49
:1020D000EFF28F942E85B285EF10302C6FF00F96B3
:1020E0001377360093870183BA9703C807006CC142
:1020F0002300C504137706039307000393060060CB
:102100006307F70093760602B336D000AA06098665
:102110000D8A7D168947014763E7C7000606938746
:1021200041833E961A22A1476306F800A547630B38
:10213000F80001A00146EFF22F8E4105EF10901C30
:102140006FF0CF8F0566C5BF13F7F50F93074002F9
:1021500063EDE70095679387C7CE0A073E971C4358
:1021600093F50570CD8F5CD5828093F6050C130630
:10217000000CFD57E399C6FE9306900CE3E5E6FEDE
:1021800093F7F5031567130747CC8A07BA979C4363
:1021900015671307C7CE8A07BA9793F505709C4356
:1021A000D1B713F7F50F9307400263EDE70095678A
:1021B0009387C7CE0A073E971C4393F50570CD8FD2
:1021C0001CD5828093F6050C1306000CFD57E3998D
:1021D000C6FE9306900CE3E5E6FE93F7F50315675C
:1021E000130747CC8A07BA979C4315671307C7CED6
:1021F0008A07BA9793F505709C43D1B7EFF2CF8168
:102200009307803E1CC59567938787D81CC10CC96E
:1022100023220500A9452A84053FA545228551377B
:1022200058541C546314F700FD575CD4FD571CD858
:102230005CD86FF0AF80EFE23FFEB7450140938579
:102240000580138581965D3F6FE05FFFEFE2DFFC65
:102250001C452A8481CB0D46AA858297232404003D
:102260002326040022856FE07FFDB7370140938766
:1022700007C0630BF5023707004085476307E50297
:102280001307074089476302E502371700409306AA
:1022900007808D47630BD500130707C0914763067E
:1022A000E500C167FD1711A081473E858280EFE2FE
:1022B000BFF62A84084D553FAA8413058401EF1008
:1022C00040638A041385019B2695232A0400930406
:1022D0004408232005001304440363878400C114C9
:1022E0002685EFE01FFBD5BF6FE05FF5EFE2DFF281
:1022F00041112A84C1642E852EC6FD14BD37B24516
:102300006313950001A01C4C91C301A093172500F5
:102310001385019B3E95930744011CC19307000858
:102320005CD4930700041CD80CCC1305840140C86E
:10233000232E04002320040223120402EF10E05392
:1023400013054403213713054404093713054405D5
:10235000F53D13054406DD3D13054407C53D084C16
:102360002320040023220400232404002326040045
:1023700023280400232E040004D08545EF00506676
:10238000084C9305C401EF00105F41016FE01FEBA3
:10239000EFE29FE8232E050223260504232E0504E1
:1023A00023260506232E0506232C05008137B7E7D3
:1023B00000E01307002023A2E710056793060780BB
:1023C00023A2D71023A2E710096723A2E710116701
:1023D00023A2E7106FE09FE6EFE21FE4184519E340
:1023E000EF10903C5C4582976FE05FE511E101A042
:1023F000EFE29FE22A8408418545EF00106015C195
:102400001C40DE27858B91CF2285EF10C046084106
:102410005C5D81C713054503C13708408545EF0062
:10242000505F6FE0BFE103A5019B19C111057D3F1E
:102430007300203011E101A0EFE21FDE2A84084181
:102440005E25898B91EB5E25918B99E75E25A18BAB
:1024500081E75E25C18B95C78945EF00105A1C4066
:102460001DC189453E85EF00D05A85442285EF1075
:102470008040084192049384440326951C4591C3EF
:10248000A13F6FE0BFDB3E859145EF0010571C4038
:1024900019C591453E85EF00D0578944C1BF3E859F
:1024A000A145EF0090551C4019C5A1453E85EF00A0
:1024B00050568D4465BFC1453E85EF0010545DD533
:1024C0000840C1459144EF00D0544DB703A5019B8E
:1024D00019C11105853773002030411122C61384BC
:1024E000019B484011C51105113748401105993726
:1024F0003244410173002030411122C61384019BF4
:10250000084411C51105DD3508441105253732444D
:10251000410173002030411122C61384019B4844BD
:1025200011C51105E13548441105293732444101EF
:102530007300203095C1EFE23FCE41112A842E85F1
:102540002EC6EF1070631C40B2452A86DC432285FC
:10255000829741016FE09FCE01458280EFE2DFCBA1
:10256000D13F6FE0BFCDEFE23FCB1C4193F5F50FBC
:102570009C4382976FE09FCCEFE21FCAB7550000E3
:102580009385C5DA453F6FE07FCBEFE2FFC8AA84B1
:1025900055372A842685CD3722956FE03FCAEFE272
:1025A000BFC7AA84413F2A842685F93722956FE068
:1025B000FFC8EFE27FC6797123060102854763E316
:1025C000C700294678102548B3D6C502B307D602FE
:1025D000B387F54093F7F70F9398870193D8884115
:1025E0006341180393870703E207E1877D171CA364
:1025F00063F7C500BA853D3F45616FE03FC4B685CE
:10260000E1B793877703CDB7EFE21FC12A89AE8484
:1026100001EA1C4193F5F50F9C4382976FE01FC2BE
:102620002947631FE60063DF05009305D002253FBD
:102630002A842946B30590404A85A53F2295F9BFD3
:102640001376F60FBD37D9BFEFE21FBD753F6FE0C0
:10265000FFBEEFE27FBCAA84453F2A842685293F3E
:1026600022956FE0BFBDEFE23FBB01EA1C4193F54D
:10267000F50F9C4382976FE07FBC1376F60F153FF2
:10268000DDBFEFE27FB9C5376FE05FBBEFE2DFB8D8
:10269000AA84D13F2A842685C53522956FE01FBACA
:1026A000EFE29FB7AA84C1372A842685F1352295A7
:1026B0006FE0DFB8EFE25FB62A84EF10100B48C47A
:1026C0001C402285DC4B8297635A0500EF10F0090D
:1026D0005C441D8D1C44E365F5FE7D556FE01FB61F
:1026E000EFE29FB34111AA8401442EC632C4630DA8
:1026F000C4002685C13763490500B2452246B38729
:10270000850088A30504D5B7228541016FE01FB37A
:10271000EFE2FFAE014495C2B68432892E8AAA89BF
:1027200001444E85413F634A050063084501B307F4
:10273000890088A30504E39684FE22856FE07FAFBD
:10274000EFE29FAD6D246FE07FAF914763E3A70693
:10275000EFE29FAC9567938707DB0A053E951C4126
:10276000854582871145EF00901937150140130503
:10277000058001A82145EF00901837150140130589
:1027800005C06FE0BFAB4145EF0070173715014042
:10279000CDBF13050002EF00901637150140130559
:1027A0000540C5B713050004EF007015372501403B
:1027B0007DBF01458280EFE23FA695659385059434
:1027C000EF00D0783D819377F50145476373F700BB
:1027D00001A01565130545DC3E9508216FE01FA695
:1027E0008567138717006306E50089076305F50011
:1027F00001A04145828045458280EFE2FFA1B727D5
:102800000140938707406314F502854513050020B6
:10281000EF00F00E03A541819317350163C7070050
:10282000956593850594EF00B06B6FE03FA1B737D6
:10283000014093870780E31FF5FC854513050040A1
:10284000C1BFEFE27F9D8145112E6FE03F9FEFE218
:10285000BF9C7971AA841306000281450808EFE045
:102860003F8E939734012317010063D107088567D2
:10287000890763ED97062685A537372401402A8905
:1028800013040440228523AA9180853F3165EF001F
:10289000007A85472302F102B7070E003ECE0C08EE
:1028A000854722853ED402D002CA02C802CCA12CA0
:1028B000854522852320040055249375F90F228530
:1028C0009D460546C124854522854D24894522859E
:1028D000B5266DDD7C442285C207C1837C87953790
:1028E0002285D522288745616FE05F9595659385A0
:1028F00005942685EF00B0622A842685EFF0BFEBB1
:102900002A8949B7EFE2BF8F956941119385C9A91B
:102910002A8AEF00D060EFF05F95131925009384A9
:10292000019BCA9498401384019B15E39385C9A920
:102930005285EF00D05E2AC613054008EF10A06351
:10294000B245AA89EFF0DFA49C4023A03701B3076A
:1029500024019C43804309C82285EFF05F959305CD
:1029600040082285EF10606341016FE09F8C03A552
:10297000818583A5C18582808280EFE2FF89C53F82
:102980006FE0DF8B9387818503A8070083A847004A
:10299000130718003335070198C3B3061501D4C3D4
:1029A000E13FB7F700E023A2070073002030B7F73C
:1029B00000E023A2070023A00700814694C7014737
:1029C000D8C703A701829306803E3357D7028146BA
:1029D0001306F7FF90CBD4CB3D4798C3B7E700E091
:1029E0007D572386E740056723A0E7108280EFE24A
:1029F000BF82753F6FE09F84814705476307E5000D
:102A00008507058193F7F70FD5BF370700208E079D
:102A10001307C703BA97DC4391C7EFE2EFFF829732
:102A20006FE0DF81828005459D240545F137730005
:102A300020300945A92C0945C137730020301145C4
:102A4000B9241145553F7300203021458924214583
:102A5000EFF09FFA730020304145152C4145EFF00F
:102A6000BFF973002030411122C626C413040002AE
:102A700095442285F52A01C92285112C13150401DC
:102A80004181EFF07FF7FD140604E5F43244A244DF
:102A9000410173002030411122C626C413040040B6
:102AA00099442285F12201C92285D52213150401FA
:102AB0004181EFF07FF4FD140604E5F43244A244B2
:102AC000410173002030EFE22FF5B72701409387D3
:102AD0000740631CF500854513050020B92D81458D
:102AE00013050020992D6FE06FF5B73701409387EC
:102AF0000780E31AF5FE8545130500403D2D81450D
:102B000013050040C5B75C413707F1E01307F7EF45
:102B1000944D7D8F9C41D58FD44DD58FD441A20645
:102B2000D58FD98F5CC11C4537F7F1FF1307D77FCD
:102B3000D4457D8F9C49D58F94458606D58FD98FF6
:102B40001CC55C55370710FF7D177D8FDC29FD17ED
:102B500093F7F70FD207D98F5CD582801C4589C5C2
:102B600093E717001CC58280F99BEDBF1C4591C5FA
:102B700037075000D98F1CC582803707B0FF7D17FB
:102B8000F98FD5BFA54763F7B7048D47138765FF56
:102B90003307F7020328C5009D47B397E70093C7A3
:102BA000F7FFB3F70701B396E600DD8E54C59947EA
:102BB00063E3C70495477D163306F6025859FD476F
:102BC000B397C70093C7F7FFF98F3396C5005D8EA3
:102BD00050D982800D473387E502032805019D47C0
:102BE000B397E70093C7F7FFB3F70701B396E60083
:102BF000DD8E14C96DBFB14763E2C7029547651604
:102C00003306F6021859FD47B397C70093C7F7FF7D
:102C1000F98F3396C5005D8E10D9828095474D1689
:102C20003306F6025855FD47B397C70093C7F7FF21
:102C3000F98FB395C500DD8D4CD5828008416D8D2F
:102C40003335A0008280138781811C43938681A73E
:102C50003E95636BD500B75600209386068063E5EA
:102C6000A60008C33E858280FD57EDBF828082802A
:102C7000B70701401387074083A70740584B698F68
:102C800009C77D8D3335A000828001458280B7075A
:102C9000014023AAA74082809C4513F7070113F83F
:102CA000F70001C7D8413368E80037270240145BBA
:102CB0003707000F758F4DEB85462380D186371778
:102CC00001406315E5009A2135839AA18E2113F7FF
:102CD000F50F39C318418146854E3D4F930F800251
:102CE00093028004214E3396DE00B3F8C5006311D1
:102CF00016039398260033131F011343F3FF337712
:102D0000E300B318180133E7E8006397F70750C9E9
:102D10008506E39AC6FD18C11307F00F6375B70463
:102D200054412146854E3D4F930F8002930280040B
:102D3000414EB398CE0033F715016392E8021317A2
:102D4000260001173313EF001343F3FFB376D300CC
:102D50003317E800D98E6395F703232A150105067A
:102D6000E319C6FD54C1828037170140E310E5F630
:102D700003C7018621DF81BFE39C57F810C949BF13
:102D8000E39F57FC23281501D9BFB71701406316ED
:102D9000F50083C7018691C3B58108456D8D333534
:102DA000A0008280B71701406316F50083C7018633
:102DB00091C3B5810CC98280B71701406316F50035
:102DC00083C7018691C3B5814CC98280B707014092
:102DD00063570504DC4F135705019376F70013166C
:102DE00005013707300041823378E500635A050654
:102DF0006317E804138706018D46B396E60093C671
:102E0000F6FFF58F89C91357550112073317E600EE
:102E1000D98F63550506370701405CCF828037277D
:102E20000240145BDC433707000F758F4DF713D753
:102E30001700F976CE07758FCD83D98F69BF131729
:102E4000B500635607000D47B316D7004DBF1357A3
:102E5000550112073317E6001347F7FFF98F5DB7E7
:102E60006312E8023708014083264800370700F163
:102E70007D17F98F758F2322E800D1F537070140C0
:102E80005CC382801317B500635C07000D473317DE
:102E9000D7001347F7FF7D8FB707000FD98FF1BF1A
:102EA0001357550112073317E600E5B7EFE2CFB627
:102EB00079712A84462168082EC6592292573747CD
:102EC0000F001307072433D7E702C204C18093F42D
:102ED00004FCC204C180B24561651305056A13167E
:102EE00007014182D18C46A01620C206C182F99A00
:102EF000C206C18216A094416369D5048606B3D781
:102F0000D7029146139707014183BA876373D700AD
:102F1000914705064206C2074182C18312B05EACEA
:102F20001E20DA21B62593E717001EA01E20558F1C
:102F3000C207C18393F757BFD98F1EA09A25DE25FC
:102F4000D98F1EA445616FE06FAFEA2131667D160F
:102F5000631DC5020D46B386C602B3D7D702C207AA
:102F6000C1839396470199E293E71700A166D58F35
:102F70009306C0123307D7029306803E3347D70229
:102F80000507420741831AB059BF6546B386C6029A
:102F9000B3D7D7029166C207C183D58FD9B71E2197
:102FA00089C593E717001EA18280C207C183F99BE0
:102FB000C207C183CDBF0EA982800A291375F50F00
:102FC00082805E290A2D42055D8D6D8D220521814D
:102FD0000D8D1335150082805E290A2D42055D8D09
:102FE000220521818280411102C402C693D7C50106
:102FF0002AC63EC4A247A205A18199CBB247D107F8
:103000003EC6B247884341016D8D3335A0008280B2
:10301000B247C181E107EDB793C5F5FFC205C18194
:103020004EA982807300203001A001A001A0B71634
:103030000240DC4251777D17F98F5D8DC8C28280D6
:10304000371702405C439146B18B6385D700A14698
:103050006382D706B7177A00938707201CC13716FB
:1030600002405C42370700201307C70B9183BD8BDA
:10307000BA9794231C41B3D7D7005CC15442A182B4
:103080009D8ABA969422B3D6D70014C55442AD8215
:103090009D8A36971823B3D7E7005CC55842398319
:1030A000937637001387C18136971823B3D7E70289
:1030B0001CC982805C435843C166C983BD8B758F30
:1030C0008907C5466393D700C94701EF37470240D8
:1030D00003270780418B09CF37177A001307072092
:1030E00021A83717024058439316E700E3D606FE9F
:1030F00037173D0013070790B387E70285B799C5D7
:10310000371702401C4F5D8D08CF8280B7170240F1
:10311000984F1345F5FF798D88CF828099C5371771
:1031200002405C4F5D8D48CF8280B7170240D84F78
:103130001345F5FF798DC8CF828099C537170240B6
:103140005C475D8D48C78280B7170240D84713455A
:10315000F5FF798DC8C7828099C5371702401C4B8F
:103160005D8D08CB8280B7170240984B1345F5FF61
:10317000798D88CB82801E2137370140130707C025
:10318000C207C1836304E502370700406300E5021C
:1031900013070740630CE5003717004093060780CC
:1031A0006306D500130707C06316E500BA2193F73D
:1031B000F7F8D98FFA2193F7F7CFC207C183D98FD8
:1031C0001EA1DE215EB59E211EB5B7370140938753
:1031D00007C06314F5009C251EB985475EA982804F
:1031E0001E2189C593E707081EA18280C207C183FB
:1031F00093F7F7F7C207C183C5BF1E294A25ED8F94
:103200004205418189C76D8D3335A000828001451B
:10321000828093C5F5FFC205C1810EA98280EFD2DD
:10322000BFFF1629F577FD17F58FF621DA2579719D
:10323000D58F1EA95625FD779387379FF58FD62109
:103240002A842EC6D58F9625D58FB625D58F5EA517
:103250005E29C207C18393F7F7CFD98F5EA96808AB
:10326000EFF01FDEB747014093870780B245631A2E
:10327000F404A25756246547B387E702C206C18605
:10328000984163D20604060752244206B3D7E702E8
:10329000130740064186B3D6E702B3F7E70292066A
:1032A000635506028E0793872703B3D7E70213F708
:1032B0007700B367D700C207C1831EA445616FD0F2
:1032C000FFF7925745BF0A07C1B7920793872703B5
:1032D000B3D7E702BD8BD58FF9BF91C55E250967CE
:1032E000D98F5EA582805A25F977FD17F98FD5BF52
:1032F00093F5F51F4EA182804A211375F51F828038
:103300005E2989C593E787005EA98280C207C183D1
:10331000DD9BC207C183CDBF0A216D8D3335A0006F
:103320008280B71702409843B706FFF8136717006B
:1033300098C3D843758FD8C39843B706F7FEFD16D8
:10334000758F98C39843B706FCFFFD16758F98C319
:10335000D843B70681FFFD16758FD8C337079F0086
:1033600098C7B746024003A706801367070123A04A
:10337000E680D843B706C1FFFD16D8C3D843D8C3EB
:10338000D84313670740D8C3D843758FD8C3D843F1
:10339000B7063C00558FD8C39843B7060001558F38
:1033A00098C3984393166700E3DD06FED843B7162B
:1033B0000240719BD8C3D84313672700D8C3214765
:1033C000DC42B18BE39EE7FE8280FD577D57631799
:1033D000F500014582806387A700B1059C41E39C0D
:1033E000E7FEC5BF05458280EFD27FE1411102C2F1
:1033F00002C402C6FD576313F50001A09377F500E0
:10340000139727009567938787F1118113D485401F
:10341000BA973D89AE8403A907001374F407EFF04F
:10342000CFB2AA890DC485450545EFF05FCD7D1467
:103430009307F00463ED87009567938787DD0A049F
:103440003E941C40828785450545EFF03F9893D711
:10345000244013F734008D8B630707243AC40947CF
:10346000638FE7220D47638EE72205476387E722D4
:10347000C1473EC6A1A48145C1BF85450945F1B7F5
:103480008145EDBF85451145C9B78145EDBF8545EE
:10349000214565BF8145EDBF8545370514001305FE
:1034A000050365B7854537051400410579BF81459A
:1034B000EDB78545370516001305050C79B7854529
:1034C000370516001305050449B78145E5B785455D
:1034D00037051800130505308DBF854537051800E1
:1034E000130505209DB78545370518001305051000
:1034F000A9BF8145F1BF854537151A00130505C0E1
:10350000A9B737151A008545130505803DBF8145CC
:10351000E5B78545056515BF8145EDBF854537454F
:103520001D0025B7854537651D0005B78145E5BFF9
:103530008545216519BF8145EDBF854537052000CB
:10354000050521B78145DDBF8545370520001305F9
:103550000502E5BD8145D5BF8545370520009DB7EE
:103560008145E5BF85453705200013050508F1BDF8
:103570008145D5BF8545370520000905F9B5814549
:10358000DDBF8545370520001105C1B58145DDBF8B
:1035900085453705200021054DBD8145DDBF8545A9
:1035A0003705200019B78145E5BF8545370530004F
:1035B00035BF85453705300025B7854537053000CF
:1035C0001305054059B5854537152000BDBD81451A
:1035D000E5BF8145372520008DBD8545E5BF854583
:1035E000374520009DB58145E5BF854537050080FD
:1035F00061BF8145E5BF8545370513807DB58145B0
:103600003705138049BF8145C5BF854537051580FE
:1036100055BD8545370515801DBF8145C5BF85450D
:103620003705008071BF8145E5BF8545370530808E
:10363000A9B785453705308021B78145C5BF854588
:103640003705328089BF85453705328035BF8145D2
:10365000C5BF854537053480DDBD854537053480D8
:10366000A9B58145C5BF854537053680FDBD854572
:103670003705368081BD8145C5BF85453705388012
:1036800085B585453705388095B58145C5BF8545E4
:103690003705208035B78145E5BFD147D9BBE14724
:1036A000C9BBF147F9B305476383E70299C7894668
:1036B0006381D702930780026DBB02C64C004E8522
:1036C00023122101EFF04FDD41016FD09FB69147EA
:1036D0004DB391848D8893078004E39DE4FC51BB36
:1036E000FD577D57631DF50082806399A700EFD2D7
:1036F000BFB28C45EFF05FCF6FD05FB4B1059C4196
:10370000E395E7FE01A07D579C416394E7000145E6
:1037100082806394A700C8418280B105F5B7FD5748
:103720006308F500EFD25FAFEFF0FFFD6FD01FB180
:10373000014582807D579C416394E7007D558280DE
:103740006394A70088458280B105F5B7FD576308EB
:10375000F500EFD27FACEFF0FFFD6FD03FAE7D55AF
:1037600082806305B50019C181E5AA852E85828016
:103770008145EDBF01A001A001A001A001A001A011
:1037800001A001A001A001A001A001A001A001A031
:1037900001A001A001A001A001A001A001A001A021
:1037A00001A001A001A001A001A001A001A001A011
:1037B00001A001A001A001A001A001A001A001A001
:1037C00001A001A001A001A001A001A001A001A0F1
:1037D00001A001A001A001A001A001A001A001A0E1
:1037E00097D1FF1F938101181721002013018181B8
:1037F000172500001305458F97D5FF1F93858580FA
:103800001386018463FAC5008322050023A05500B6
:1038100011059105E3EAC5FE13850184938581A70F
:103820006377B500232005001105E36DB5FEFD4269
:10383000739002BC8D42739042809302800873A003
:10384000023097D2FFFF9382627F93E2320073903F
:1038500052301705000013056577EF004076EF0042
:10386000407AEFF01FAC970200009382624673909B
:1038700012347300203071158280EFD2FF99184105
:10388000B7370140938707C02A846318F70005659E
:10389000854513050580EFF09F861840B707004067
:1038A0006316F70085450545EFF05F871840B707B9
:1038B0000040938707406316F70085450945EFF000
:1038C000FF851840B7170040938707806316F700FD
:1038D00085451145EFF09F841840B7170040938746
:1038E00007C06316F70085452145EFF03F836FD091
:1038F000FF94EFD27F921841B7370140938707C0FA
:103900002A846318F7000565814513050580EFF0EB
:103910000FFF1840B70700406316F70081450545C3
:10392000EFF0CFFF1840B7070040938707406316BA
:10393000F70081450945EFF06FFE1840B7170040CA
:10394000938707806316F70081451145EFF00FFD5F
:103950001840B7170040938707C06316F7008145EA
:103960002145EFF0AFFB6FD07F8DEFD2FF872A8428
:10397000084D956A4111AE8D93854AC6328D368CBD
:10398000BA8CEFF0DFD92AC6484C156A93054AC0B5
:10399000EFF0FFD8AA8408509569938589BCEFF0B1
:1039A0001FD8AA8B485015699305C9B8EFF03FD7C7
:1039B000B2476385070E544C7D572A8B6384E6001B
:1039C000638E040C14507D576384E60063880B0CEF
:1039D00054507D576384E60063020B0C3E85A68538
:1039E000EFF03FD8DE8508C0EFF0BFD708C0DA851A
:1039F000EFF03FD708C05DC1B7470140938707800C
:103A00006311F50A85451165EFF06FEF93075003D9
:103A1000230604021CD4084C93854AC6EFF05FCC01
:103A200091C4484C93054AC0EFF09FCB014A63898B
:103A30000B000850938589BC130A0010EFF05FCA91
:103A400063090B0048509305C9B8136A0A20EFF0C8
:103A50003FC98347C40208402324B40113972700B9
:103A60009387419CBA971307440098C3B14748C055
:103A70002316A40123179401231884013EA8231AB6
:103A8000440181E48545EFF0BF87484093058400F9
:103A9000EFF0EFF848408545EFF03F8441016FD0EB
:103AA0006FF8B747004093870740631DF5008545D1
:103AB00037050200EFF08FE685472306F4029307EF
:103AC000600389BFB757004013870780631DE50077
:103AD000854537050400EFF06FE489472306F402BB
:103AE0009307700305BF938707C0E316F5F285457A
:103AF00037050800EFF08FE28D472306F4029307A5
:103B0000D00309BF19C5EFD22FF1EFF01FE66FD038
:103B1000EFF28280EFD24FF0956703A407D195654D
:103B2000938545C62285EFF09FBF05C1370500206C
:103B3000F1659307C50C0147814601469385052031
:103B40001305C50C80CFEFF05FE26FD02FEFEFD2FF
:103B5000AFEC8347C50293050002139727009387B4
:103B6000419CBA979C438843EFF00FFB1335150037
:103B70006FD0CFECEFD24FEA8347C5029305000424
:103B8000139727009387419CBA979C438843EFF093
:103B9000AFF8133515006FD06FEAEFD26FE5370439
:103BA0000020AA84AE89EFE09FDC9307C40C03C712
:103BB000C7028D472A8A1304C40C63E9E70403474C
:103BC000C4029387419C0A07BA9703A90700938A06
:103BD000419C711963060904130B703E4A85EFF08E
:103BE0007FF959ED338A3401638D44034A85EFF040
:103BF0007FF86DFD8347C402850483C5F4FF8A07FF
:103C0000D6979C438843EFF0AFEEF9BF956703ABBF
:103C100007D11569930549C65A85EFF05FB009E5EC
:103C200081494E856FD04FE0230604028D4B938A65
:103C3000419C8347C40263FAFB00EFF0BFED0347EA
:103C4000C4028D47E3FDE7F6E1BF8A07D6979C43A0
:103C500099E78347C40285072306F402D9BF930579
:103C600049C65A85EFF0BFAB0347C402931727003C
:103C7000D6979C439C43E39EA7FCE3F2EBF475BF0D
:103C8000EFE0FFCEB30745413335F500E39AA5F8E1
:103C9000E376FBF471B711E57D5582807D556FD0D9
:103CA000EFD9EFD26FD72A84AE84EFF05FEA7DF5CB
:103CB0008347C402139727009387419CBA979C437C
:103CC0008843EFF06FE388A00145D1BFEFD2CFD496
:103CD000EFE01FA7EFD05F84EFD07F90F5BF935741
:103CE0004500BD8B11476367F70215671307C7CE01
:103CF00081471376F50F930650020C436397C50076
:103D000013750570C98F3E85828085071107E3967C
:103D1000D7FED5BF93075002FDB71377F50FA54720
:103D2000AA8663EAE7029567938747CC13162700B4
:103D30003E9610429377057093054002D18F13F69B
:103D4000F70F63F6C50493F5070C1305000C6382A7
:103D5000A50A7D5582801378050C9307000C7D55CC
:103D60006318F8089305900C63E4E50813F6F6036E
:103D70009567938747CC0A063E96104293F70670E4
:103D800093084002D18F13F6F70F63EBC8049567D1
:103D90009387C7CE0A063E96A547104263E9E7001F
:103DA00095670A07938747CC3E971C432DA093F74E
:103DB000060C9305000C130500706391B70293077E
:103DC000900C63EDE70093F7F60315678A07130776
:103DD00047CCBA979C43DD8E13F50670518D09A828
:103DE00093F8070C6396080193F7F70363F9C5008E
:103DF00082809305900C93F7F703E3ECC5F4956587
:103E00008A07938545CCAE979C4315661306C6CEAC
:103E10008A07B2979043A54763E5E7000A072E9704
:103E200069B793F7060C1308000C13050070E397AD
:103E300007FB9307900CE3E3E7FA13F7F603F9BFE8
:103E40006387C502637DB600918D8547B397B70040
:103E5000636EF50005053355B5007D15828001C9F7
:103E60000505B305B6403315B500C5BF01458280D1
:103E7000EFD28FBAEFF07FEAFD57630EF50013849F
:103E800041820C40EFE0BF9C03A681820C40EFF022
:103E90003FFB6FD0AFBA0145EDBFEFD24FB693777E
:103EA000F50F13074002636DF70615678A071307BE
:103EB000C7CEBA97804313750570FD57498C6308C8
:103EC000F4089357240093F9C7039387419DCE9735
:103ED0009C43137AF400AE84B3D74701858B1389D2
:103EE000419D8DC795659385C5A92285EFF0EFCDDE
:103EF00001C52285EFE01FA1B307390194430547AF
:103F0000331747011347F7FF758F98C3954763ED44
:103F1000970495658A04938585F5AE949C408287C5
:103F20001377050C9306000C6313D7021307900C4C
:103F3000636FF7009377F50315678A07130747CC7C
:103F4000BA979C439DB791452285EFF0EFC96FD09A
:103F50004FAE8D45D5BFE145C5BF93058002EDB796
:103F60008145DDB79D45CDB701A0EFD2EFAAEFE0C7
:103F7000DFA06FD0AFAC411122C406C62A8411E184
:103F800005442285F52011E5112811E1152002953F
:103F9000CDBFB24022444101828011A8938741865F
:103FA00088430F00F00F8280411106C61120F1A056
:103FB0004111194506C669260545EF00F007AA8597
:103FC000814601460145D1A641119717000093870C
:103FD000671122C417140000130404111D8C26C29B
:103FE00006C60984BE8419E42244B24092444101C9
:103FF0006FE0DFC77D1493172400A6979C43829738
:10400000DDB74111971700009387C70C22C417141E
:1040100000001304240C1D8C26C24AC006C6098465
:1040200081443E8963988402EFE07FC497170000C3
:104030009387470A171400001304C40A1D8C0984CF
:1040400081443E89639F8400B240224492440249E5
:104050004101828093972400CA979C4385048297EC
:10406000D1B793972400CA979C4385048297D9BF00
:104070009387C182AA8588438DA29387C182AA852E
:10408000884355A8B3C7A5008D8B3307C50081E7CA
:104090008D4763EDC700AA87637EE50894218507F5
:1040A0008505A38FD7FEE3EBE7FE8280937635008C
:1040B000AA8789CA942185078505A38FD7FE93F621
:1040C0003700C5BF9376C7FF138606FE63F0C706A9
:1040D00083A3050083A2450083AF850003AFC5001D
:1040E00083AE050103AE450103A3850183A8C50185
:1040F0009385450223A0770003A8C5FF23A257009C
:1041000023A4F70123A6E70123A8D70123AAC70107
:1041100023AC670023AE17019387470223AE07FF46
:1041200075B790419107910523AEC7FEE3EBD7FE2B
:10413000E3E6E7F68280CDC183A7C5FF411122C423
:1041400006C626C21384C5FF63D307003E94AA8423
:10415000F924938781869C4399EB2322040023A4AE
:1041600081862244B24026859244410155AC637E4B
:10417000F40014403307D4006396E7009843DC430F
:10418000369718C05CC0E1BFBA87D84319C3E37D36
:10419000E4FE94433386D700631F86001040B29636
:1041A00094C33386D700E31EC7FA10435843B29630
:1041B00094C3D8C37DB76375C400B1479CC055B7DD
:1041C0001040B306C4006316D70014435843B29698
:1041D00014C058C0C0C371B78280011126CA93842D
:1041E0003500F19806CE22CC4AC84EC6A104B1478C
:1041F00063F1F404B14463E0B4042A890D24938785
:10420000818698433A8431E09387C1869C4391E745
:1042100081454A85452023A6A186A6854A85592839
:10422000FD5963173507B1472320F9004A85CD2A88
:1042300029A0E3D204FCB1471CC10145F24062440D
:10424000D2444249B249056182801C40858F63CEC9
:104250000702AD4663F6F6001CC03E9404C031A0D0
:104260005C406312870223A4F1864A85552A130510
:10427000B4009307440061993307F54061D33A9441
:10428000898F1CC065BF5CC3CDB722874040A5BFE6
:10429000130435007198E30385FCB305A4404A85F7
:1042A0001128E31D35FB41B79387C1822E86AA856D
:1042B000884385AA411122C42A842E8523AA01A6F7
:1042C00006C6EFE05F98FD576317F500938741A797
:1042D0009C4391C31CC0B240224441018280FD47EF
:1042E00063F6B700D9471CC17D5582807C4101111E
:1042F00022CC06CE2E862A8491C713972500BA9722
:10430000984319EB228532C6BD20AA8522856244D6
:104310003246F24005611DA8854601456308D70075
:10432000FD566319D700D9471CC00545F2406244C9
:10433000056182802E8523A0070002970145FDB705
:104340009387C182AA8588436FF07FF9411122C407
:104350002A842E85B28523AA01A606C6C129FD5747
:104360006317F500938741A79C4391C31CC0B240DB
:104370002244410182806DA1AA87850703C7F7FF08
:104380006DFF3385A7407D158280938701879C430D
:104390002A8E99EF1387819E23A8E18617C5FFFF18
:1043A000130545C6BA8709C51C4123A8F1A6BA87DB
:1043B000D8437D487D556347E804630E0E0203A889
:1043C00087086301080493182700C29823A0C80037
:1043D0000323081005463316E6003363C300232089
:1043E000681023A0D80889466317DE00832648108A
:1043F000558E2322C810930617000A07D4C3BA9714
:104400008CC70145828097C7FFFF9387A7BF99C7D5
:1044100017050000130585BB6FF07FBA828082808C
:10442000828081E5B2856FF05FDB011122CC06CE80
:1044300026CA4AC84EC6328401EEEFF0DFCF0149EA
:10444000F24062444A85D2444249B24905618280C1
:10445000AE84AA891D202689E37485FEA2854E8537
:10446000EFF0BFD72A8969DDA6852286EFF09FC1CC
:10447000A6854E85EFF03FCCE1B783A7C5FF138536
:10448000C7FF63D50700AA959C413E958280B687F9
:10449000B2882A832E88639B061463F8C50A416795
:1044A000636BE61AB70700016360F6349356860122
:1044B000E147171700001307E7B136971823BA979B
:1044C000130700021D8F19CB3398E500B357F50091
:1044D000B318E60033E807013313E50013D60801EB
:1044E0003355C80293960801C1829357030133776D
:1044F000C802B385A60242073368F700637AB800A2
:1045000046989307F5FF636418016365B8303E85EC
:104510003308B8403357C8024203135303013378BA
:10452000C802B386E602420833686800637BD8009D
:1045300046989307F7FF6365180179176363D800FE
:104540003E874205598D8145828001E60547B35873
:10455000C702416763E8E80EB707000163EAF8287D
:1045600093D68801E147171700001307A7A63697CF
:104570001423BE9693070002958FFDE7939E0801D2
:104580003387154113DF080193DE0E0185459357EC
:1045900003013355E7033377E703B306D503420737
:1045A000D98F63FAD700C6971307F5FF63E41701A5
:1045B00063E5D7263A85958F33D7E7034203135334
:1045C0000301B3F7E703B30ED703C207B3E76700EE
:1045D00063FBD701C6979306F7FF63E517017917C9
:1045E00063E3D70136874205598D828063E1D504A4
:1045F000C16763E1F604B707000163E3F61E13D752
:1046000086016148971700009387C79CBA97982343
:10461000130E00024297330EEE40631A0E0C63ED48
:10462000B61C3335C5001345150081458280814590
:10463000014582809307F00F63F3D71C13D78600E0
:104640002148C9B71307F00FC686E37E17F193D64A
:104650008800A14709BF1307F00FB286E37BC7E4C8
:1046600093568600A147B1B5B398F80033D6D5006C
:1046700013DF0801335EE6033397F500B356D50028
:10468000558F939E080193DE0E013313F500935569
:104690000701B376E603B387CE03C206CD8E63FB74
:1046A000F600C6961306FEFF63E4161763F2F616CD
:1046B000791EC6969D8E33D6E60393170701C183F4
:1046C000B3F6E6033385CE02139706015D8F637B55
:1046D000A70046979307F6FF636817136376A71240
:1046E0007916469793150E01098FD18D4DB5B357A5
:1046F000E600B396C601DD8E33D3E50013DF060175
:10470000B357E303939E060193DE0E013398C50170
:104710003357E50033680701935808013316C60183
:104720003373E303B385FE024203B368130163FBF3
:10473000B800B6981387F7FF63EAD80C63F8B80C93
:10474000F917B698B388B84033D7E803420813582E
:104750000801B3F8E8033383EE02C208B3E50801A9
:1047600063FB6500B6951308F7FF63EDD50863FB9F
:1047700065087917B695C207416FD98F1307FFFFF8
:10478000B3F6E70093D80701718F4182B38EE6023A
:10479000B3856540B386C60213D80E013387E8029D
:1047A000BA96C2963386C80263F3E6007A9693D827
:1047B0000601469663E2C5026385C5003E858145D4
:1047C000828041677D17F98EC206B3FEEE00331575
:1047D000C501F696E374D5FE1385F7FF8145828007
:1047E00013D70601414839BD93560601C147D1B1DF
:1047F00093D60801C14785BB814505458280368730
:10480000014809B5428785BF3E86E9BDBA871DBF0D
:10481000328E4DB579154698E5B97915C69761BBC5
:104820009307800523AAF1A67D5582809307800512
:1048300023AAF1A67D55828001A00000B2170000D6
:10484000361700004C1700002A17000094170000CC
:104850009C170000A4170000B2170000B217000058
:10486000B2170000B2170000AC170000B21700002A
:1048700058170000726563656976656420493243A4
:10488000206D73670000000072656365697665647A
:1048900020636F6D6D616E643A200000696E76650D
:1048A00072746564203A000064656C61793D0000B3
:1048B000706F736974696F6E3A000000737461728F
:1048C000742063616C6C6962726174696E67000068
:1048D00043616C6962726174696F6E3A0000000036
:1048E000530000003A206D696E3D0000206D617834
:1048F0003D000000204176673D0000004932432022
:10490000736C6176652040616464726573732030F6
:10491000783333000000000000000000121800008F
:1049200080180000B8170000B4190000BC17000080
:10493000C6170000E0170000E02600001027000066
:104940000000000000240140000000000001000001
:104950000028014000000000010000000024014088
:1049600000800000010100000028014000800000DC
:1049700002000000002401400000010002010000CC
:104980000028014000000100030000000024014055
:1049900000800100030100000028014000800100A8
:1049A0000400000000240140000002000401000097
:1049B0000028014000000200050000000024014022
:1049C0000080020005010000002801400080020074
:1049D0000600000000240140000003000601000062
:1049E00000280140000003000700000000240140EF
:1049F0000080030007010000002801400080030040
:104A0000100000000024014000000400100100001C
:104A100000280140000004001100000000240140B3
:104A20000080040011010000002801400080040003
:104A3000FFFFFFFF00000000000000001600000064
:104A4000005400400F000000180000000054004017
:104A50000F0300001A000000005800400F00000083
:104A6000FFFFFFFF00000000000000001700000033
:104A7000005400400F0000001900000000540040E6
:104A80000F0300001B000000005800400F00000052
:104A9000FFFFFFFF0000000000000000000000001A
:104AA000000000400B9200000100000000000040E8
:104AB0000B12010002000000000000400B920100F8
:104AC00003000000000000400B120200060000007E
:104AD000000400400B9500000700000000040040A7
:104AE0000B15010010000000000400400B950100B0
:104AF00011000000000400400B1502001600000029
:104B0000000800400B97000017000000000800405C
:104B10000B17010018000000000800400B9701006F
:104B200019000000000800400B17020008000000F8
:104B3000002C01400B8E000009000000002C0140F9
:104B40000B0E01000A000000002C01400B8E01003A
:104B50000B000000002C01400B0E02001D000000A5
:104B6000002C01400B8E00001E000000002C0140B4
:104B70000B0E01000F000000002C01400B8E010005
:104B8000FFFFFFFF00000000000000000B0000001E
:104B90000038014018000000000000000044004000
:104BA000180000001D000000004800401800000030
:104BB00013000000004C004018000000FFFFFFFF42
:104BC00000000000000000000C0000000038014060
:104BD0000B00000001000000004400400B0000003A
:104BE0001E000000004800400B0000001400000000
:104BF000004C00400B000000FFFFFFFF0000000022
:104C0000000000000A000000003801401800000009
:104C100017000000003801401805000003000000E4
:104C200000440040180000001B0000000048004045
:104C3000180000002B000000004800401809000088
:104C400011000000004C004018000000150000009A
:104C5000004C004018400000FFFFFFFF0000000074
:104C60000000000009000000003801400B000000B7
:104C700016000000003801400B0500000200000093
:104C8000004400400B0000001A00000000480040F3
:104C90000B0000002A000000004800400B09000043
:104CA00010000000004C00400B0000000500000058
:104CB000004C00400B400000FFFFFFFF0000000021
:104CC00000000000000000000100000002000000E1
:104CD00003000000040000000500000006000000C2
:104CE000070000001000000011000000000000009C
:104CF00001000000020000000300000004000000AA
:104D00000500000006000000070000000800000089
:104D1000090000000A0000000B0000000C00000069
:104D20000D0000000E0000000F0000001000000049
:104D30001100000012000000130000001400000029
:104D40001500000016000000170000001800000009
:104D5000190000001A0000001B0000001C000000E9
:104D60001D0000001E0000001F0000002D000000BC
:104D70002E0000002F000000300000003100000075
:104D8000000000000000000098200000D02000007B
:104D9000B81700009220000094200000B22000000C
:104DA00094200000E0260000102700000D0A0000FB
:104DB0006427000074270000862700009227000067
:104DC000A4270000000102030405060708090A0BD6
:104DD0000C0D0E0F10110000463400007634000058
:104DE0007A34000080340000843400008A340000EB
:104DF0008E3400009434000098340000A434000085
:104E0000AE340000B2340000BE340000CA340000EA
:104E1000CE340000DA340000E6340000F234000042
:104E2000F6340000023500000E3500001235000097
:104E3000183500001C350000243500002C3500001A
:104E400030350000363500003A35000044350000AA
:104E5000483500005435000058350000603500002A
:104E60006435000070350000743500007E350000A8
:104E7000823500008C350000903500009A35000026
:104E80009E350000A6350000AA350000B2350000AE
:104E9000BA350000C6350000CE350000D23500001E
:104EA000DA350000DE350000E6350000EA350000A6
:104EB000F2350000F6350000FE3500000636000031
:104EC0000A360000123600001A3600001E360000B6
:104ED000263600002A360000323600003A3600003E
:104EE0003E360000463600004E36000052360000C6
:104EF0005A36000062360000663600006E3600004A
:104F0000763600007A360000823600008A360000CD
:104F10008E360000963600000100000002000000FE
:104F20000400000008000000100000002000000045
:104F300040000000800000000001000000020000AE
:104F40000004000000080000001000000020000025
:104F50000040000000800000463F0000523F00007B
:104F6000563F00005A3F0000603F0000643F0000D1
:104F70000000000000000000000000000000000031
:104F80000000000000000000000000000000000021
:104F90000000000000000000000000000000000011
:104FA0000000000000000000000000000000000001
:104FB00000000000000000000000000000000000F1
:104FC00000000000000000000000000000000000E1
:104FD00000010202030303030404040404040404A0
:104FE0000505050505050505050505050505050571
:104FF0000606060606060606060606060606060651
:105000000606060606060606060606060606060640
:105010000707070707070707070707070707070720
:105020000707070707070707070707070707070710
:105030000707070707070707070707070707070700
:1050400007070707070707070707070707070707F0
:1050500008080808080808080808080808080808D0
:1050600008080808080808080808080808080808C0
:1050700008080808080808080808080808080808B0
:1050800008080808080808080808080808080808A0
:105090000808080808080808080808080808080890
:1050A0000808080808080808080808080808080880
:1050B0000808080808080808080808080808080870
:1050C0000808080808080808080808080808080860
:1050D00006440000E01500003E1D000036220000DE
:0450E0004C1D000063
:1050E400C0000000C1000000C2000000C3000000B6
:1050F400C4000000C5000000C6000000C700000096
:10510400C8000000C900000000080140000C014074
:105114000010014000140140001801401600000076
:10512400000000001700000000000000180000004C
:105134000000000019000000000000001A00000038
:10514400000000002700000000000000270000000D
:1051540000000000270000000000000027000000FD
:1051640000000000270000000000000038000000DC
:1051740000000000380000000000000038000000BB
:1051840000000000380000000000000038000000AB
:1051940000000000380000000000000000000000D3
:1051A40001020304010203040607080900000000C9
:1051B40000000000000000000000000000000000EB
:1051C40000000000FFFFFFFFFFFFFFFFFFFFFFFFE7
:1051D400FFFFFFFF000000000400000000000000CB
:1051E400904F0000B04F0000704F0000000000001E
:1051F40000000000000000000000000000000000AB
:10520400000000000000000000000000000000009A
:10521400000000000000000000000000000000008A
:10522400000000000000000000000000000000007A
:10523400000000000000000000000000000000006A
:105244000100000001000000010000000100000056
:1052540001000000FFFFFFFFD8030020020406083E
:10526400004495080C0000000C000000FC00002025
:1052740006070809001000200030000000000000AC
:0400000300001000E9
:00000001FF
