:101000006F20E076130000001300000013000000C2
:101010001300000013000000130000001300000084
:101020001300000013000000130000001300000074
:08103000130000007300100022
:101038000010000000000000B22F0000B62F0000D2
:1010480000000000BA2F00000000000000000000AF
:10105800B82F00000A370000000000000000000060
:1010680016290000000000000E37000000000000F4
:101078001037000012370000143700001637000040
:10108800183700001A370000B8290000C4290000EA
:10109800D0290000DC290000E829000026370000DC
:1010A800283700002A3700002C3700002E370000B0
:1010B8003037000032370000343700003637000080
:1010C800383700003A3700003C370000F4290000A8
:1010D80040370000BA2300004437000060240000B5
:1010E8006E2400008C240000AA240000DA1F0000EF
:1010F800F01F0000022000001820000056370000F2
:10110800583700005A3700005C3700005E3700008F
:10111800242A0000623700006437000066370000A8
:10112800683700006A3700006C37000000000000D4
:081138000000000000000000AF
:101140003D432A876373C3029377F700BDEFADE594
:10115000937606FF3D8ABA960CC34CC30CC74CC7A6
:101160004107E36BD7FE11E28280B306C3408A06D3
:101170009702000096966780A6002307B700A30693
:10118000B7002306B700A305B7002305B700A304E3
:10119000B7002304B700A303B7002303B700A302DB
:1011A000B7002302B700A301B7002301B700A300D3
:1011B000B7002300B700828093F5F50F9396850062
:1011C000D58D93960501D58D61B79396270097022B
:1011D000000096968682E78086FA9680C1171D8F5A
:1011E0003E96E374C3F8A5B7397101436EC619A0E2
:1011F000397141536AC866CA62CC5ECE19A0397192
:1012000001535AD056D252D44ED64AD826DA22DCCE
:1012100006DE33016140828241114AC026C222C4E7
:1012200006C68282B24D4101024D924C224CB24B15
:101230004101024B924A224AB24941010249924479
:101240002244B24041018280EFF21FFD1C418841DF
:101250008297EDB785476307F60089476306F60076
:10126000014582800CC1EDBF9C411CC1D5BFEFF28E
:10127000BFFA1C418297D9B785476307F6008947B3
:101280006306F600014582800CC1EDBF9C411CC184
:10129000D5BF1C4599C7EFF23FF8AA850D46829746
:1012A00071BF8280EFF2BFF537040020AA891304D2
:1012B00004008144214908401104EF205034118179
:1012C000B38799001345F5FF88A38504E39524FFB0
:1012D0008DB7EFF2FFF1B75500009385C5831385F5
:1012E000C194EF10C023014AB75C0000375C0000D6
:1012F00093898184B75B000013890184375B000008
:1013000093848183A14A9385CC841385C194EF1083
:10131000201E2946D2851385C194EF10202C9305F9
:101320000C851385C194EF10A01CB38749018C2351
:1013300029461385C194EF10002E93858B85138564
:10134000C194EF10E01AB30749018C232946138595
:10135000C194EF10402C93050B861385C194EF10B8
:101360002019B38744018C2329461385C194050AAB
:10137000EF10002BE3195AF945BDEFF2FFE9B7551D
:101380000000938585821385C194EF10801A8147F0
:10139000938681847D55138701842146B385F600A9
:1013A00088A1B305F700238005008507E398C7FEF1
:1013B00071B5EFF27FE64111EF2010342800DD35E2
:1013C0001387018413858184938701848145138663
:1013D000818421483400AE9694228348050063F34B
:1013E000160114A183C8070063F3D80094A38505F0
:1013F00005058507E39005FF814713858183214813
:10140000B306F6008C22142363E5D500938685008D
:1014100014A31423B308F5008507AE9685862380B0
:10142000D8000507E39E07FD410109BD01479386EA
:1014300081849308F00F13860184214EB387E60060
:1014400003C30700B307E5009C233308E600034805
:101450000800B3876740B387170333086840B3C7F2
:10146000070363D4F8009307F00F3388E50063D3D4
:10147000070081472300F8000507E311C7FD8280BC
:10148000814713878183854821483306F500B306D9
:10149000F700034306009022B386F5006378C3008B
:1014A000238006008507E39207FF828023801601D0
:1014B000D5BFEFF27FD641112E842C00853F1387D4
:1014C000418801468146814721482C00B2958821F8
:1014D0000C430506AA96B305B5021107AE97E316AD
:1014E00006FF1307100301456356D702B3C7D7029F
:1014F0001307E015930600089E07B3C7E7023E876F
:1015000093F7F70F63F4F600130700F8130707F8D3
:1015100018A0054541011DB3EFF21FD0F16541113F
:1015200009461385C19493850520EF00B034B75563
:101530000000938585861385C194EF00907F370462
:101540000020814601461305C41F93053003EF00B8
:10155000406CB71700009387675E3EC0B717000066
:10156000938787243EC6B7170000938747258A854F
:101570001305C41F3EC4EF00006C0A85193BB71762
:101580000000938707683EC0B71700009387E726DF
:101590003EC6B7170000938787278A851305C41FA7
:1015A0003EC4EF00006E0A85ED3193874188130732
:1015B000D0FD98C31D57D8C3455798C76D57D8C796
:1015C000154798CB3D47D8CB654798CF13073002D6
:1015D000D8CF4101A5B18280EFF21FC4EF20D01116
:1015E00023ACA184A1B9EFF23FC3B7450000AA84A0
:1015F0009385C57E1385C194EF00B073635A900242
:10160000370500201305C51F812A13890185B755A9
:1016100000002320A900938505801385C194EF0065
:10162000306D8325090029461385C194EF00B07BF6
:10163000FD1437090020635D90001305C91F292A96
:10164000AA8529461385C194EF00F079FD14E5B70A
:1016500083A701851147638AE7001D476389E70077
:101660000D476393E700113BD1BEA531F5BFEF20D5
:10167000B008AA8529461385C194EF00B07BEDB769
:10168000EFF29FB9138441851C401307803E41113E
:1016900085071CC0639BE702B75500009385458111
:1016A0001385C194EF00D064EF20100593848185E9
:1016B0008C402946B305B5401385C194EF0090775F
:1016C000EF20900388C02320040083A701852147D1
:1016D000370400200A856368F70611678A07130735
:1016E000877CBA979C438287753EE13121468A8583
:1016F00039A04D3E2C000A85153B21462C001305D0
:10170000C41F39223DA8793E2C000A85953BF5B7C8
:10171000513E2C000A85713B1C8405468A851305C1
:10172000C41F5C80F520B75500009385C5811385E3
:10173000C194EF00F05B0C8429461385C194EF003F
:10174000306E4101E5BCB93E55B7014582801A2D86
:101750006A293305A74082807E29162D2A8763F8DF
:10176000D7001449BE96850788227EAB82807D55BE
:1017700082807A291E2D6376F7001C49BA97882348
:1017800082807D558280084D8327050A99CBEFF230
:10179000BFA88327450A23110502130585098297EF
:1017A00071BC8280EFF25FA7834745024111CC876D
:1017B0002A84B1C3263193070040850463C8970487
:1017C0001E3163FF97009307000263F4F400930453
:1017D0000002484CA685EF20102609CD48CC06B063
:1017E00036305C4C98870545B69798A33E30850700
:1017F0003EB019A801A005469305F1001305850226
:10180000EF00C0761335150041010DBC0145EDBF59
:10181000EFF2FF9E834745022A843289A9CB263105
:1018200093070040B29463E297041E31AE8963FDD2
:1018300097029307000263F4F40093040002484CFB
:10184000A685EF20501F05C148CC06B03E30484C5D
:101850004A86CE853E95EF20C07B3E30CA973EB08B
:101860004A856FF01F9D01A0F5F00149D5BF4206E2
:10187000418213058502EF00606F7DD1FDB79307AC
:10188000803E1CC59567938787881CC19567232870
:1018900005082320050A938787C5F84F23220500F2
:1018A00078C1BC4F3CC582805E2963F6B702EFF277
:1018B000BF96930700022E8463F4F5001304000220
:1018C000AA840849A285EF20101709C588C8C2A8B4
:1018D0006FF0DF9601A08280EFF21F94004D032984
:1018E000C5024111832704099DCF7A281E2C636C01
:1018F000F702AA84CA852285453F08484A8693850F
:101900008403EF20007183270409231B0400231C98
:1019100024014AC699E3EF200062832744096C0042
:1019200013058408829741016FF05F91584D11CBE8
:10193000EFF29F8E123181453A85EFF07F806FF094
:10194000FF8F8280EFF25F8D2A84231B0500231C0A
:101950000500084909C552288145EFF06FFE2311A3
:1019600004022285E1376FF07F8DEFF27F882A84B1
:1019700068410111EF20802F8145EF20E04A6C4043
:101980001147014593D74500BD8B6369F7003707C1
:1019900000208A0713070702BA978843BD89854745
:1019A000B395B700C205C181EF100037631D05185C
:1019B0002844370A0020514BEF20402B8545EF206B
:1019C000A046914B130A0A02054CB7F400E02549E2
:1019D0002C44014593D74500BD8B63E5FB008A0786
:1019E000D2978843BD89B315BC00C205C181EF10F1
:1019F00080359844DC441306803E3AC03EC2984885
:101A0000DC48814693091700B3BAE900BE9AB305D2
:101A10005903B337390333053903BE95EF2010203E
:101A2000024792473AC43EC6014781479044D44496
:101A300032C036C22246B2460248924863E8D81005
:101A4000639416016364C810024E924E2248B24855
:101A500033030E4133366E0033881E419A863308B5
:101A6000C840BE9633B6F600429732970246B68714
:101A7000924632C436C6E36BB7FA6394E500E3E7F7
:101A8000A7FA2C44014593D74500BD8B63E5FB00C5
:101A90008A07D2978843BD89B315BC00C205C181AE
:101AA000EF1020299844DC441306803E3AC83ECA11
:101AB0009848DC48814693091700B3BAE900BE9AFA
:101AC000B3055903B337390333053903BE95EF2006
:101AD000F0144247D2473ACC3ECE0147814790446A
:101AE000D44432C836CA6246F2464248D24863E31A
:101AF000D80863941601636FC806424ED24E6248FE
:101B0000F24833030E4133366E0033881E419A8605
:101B10003308C840BE9633B6F60042973297424625
:101B2000B687D24632CC36CEE36BB7FA6394E50083
:101B3000E3E7A7FA7D1BE31D0BE82844EF20001321
:101B40008145EF20602E05616FF00FEE2248B2480C
:101B5000024EB3860941924E33B3D900B3881A417D
:101B60003386C601B38868403338D600F698B2860B
:101B70004698C5BD6248F248424EB3860941D24EEE
:101B800033B3D900B3881A413386C601B38868409D
:101B90003338D600F698B2864698ADBFEFF2CFE75D
:101BA00093971500FD1593B51500A302F5022301C7
:101BB000B508A301C5082302D50823280500232A58
:101BC0000500231C0500230D050028C1232E050058
:101BD00023200502230205022A84413B8346540246
:101BE00093048402E16511669385056A2685092AB6
:101BF0008347240889EFB71500009385657826850B
:101C0000D92EB72500009385858D2685D9266FF0BE
:101C1000EFE2EFF26FE093F5F50F49376FF00FE267
:101C2000944118415C4114C1D441411154C198C13F
:101C3000DCC141018280EFF22FDE9C45411102C4DC
:101C40002A841309850889CB09460A85AE848297C0
:101C5000DC443EC69C443EC4CA850A85D137A247AF
:101C6000032704090A852328F408B2473AC4032746
:101C70004409232AF4083AC6EFF0AFE141016FF0BE
:101C8000EFDBEFF26FD99C45411102C42A8413099E
:101C9000850989CB09460A85AE848297DC443EC615
:101CA0009C443EC4CA850A85A53FA2470327040A6F
:101CB0000A852320F40AB2473AC40327440A2322A0
:101CC000F40A3AC6EFF0EFDC41016FF02FD7EFF2E4
:101CD000AFD41385418A65366FF04FD6EFF2CFD37C
:101CE0001384418A956793878788130584091CC0EC
:101CF000EFF02FDA13058408EFF0AFD96FF00FD4AF
:101D000063090516EFF2AFCF2A84484D156AAE84F9
:101D100093058A9DB6893289EF1050192A8B085095
:101D2000956A93858A9AEF107018AA8563010B143F
:101D3000630F05125A85EF10B01B08C06309051226
:101D4000B757004093870740130B44006319F5020F
:101D5000854537052000EF10003981453705200003
:101D6000EF106038854537052000EF1000349307E9
:101D7000F0025CD0930700031CD423AE61851840A9
:101D8000B7670040938707806319F70285453705D9
:101D90004000EF104035814537054000EF10A0347A
:101DA000854537054000EF104030930710035CD0A5
:101DB000930720031CD423A06187085093858A9A37
:101DC000EF10F00A484C93058A9DEF10500A084026
:101DD00061671307076A48C0BA876371970237279C
:101DE0000600130707A8BA87637A970037470F00E2
:101DF00013070724814763639700BA8761671CC490
:101E0000231604001307076A916763649700B1679C
:101E1000FD177EA4930700403EA88347A40523181E
:101E20003401231A240185EF5E215850854693E73B
:101E300007705EA193575700938707043396E60017
:101E40008A0737E700E0BA9790C3105493575600BB
:101E5000938707048A07B396C600BA9794C393057D
:101E60008400EF00907D08408545EF10200C6FF056
:101E70004FBC8280EFF24FBA2A840841B7040010A9
:101E800093850440EF10000F11C50840938504406E
:101E9000EF1060110840B704001093850410EF1094
:101EA000600D11C5084093850410EF10C00F6FF04E
:101EB000EFB8EFF26FB62A840841B7050010C105EC
:101EC000EF10400B09C508408545EF1020066FF064
:101ED000EFB6EFF26FB42A840841B704001093857F
:101EE0000404EF10200909C9938404047D490840C3
:101EF000A685EF10200815E50840C145EF10400504
:101F000029E50840B705001093850508EF10800605
:101F100009C55C5899C3228582972285A13F6FF03D
:101F2000EFB10840EF10400283478405E361F9FCFC
:101F300083478405A297238CA702834784058507DE
:101F400093F7F70F230CF4045DB78347840593F7E9
:101F5000F70F5CD4230C04045C546356F0001C5847
:101F600099C3228582972285A93761BFEFF24FA8D6
:101F7000AA842E8B328A37090600EF007018AA8ACD
:101F80008149014413094908894B636544014E8521
:101F90006FF08FA9B3078B008C23C840050413741E
:101FA000F40FEF00307AC840CA85EF00707A71FDF7
:101FB000EF0010153305554163EBAB008840EF008F
:101FC000907A61D526857D352685E535E9BF954929
:101FD0006DBF0CD982804CD9828003A5C1859387BF
:101FE000818098437115050798C3E535730020304B
:101FF000B7070020938787159843050798C3730098
:10200000203003A501869387C18098437115050789
:1020100098C3C135730020309387418098430507EA
:1020200098C37300203082807D558280EFF2CF9E6E
:102030001C414111CC87DC439305F1000546829792
:1020400041016FF0AF9FEFF22F9D41119305F10019
:102050004105EF10303D09E5888741016FF00F9E83
:102060007D55E5BFEFF24F9B2E85B285EF10D02B4B
:102070006FF0CF9C137736009387C182BA9703C85D
:1020800007006CC12300C504137706039307000300
:10209000930600606307F70093760602B336D0001C
:1020A000AA0609860D8A7D168947014763E7C7009E
:1020B0000606938701833E961A22A1476306F8001D
:1020C000A547630BF80001A00146EFF2EF9441052C
:1020D000EF10301C6FF08F960566C5BF13F7F50F34
:1020E0009307400263EDE7009567938787C50A076A
:1020F0003E971C4393F50570CD8F5CD5828093F697
:10210000050C1306000CFD57E399C6FE9306900CD0
:10211000E3E5E6FE93F7F5031567130707C38A07A0
:10212000BA979C431567130787C58A07BA9793F533
:1021300005709C43D1B713F7F50F9307400263ED89
:10214000E7009567938787C50A073E971C4393F579
:102150000570CD8F1CD5828093F6050C1306000CFC
:10216000FD57E399C6FE9306900CE3E5E6FE93F770
:10217000F5031567130707C38A07BA979C431567CA
:10218000130787C58A07BA9793F505709C43D1B7A3
:10219000EFF28F889307803E1CC59567938747CFE2
:1021A0001CC10CC923220500A9452A84053FA54569
:1021B0002285513758541C546314F700FD575CD4E2
:1021C000FD571CD85CD86FF06F87EFF2EF84B745EE
:1021D0000140938505801385C1945D3F6FF00F86A4
:1021E000EFF28F831C452A8481CB0D46AA85829706
:1021F000232404002326040022856FF02F84B737A0
:102200000140938707C0630BF502370700408547FD
:102210006307E5021307074089476302E5023717A2
:102220000040930607808D47630BD500130707C056
:1022300091476306E500C167FD1711A081473E8500
:102240008280EFE27FFD2A84084D553FAA84130562
:102250008401EF10E0628A04138541992695232AB0
:1022600004009304440823200500130444036387F7
:102270008400C1142685EFF0CF81D5BF6FE01FFC2D
:10228000EFE29FF941112A84C1642E852EC6FD1408
:10229000BD37B2456313950001A01C4C91C301A04A
:1022A00093172500138541993E95930744011CC15E
:1022B000930700085CD4930700041CD80CCC1305CA
:1022C000840140C8232E04002320040223120402A8
:1022D000EF108053130544032137130544040937D5
:1022E00013054405F53D13054406DD3D130544077C
:1022F000C53D084C232004002322040023240400AD
:102300002326040023280400232E040004D085453E
:10231000EF00F065084C9305C401EF00B05E410189
:102320006FE0DFF1EFE25FEF232E050223260504C5
:10233000232E050423260506232E0506232C05003F
:102340008137B7E700E01307002023A2E7100567F5
:102350009306078023A2D71023A2E710096723A2C0
:10236000E710116723A2E7106FE05FEDEFE2DFEA0D
:10237000184519E3EF10303C5C4582976FE01FEC85
:1023800011E101A0EFE25FE92A8408418545EF00F1
:10239000B05F15C11C40DE27858B91CF2285EF10E1
:1023A000604608415C5D81C713054503C13708409D
:1023B0008545EF00F05E6FE07FE803A5419919C104
:1023C00011057D3F7300203011E101A0EFE2DFE451
:1023D0002A8408415E25898B91EB5E25918B99E7D4
:1023E0005E25A18B81E75E25C18B95C78945EF00EE
:1023F000B0591C401DC189453E85EF00705A854487
:102400002285EF10204008419204938444032695CE
:102410001C4591C3A13F6FE07FE23E859145EF00EF
:10242000B0561C4019C591453E85EF007057894450
:10243000C1BF3E85A145EF0030551C4019C5A145DF
:102440003E85EF00F0558D4465BFC1453E85EF00E8
:10245000B0535DD50840C1459144EF0070544DB76D
:1024600003A5419919C11105853773002030411129
:1024700022C613844199484011C5110511374840BF
:10248000110599373244410173002030411122C6B1
:1024900013844199084411C51105DD35084411051F
:1024A00025373244410173002030411122C6138484
:1024B0004199484411C51105E135484411052937B2
:1024C000324441017300203095C1EFE2FFD4411145
:1024D0002A842E852EC6EF1010631C40B2452A8632
:1024E000DC432285829741016FE05FD50145828000
:1024F000EFE29FD2D13F6FE07FD4EFE2FFD11C41EA
:1025000093F5F50F9C4382976FE05FD3EFE2DFD046
:10251000B7550000938585D1453F6FE03FD2EFE28C
:10252000BFCFAA8455372A842685CD3722956FE000
:10253000FFD0EFE27FCEAA84413F2A842685F93777
:1025400022956FE0BFCFEFE23FCD79712306010204
:10255000854763E3C700294678102548B3D6C502EE
:10256000B307D602B387F54093F7F70F9398870127
:1025700093D888416341180393870703E207E187F3
:102580007D171CA363F7C500BA853D3F45616FE029
:10259000FFCAB685E1B793877703CDB7EFE2DFC710
:1025A0002A89AE8401EA1C4193F5F50F9C4382977A
:1025B0006FE0DFC82947631FE60063DF050093056E
:1025C000D002253F2A842946B30590404A85A53F7D
:1025D0002295F9BF1376F60FBD37D9BFEFE2DFC3FF
:1025E000753F6FE0BFC5EFE23FC3AA84453F2A8431
:1025F0002685293F22956FE07FC4EFE2FFC101EA03
:102600001C4193F5F50F9C4382976FE03FC313760F
:10261000F60F153FDDBFEFE23FC0C5376FE01FC2C9
:10262000EFE29FBFAA84D13F2A842685C535229533
:102630006FE0DFC0EFE25FBEAA84C1372A8426853F
:10264000F13522956FE09FBFEFE21FBD2A84EF10A6
:10265000B00A48C41C402285DC4B8297635A0500AF
:10266000EF1090095C441D8D1C44E365F5FE7D551B
:102670006FE0DFBCEFE25FBA4111AA8401442EC6CD
:1026800032C4630DC4002685C13763490500B245D5
:102690002246B387850088A30504D5B7228541016A
:1026A0006FE0DFB9EFE2BFB5014495C2B68432896D
:1026B0002E8AAA8901444E85413F634A050063087A
:1026C0004501B307890088A30504E39684FE2285AB
:1026D0006FE03FB6EFE25FB465246FE03FB691472D
:1026E00063E3A706EFE25FB395679387C7D10A0557
:1026F0003E951C41854582871145EF0030193715FD
:1027000001401305058001A82145EF003018371559
:102710000140130505C06FE07FB24145EF0010177F
:1027200037150140CDBF13050002EF0030163715F5
:10273000014013050540C5B713050004EF0010154F
:10274000372501407DBF01458280EFE2FFAC9565F2
:102750009385C58AEF0070783D819377F5014547F1
:102760006373F70001A01565130505D33E95082195
:102770006FE0DFAC8567138717006306E500890704
:102780006305F50001A04145828045458280EFE266
:10279000BFA8B7270140938707406314F50285451A
:1027A00013050020EF00900E03A50181931735015A
:1027B00063C7070095659385C58AEF00506B6FE08E
:1027C000FFA7B737014093870780E31FF5FC8545D6
:1027D00013050040C1BFEFE23FA4814539266FE0F9
:1027E000FFA5EFE27FA37971AA8413060002814559
:1027F0000808EFE0FF94939734012317010063D199
:1028000007088567890763ED97062685A53737246E
:1028100001402A8913040440228523A89180853F22
:102820003165EF00A07985472302F102B7070E005A
:102830003ECE0C08854722853ED402D002CA02C88B
:1028400002CC892C8545228523200400792C9375A0
:10285000F90F22859D4605466D2C85452285712CF4
:10286000894522859D266DDD7C442285C207C18372
:102870007C8795372285F92A288745616FE01F9C60
:1028800095659385C58A2685EF0050622A84268542
:102890006D3D2A8951B7EFE29F9695694111938565
:1028A00089A02A8AEF009060EFF07F951319250028
:1028B00093844199CA9498401384419915E3938570
:1028C00089A05285EF00905E2AC613054008EF10DC
:1028D0006063B245AA89EFF0FFA49C4023A03701B2
:1028E000B30724019C43804309C82285EFF07F95FC
:1028F000930540082285EF10206341016FE07F932C
:1029000003A5818683A5C18682808280EFE2DF9065
:10291000C53F6FE0BF929387818603A8070083A815
:102920004700130718003335070198C3B306150194
:10293000D4C3E13FB7F700E023A2070073002030C3
:10294000B7F700E023A2070023A00700814694C741
:102950000147D8C703A7C1819306803E3357D702EA
:1029600081461306F7FF90CBD4CB3D4798C3B7E71A
:1029700000E07D572386E740056723A0E7108280AB
:10298000EFE29F89753F6FE07F8B814705476307C3
:10299000E5008507058193F7F70FD5BF37070020BE
:1029A0008E0713074703BA97DC4391C7EFE2DF8630
:1029B00082976FE0BF88828005458D240545F137F9
:1029C000730020300945992C0945C1377300203028
:1029D0001145A9241145553F7300203021453D2C58
:1029E000214565377300203041450D2C4145713F2D
:1029F00073002030411122C626C4130400029544FE
:102A00002285F52A01C92285112C13150401418163
:102A1000EFF0BFF7FD140604E5F43244A24441018F
:102A200073002030411122C626C41304004099448B
:102A30002285F12201C92285D52213150401418185
:102A4000EFF0BFF4FD140604E5F43244A244410162
:102A500073002030EFE24FFCB72701409387074017
:102A6000631CF500854513050020B92D814513052C
:102A70000020992D6FE08FFCB737014093870780C6
:102A8000E31AF5FE8545130500403D2D81451305EC
:102A90000040C5B75C413707F1E01307F7EF944DED
:102AA0007D8F9C41D58FD44DD58FD441A206D58F33
:102AB000D98F5CC11C4537F7F1FF1307D77FD44589
:102AC0007D8F9C49D58F94458606D58FD98F1CC59F
:102AD0005C55370710FF7D177D8FDC29FD1793F7B5
:102AE000F70FD207D98F5CD582801C4589C593E743
:102AF00017001CC58280F99BEDBF1C4591C53707A7
:102B00005000D98F1CC582803707B0FF7D17F98F21
:102B1000D5BFA54763F7B7048D47138765FF330714
:102B2000F7020328C5009D47B397E70093C7F7FF57
:102B3000B3F70701B396E600DD8E54C5994763E30A
:102B4000C70495477D163306F6025859FD47B397DB
:102B5000C70093C7F7FFF98F3396C5005D8E50D934
:102B600082800D473387E502032805019D47B3970F
:102B7000E70093C7F7FFB3F70701B396E600DD8ED2
:102B800014C96DBFB14763E2C702954765163306A6
:102B9000F6021859FD47B397C70093C7F7FFF98F9F
:102BA0003396C5005D8E10D9828095474D16330649
:102BB000F6025855FD47B397C70093C7F7FFF98F43
:102BC000B395C500DD8D4CD5828008416D8D3335C0
:102BD000A0008280138741811C439386C1A53E9546
:102BE000636BD500B75600209386068063E5A60088
:102BF00008C33E858280FD57EDBF82808280B70783
:102C000001401387074083A70740584B698F09C7C6
:102C10007D8D3335A000828001458280B707014059
:102C200023AAA74082809C4513F7070113F8F700F9
:102C300001C7D8413368E80037270240145B3707E3
:102C4000000F758F4DEB85462388D18637170140DD
:102C50006315E5009A2135839AA18E2113F7F50FAC
:102C600039C318418146854E3D4F930F8002930230
:102C70008004214E3396DE00B3F8C50063111603BD
:102C80009398260033131F011343F3FF3377E300B8
:102C9000B318180133E7E8006397F70750C98506B2
:102CA000E39AC6FD18C11307F00F6375B7045441CA
:102CB0002146854E3D4F930F800293028004414E82
:102CC000B398CE0033F715016392E802131726007C
:102CD00001173313EF001343F3FFB376D300331719
:102CE000E800D98E6395F703232A15010506E31939
:102CF000C6FD54C1828037170140E310E5F603C7D3
:102D0000018721DF81BFE39C57F810C949BFE39FCA
:102D100057FC23281501D9BFB71701406316F500EA
:102D200083C7018791C3B58108456D8D3335A000F8
:102D30008280B71701406316F50083C7018791C3EE
:102D4000B5810CC98280B71701406316F50083C7AF
:102D5000018791C3B5814CC98280B7070140635791
:102D60000504DC4F135705019376F7001316050190
:102D70003707300041823378E500635A0506631750
:102D8000E804138706018D46B396E60093C6F6FF66
:102D9000F58F89C91357550112073317E600D98FEC
:102DA00063550506370701405CCF82803727024014
:102DB000145BDC433707000F758F4DF713D71700EF
:102DC000F976CE07758FCD83D98F69BF1317B500FC
:102DD000635607000D47B316D7004DBF1357550173
:102DE00012073317E6001347F7FFF98F5DB7631239
:102DF000E8023708014083264800370700F17D17B5
:102E0000F98F758F2322E800D1F5370701405CC3A5
:102E100082801317B500635C07000D473317D70096
:102E20001347F7FF7D8FB707000FD98FF1BF1357F7
:102E3000550112073317E600E5B7EFE2EFBD7971F0
:102E40002A84462168082EC65922925737470F0018
:102E50001307072433D7E702C204C18093F404FCAC
:102E6000C204C180B24561651305056A13160701E6
:102E70004182D18C46A01620C206C182F99AC206B0
:102E8000C18216A094416369D5048606B3D7D702E0
:102E90009146139707014183BA876373D70091471F
:102EA00005064206C2074182C18312B05EAC1E20F5
:102EB000DA21B62593E717001EA01E20558FC20702
:102EC000C18393F757BFD98F1EA09A25DE25D98FCE
:102ED0001EA445616FE08FB6EA2131667D16631D41
:102EE000C5020D46B386C602B3D7D702C207C18357
:102EF0009396470199E293E71700A166D58F930651
:102F0000C0123307D7029306803E3347D702050726
:102F1000420741831AB059BF6546B386C602B3D78C
:102F2000D7029166C207C183D58FD9B71E2189C543
:102F300093E717001EA18280C207C183F99BC207D5
:102F4000C183CDBF0EA982800A291375F50F828037
:102F50005E290A2D42055D8D6D8D220521810D8D25
:102F60001335150082805E290A2D42055D8D2205EC
:102F700021818280411102C402C693D7C5012AC6AD
:102F80003EC4A247A205A18199CBB247D1073EC654
:102F9000B247884341016D8D3335A0008280B2472E
:102FA000C181E107EDB793C5F5FFC205C1814EA907
:102FB00082807300203001A001A001A0B71602405A
:102FC000DC4251777D17F98F5D8DC8C2828037173B
:102FD00002405C439146B18B6385D700A146638272
:102FE000D706B7177A00938707201CC1371602400F
:102FF0005C42370700201307470B9183BD8BBA97BC
:1030000094231C41B3D7D7005CC15442A1829D8A4E
:10301000BA969422B3D6D70014C55442AD829D8A85
:1030200036971823B3D7E7005CC5584239839376A7
:1030300037001387818136971823B3D7E7021CC95D
:1030400082805C435843C166C983BD8B758F8907F5
:10305000C5466393D700C94701EF374702400327AE
:103060000780418B09CF37177A001307072021A863
:103070003717024058439316E700E3D606FE37178A
:103080003D0013070790B387E70285B799C5371747
:1030900002401C4F5D8D08CF8280B7170240984FC9
:1030A0001345F5FF798D88CF828099C53717024087
:1030B0005C4F5D8D48CF8280B7170240D84F1345D3
:1030C000F5FF798DC8CF828099C5371702405C47DC
:1030D0005D8D48C78280B7170240D8471345F5FF7A
:1030E000798DC8C7828099C5371702401C4B5D8D0A
:1030F00008CB8280B7170240984B1345F5FF798DB6
:1031000088CB82801E2137370140130707C0C207D2
:10311000C1836304E502370700406300E50213073B
:103120000740630CE50037170040930607806306ED
:10313000D500130707C06316E500BA2193F7F7F827
:10314000D98FFA2193F7F7CFC207C183D98F1EA178
:10315000DE215EB59E211EB5B7370140938707C0BB
:103160006314F5009C251EB985475EA982801E2147
:1031700089C593E707081EA18280C207C18393F720
:10318000F7F7C207C183C5BF1E294A25ED8F420547
:10319000418189C76D8D3335A000828001458280D1
:1031A00093C5F5FFC205C1810EA98280EFE2CF86EB
:1031B0001629F577FD17F58FF621DA257971D58F68
:1031C0001EA95625FD779387379FF58FD6212A8430
:1031D0002EC6D58F9625D58FB625D58F5EA55E29AF
:1031E000C207C18393F7F7CFD98F5EA96808EFF0C4
:1031F0001FDEB747014093870780B245631AF40486
:10320000A25756246547B387E702C206C186984194
:1032100063D20604060752244206B3D7E702130717
:1032200040064186B3D6E702B3F7E702920663553C
:1032300006028E0793872703B3D7E70213F77700B9
:10324000B367D700C207C1831EA445616FD01FFFBB
:10325000925745BF0A07C1B7920793872703B3D791
:10326000E702BD8BD58FF9BF91C55E250967D98F60
:103270005EA582805A25F977FD17F98FD5BF93F5A2
:10328000F51F4EA182804A211375F51F82805E29A9
:1032900089C593E787005EA98280C207C183DD9B51
:1032A000C207C183CDBF0A216D8D3335A000828056
:1032B000B71702409843B706FFF81367170098C383
:1032C000D843758FD8C39843B706F7FEFD16758FA0
:1032D00098C39843B706FCFFFD16758F98C3D84373
:1032E000B70681FFFD16758FD8C337079F0098C7B3
:1032F000B746024003A706801367070123A0E680B4
:10330000D843B706C1FFFD16D8C3D843D8C3D843A6
:1033100013670740D8C3D843758FD8C3D843B706BF
:103320003C00558FD8C39843B7060001558F98C30A
:10333000984393166700E3DD06FED843B7160240B4
:10334000719BD8C3D84313672700D8C32147DC42F9
:10335000B18BE39EE7FE8280FD577D576317F50032
:10336000014582806387A700B1059C41E39CE7FE8D
:10337000C5BF05458280EFD29FE8411102C202C459
:1033800002C6FD576313F50001A09377F50013976C
:1033900027009567938747E8118113D48540BA9732
:1033A0003D89AE8403A907001374F407EFF02FB32F
:1033B000AA890DC485450545EFF05FCD7D149307BF
:1033C000F00463ED87009567938747D40A043E9421
:1033D0001C40828785450545EFF03F9893D72440F0
:1033E00013F734008D8B630707243AC40947638FB2
:1033F000E7220D47638EE72205476387E722C1472F
:103400003EC6A1A48145C1BF85450945F1B78145A7
:10341000EDBF85451145C9B78145EDBF85452145BE
:1034200065BF8145EDBF85453705140013050503CC
:1034300065B7854537051400410579BF8145EDB76E
:103440008545370516001305050C79B78545370501
:1034500016001305050449B78145E5B785453705CD
:103460001800130505308DBF854537051800130575
:1034700005209DB785453705180013050510A9BF20
:103480008145F1BF854537151A00130505C0A9B759
:1034900037151A008545130505803DBF8145E5B701
:1034A0008545056515BF8145EDBF854537451D003F
:1034B00025B7854537651D0005B78145E5BF8545BD
:1034C000216519BF8145EDBF8545370520000505FC
:1034D00021B78145DDBF854537052000130505026D
:1034E000E5BD8145D5BF8545370520009DB78145A0
:1034F000E5BF85453705200013050508F1BD814569
:10350000D5BF8545370520000905F9B58145DDBFE3
:103510008545370520001105C1B58145DDBF8545CD
:103520003705200021054DBD8145DDBF85453705A7
:10353000200019B78145E5BF85453705300035BF07
:1035400085453705300025B785453705300013051B
:10355000054059B5854537152000BDBD8145E5BFFE
:103560008145372520008DBD8545E5BF854537451B
:1035700020009DB58145E5BF85453705008061BFC9
:103580008145E5BF8545370513807DB58145370504
:10359000138049BF8145C5BF85453705158055BD99
:1035A0008545370515801DBF8145C5BF8545370554
:1035B000008071BF8145E5BF854537053080A9B7DB
:1035C00085453705308021B78145C5BF854537051D
:1035D000328089BF85453705328035BF8145C5BFFB
:1035E000854537053480DDBD854537053480A9B56F
:1035F0008145C5BF854537053680FDBD8545370505
:10360000368081BD8145C5BF85453705388085B584
:1036100085453705388095B58145C5BF8545370552
:10362000208035B78145E5BFD147D9BBE147C9BB4C
:10363000F147F9B305476383E70299C78946638178
:10364000D702930780026DBB02C64C004E85231241
:103650002101EFF04FDD41016FD0BFBD91474DB368
:1036600091848D8893078004E39DE4FC51BBFD5752
:103670007D57631DF50082806399A700EFD2DFB903
:103680008C45EFF05FCF6FD07FBBB1059C41E395D8
:10369000E7FE01A07D579C416394E70001458280CD
:1036A0006394A700C8418280B105F5B7FD57630850
:1036B000F500EFD27FB6EFF0FFFD6FD03FB80145C8
:1036C00082807D579C416394E7007D55828063949E
:1036D000A70088458280B105F5B7FD576308F5005E
:1036E000EFD29FB3EFF0FFFD6FD05FB57D558280C5
:1036F0006305B50019C181E5AA852E8582808145C3
:10370000EDBF01A001A001A001A001A001A001A0A6
:1037100001A001A001A001A001A001A001A001A0A1
:1037200001A001A001A001A001A001A001A001A091
:1037300001A001A001A001A001A001A001A001A081
:1037400001A001A001A001A001A001A001A001A071
:1037500001A001A001A001A001A001A001A001A061
:1037600001A001A001A001A001A001A001A097D18A
:10377000FF1F9381A11E172100201301A188172587
:1037800000001305258D97D5FF1F9385A587138608
:10379000818363FAC5008322050023A0550011052B
:1037A0009105E3EAC5FE138581839385C1A56377FF
:1037B000B500232005001105E36DB5FEFD427390B1
:1037C00002BC8D42739042809302800873A0023045
:1037D00097E2FFFF9382828693E232007390523029
:1037E0001705000013056577EF004076EF00407A7B
:1037F000EFF01FAC97020000938262467390123480
:103800007300203071158280EFD21FA11841B737A5
:103810000140938707C02A846318F7000565854532
:1038200013050580EFF09F861840B7070040631628
:10383000F70085450545EFF05F871840B707004062
:10384000938707406316F70085450945EFF0FF852C
:103850001840B7170040938707806316F700854527
:103860001145EFF09F841840B7170040938707C0B9
:103870006316F70085452145EFF03F836FD01F9C0D
:10388000EFD29F991841B7370140938707C02A8428
:103890006318F7000565814513050580EFF00FFFFC
:1038A0001840B70700406316F70081450545EFF063
:1038B000CFFF1840B7070040938707406316F70013
:1038C00081450945EFF06FFE1840B7170040938718
:1038D00007806316F70081451145EFF00FFD184092
:1038E000B7170040938707C06316F700814521454D
:1038F000EFF0AFFB6FD09F94EFD21F8F2A84084D5B
:10390000956A4111AE8D93850ABD328D368CBA8C85
:10391000EFF0DFD92AC6484C156A93050AB7EFF0D5
:10392000FFD8AA8408509569938549B3EFF01FD852
:10393000AA8B48501569930589AFEFF03FD7B2477E
:103940006385070E544C7D572A8B6384E600638E93
:10395000040C14507D576384E60063880B0C5450AC
:103960007D576384E60063020B0C3E85A685EFF06D
:103970003FD8DE8508C0EFF0BFD708C0DA85EFF08A
:103980003FD708C05DC1B7470140938707806311E7
:10399000F50A85451165EFF06FEF93075003230695
:1039A00004021CD4084C93850ABDEFF05FCC91C48F
:1039B000484C93050AB7EFF09FCB014A63890B008F
:1039C0000850938549B3130A0010EFF05FCA6309EA
:1039D0000B004850930589AF136A0A20EFF03FC9E6
:1039E0008347C40208402324B40113972700938718
:1039F000819ABA971307440098C3B14748C0231669
:103A0000A40123179401231884013EA8231A44011A
:103A100081E48545EFF0BF87484093058400EFF0CF
:103A2000EFF848408545EFF03F8441016FD08FFFAC
:103A3000B747004093870740631DF500854537056C
:103A40000200EFF08FE685472306F4029307600338
:103A500089BFB757004013870780631DE500854580
:103A600037050400EFF06FE489472306F40293075B
:103A7000700305BF938707C0E316F5F28545370548
:103A80000800EFF08FE28D472306F4029307D0037E
:103A900009BF19C5EFD24FF8EFF01FE66FD00FFA4C
:103AA0008280EFD26FF7956703A4C7C795659385AA
:103AB00005BD2285EFF09FBF05C137050020F165E8
:103AC0009307450C01478146014693850520130560
:103AD000450C80CFEFF05FE26FD04FF6EFD2CFF31F
:103AE0008347C50293050002139727009387819AA5
:103AF000BA979C438843EFF00FFB133515006FD046
:103B0000EFF3EFD26FF18347C502930500041397DB
:103B100027009387819ABA979C438843EFF0AFF8C8
:103B2000133515006FD08FF1EFD28FEC37040020E2
:103B3000AA84AE89EFE0DFDC9307440C03C7C70219
:103B40008D472A8A1304440C63E9E7040347C4023F
:103B50009387819A0A07BA9703A90700938A819AE3
:103B6000711963060904130B703E4A85EFF07FF963
:103B700059ED338A3401638D44034A85EFF07FF8B1
:103B80006DFD8347C402850483C5F4FF8A07D69779
:103B90009C438843EFF0AFEEF9BF956703ABC7C70F
:103BA0001569930509BD5A85EFF05FB009E58149B4
:103BB0004E856FD06FE7230604028D4B938A819A5E
:103BC0008347C40263FAFB00EFF0BFED0347C40272
:103BD0008D47E3FDE7F6E1BF8A07D6979C4399E757
:103BE0008347C40285072306F402D9BF930509BDA4
:103BF0005A85EFF0BFAB0347C40293172700D6974F
:103C00009C439C43E39EA7FCE3F2EBF475BFEFE01B
:103C10003FCFB30745413335F500E39AA5F8E37686
:103C2000FBF471B711E57D5582807D556FD00FE1B2
:103C3000EFD28FDE2A84AE84EFF05FEA7DF5834712
:103C4000C402139727009387819ABA979C438843AD
:103C5000EFF06FE388A00145D1BFEFD2EFDBEFE0DB
:103C60007FA7EFD07F8BEFD01F97F5BF935745000D
:103C7000BD8B11476367F7021567130787C5814737
:103C80001376F50F930650020C436397C500137526
:103C90000570C98F3E85828085071107E396D7FEA0
:103CA000D5BF93075002FDB71377F50FA547AA8636
:103CB00063EAE7029567938707C3131627003E96CA
:103CC00010429377057093054002D18F13F6F70FDA
:103CD00063F6C50493F5070C1305000C6382A50A6F
:103CE0007D5582801378050C9307000C7D55631871
:103CF000F8089305900C63E4E50813F6F60395675E
:103D0000938707C30A063E96104293F706709308FE
:103D10004002D18F13F6F70F63EBC80495679387C2
:103D200087C50A063E96A547104263E9E7009567F6
:103D30000A07938707C33E971C432DA093F7060CF1
:103D40009305000C130500706391B7029307900C64
:103D500063EDE70093F7F60315678A07130707C3B8
:103D6000BA979C43DD8E13F50670518D09A893F820
:103D7000070C6396080193F7F70363F9C500828087
:103D80009305900C93F7F703E3ECC5F495658A0768
:103D9000938505C3AE979C431566130686C58A07AF
:103DA000B2979043A54763E5E7000A072E9769B7E6
:103DB00093F7060C1308000C13050070E39707FB3C
:103DC0009307900CE3E3E7FA13F7F603F9BF638771
:103DD000C502637DB600918D8547B397B700636ECA
:103DE000F50005053355B5007D15828001C905052F
:103DF000B305B6403315B500C5BF01458280EFD28B
:103E0000AFC1EFF07FEAFD57630EF5001384018226
:103E10000C40EFE01F9D03A641820C40EFF03FFBFA
:103E20006FD0CFC10145EDBFEFD26FBD9377F50FD6
:103E300013074002636DF70615678A07130787C5E6
:103E4000BA97804313750570FD57498C6308F408D1
:103E50009357240093F9C7039387819BCE979C4384
:103E6000137AF400AE84B3D74701858B1389819B05
:103E70008DC79565938585A02285EFF0EFCD01C5AF
:103E80002285EFE05FA1B30739019443054733175B
:103E900047011347F7FF758F98C3954763ED970464
:103EA00095658A04938545ECAE949C408287137790
:103EB000050C9306000C6313D7021307900C636F75
:103EC000F7009377F50315678A07130707C3BA97B7
:103ED0009C439DB791452285EFF0EFC96FD06FB538
:103EE0008D45D5BFE145C5BF93058002EDB781453E
:103EF000DDB79D45CDB701A0EFD20FB2EFE01FA116
:103F00006FD0CFB3411122C406C62A8411E1054403
:103F10002285F52011E5112811E115200295CDBF6C
:103F2000B24022444101828011A89387418788438F
:103F30000F00F00F8280411106C61120F1A041113F
:103F4000194506C669260545EF00F007AA85814692
:103F500001460145D1A64111971700009387470FED
:103F600022C4171400001304E40E1D8C26C206C6DA
:103F70000984BE8419E42244B240924441016FE0B6
:103F8000DFC77D1493172400A6979C438297DDB763
:103F90004111971700009387A70A22C41714000045
:103FA0001304040A1D8C26C24AC006C60984814433
:103FB0003E8963988402EFE07FC4971700009387DF
:103FC0002708171400001304A4081D8C09848144D9
:103FD0003E89639F8400B2402244924402494101D9
:103FE000828093972400CA979C4385048297D1B717
:103FF00093972400CA979C4385048297D9BF9387DF
:104000008182AA8588438DA293878182AA8588436D
:1040100055A8B3C7A5008D8B3307C50081E78D4731
:1040200063EDC700AA87637EE508942185078505AF
:10403000A38FD7FEE3EBE7FE828093763500AA8755
:1040400089CA942185078505A38FD7FE93F637008B
:10405000C5BF9376C7FF138606FE63F0C70683A32A
:10406000050083A2450083AF850003AFC50083AE82
:10407000050103AE450103A3850183A8C50193850E
:10408000450223A0770003A8C5FF23A2570023A45D
:10409000F70123A6E70123A8D70123AAC70123AC70
:1040A000670023AE17019387470223AE07FF75B75A
:1040B00090419107910523AEC7FEE3EBD7FEE3E6FF
:1040C000E7F68280CDC183A7C5FF411122C406C691
:1040D00026C21384C5FF63D307003E94AA84F92443
:1040E000938781879C4399EB2322040023AC81862C
:1040F0002244B24026859244410155AC637EF400CF
:1041000014403307D4006396E7009843DC433697A6
:1041100018C05CC0E1BFBA87D84319C3E37DE4FE91
:1041200094433386D700631F86001040B29694C331
:104130003386D700E31EC7FA10435843B29694C3A0
:10414000D8C37DB76375C400B1479CC055B7104054
:10415000B306C4006316D70014435843B29614C084
:1041600058C0C0C371B78280011126CA938435003C
:10417000F19806CE22CC4AC84EC6A104B14763F1DD
:10418000F404B14463E0B4042A890D249387818741
:1041900098433A8431E09387C1879C4391E78145F6
:1041A0004A85452023AEA186A6854A855928FD5912
:1041B00063173507B1472320F9004A85CD2A29A086
:1041C000E3D204FCB1471CC10145F2406244D24431
:1041D0004249B249056182801C40858F63CE070247
:1041E000AD4663F6F6001CC03E9404C031A05C40AE
:1041F0006312870223ACF1864A85552A1305B40061
:104200009307440061993307F54061D33A94898F4D
:104210001CC065BF5CC3CDB722874040A5BF130457
:1042200035007198E30385FCB305A4404A85112845
:10423000E31D35FB41B7938781822E86AA8588438B
:1042400085AA411122C42A842E8523AC01A406C666
:10425000EFE05F98FD576317F500938781A59C43B6
:1042600091C31CC0B240224441018280FD4763F6E5
:10427000B700D9471CC17D5582807C41011122CCF9
:1042800006CE2E862A8491C713972500BA979843A5
:1042900019EB228532C6BD20AA85228562443246AA
:1042A000F24005611DA8854601456308D700FD560B
:1042B0006319D700D9471CC00545F2406244056127
:1042C00082802E8523A0070002970145FDB79387C2
:1042D0008182AA8588436FF07FF9411122C42A8424
:1042E0002E85B28523AC01A406C6C129FD576317EC
:1042F000F500938781A59C4391C31CC0B240224422
:10430000410182806DA1AA87850703C7F7FF6DFF72
:104310003385A7407D158280938701889C432A8E30
:1043200099EF1387C19C23A0E18817C5FFFF1305F0
:1043300065CDBA8709C51C4123AAF1A4BA87D84321
:104340007D487D556347E804630E0E0203A8870885
:104350006301080493182700C29823A0C800032310
:10436000081005463316E6003363C30023206810A7
:1043700023A0D80889466317DE0083264810558E8F
:104380002322C810930617000A07D4C3BA978CC714
:104390000145828097C7FFFF9387C7C699C7170556
:1043A0000000130585BB6FF07FBA82808280828017
:1043B00081E5B2856FF05FDB011122CC06CE26CA03
:1043C0004AC84EC6328401EEEFF0DFCF0149F24019
:1043D00062444A85D2444249B24905618280AE8432
:1043E000AA891D202689E37485FEA2854E85EFF0FB
:1043F000BFD72A8969DDA6852286EFF09FC1A685F1
:104400004E85EFF03FCCE1B783A7C5FF1385C7FF0B
:1044100063D50700AA959C413E958280B687B288F5
:104420002A832E88639B061463F8C50A4167636B71
:10443000E61AB70700016360F63493568601E14738
:10444000171700001307C7AF36971823BA9713073B
:1044500000021D8F19CB3398E500B357F500B31850
:10446000E60033E807013313E50013D6080133559E
:10447000C80293960801C182935703013377C8029B
:10448000B385A60242073368F700637AB8004698FE
:104490009307F5FF636418016365B8303E85330800
:1044A000B8403357C8024203135303013378C8029C
:1044B000B386E602420833686800637BD8004698FA
:1044C0009307F7FF6365180179176363D8003E8788
:1044D0004205598D8145828001E60547B358C702E0
:1044E000416763E8E80EB707000163EAF82893D64E
:1044F0008801E14717170000130787A43697142394
:10450000BE9693070002958FFDE7939E08013387BF
:10451000154113DF080193DE0E0185459357030112
:104520003355E7033377E703B306D5034207D98F43
:1045300063FAD700C6971307F5FF63E4170163E535
:10454000D7263A85958F33D7E703420313530301E8
:10455000B3F7E703B30ED703C207B3E7670063FB04
:10456000D701C6979306F7FF63E51701791763E351
:10457000D70136874205598D828063E1D504C16732
:1045800063E1F604B707000163E3F61E13D7860163
:104590006148971700009387A79ABA979823130E3C
:1045A00000024297330EEE40631A0E0C63EDB61C08
:1045B0003335C5001345150081458280814501458D
:1045C00082809307F00F63F3D71C13D7860021482E
:1045D000C9B71307F00FC686E37E17F193D688009C
:1045E000A14709BF1307F00FB286E37BC7E49356D8
:1045F0008600A147B1B5B398F80033D6D50013DFD4
:104600000801335EE6033397F500B356D500558FA6
:10461000939E080193DE0E013313F50093550701B5
:10462000B376E603B387CE03C206CD8E63FBF600F6
:10463000C6961306FEFF63E4161763F2F616791E9C
:10464000C6969D8E33D6E60393170701C183B3F652
:10465000E6033385CE02139706015D8F637BA700C7
:1046600046979307F6FF636817136376A7127916C8
:10467000469793150E01098FD18D4DB5B357E600BE
:10468000B396C601DD8E33D3E50013DF0601B357C1
:10469000E303939E060193DE0E013398C501335761
:1046A000E50033680701935808013316C6013373D8
:1046B000E303B385FE024203B368130163FBB80052
:1046C000B6981387F7FF63EAD80C63F8B80CF917AC
:1046D000B698B388B84033D7E803420813580801A6
:1046E000B3F8E8033383EE02C208B3E5080163FBC5
:1046F0006500B6951308F7FF63EDD50863FB650801
:104700007917B695C207416FD98F1307FFFFB3F62C
:10471000E70093D80701718F4182B38EE602B3851B
:104720006540B386C60213D80E013387E802BA96F5
:10473000C2963386C80263F3E6007A9693D80601E0
:10474000469663E2C5026385C5003E858145828049
:1047500041677D17F98EC206B3FEEE003315C50121
:10476000F696E374D5FE1385F7FF8145828013D753
:104770000601414839BD93560601C147D1B193D6D0
:104780000801C14785BB81450545828036870148C0
:1047900009B5428785BF3E86E9BDBA871DBF328E07
:1047A0004DB579154698E5B97915C69761BB93075C
:1047B000800523ACF1A47D5582809307800523AC4E
:1047C000F1A47D55828001A046170000F21600007A
:1047D00006170000E8160000461700004617000004
:1047E0004617000046170000101700007265636549
:1047F0006976656420493243206D736700000000CC
:10480000726563656976656420636F6D6D616E6462
:104810003A20000064656C61793D0000706F736937
:1048200074696F6E3A000000737461727420636182
:104830006C6C6962726174696E67000043616C69D7
:1048400062726174696F6E3A0000000053000000EC
:104850003A206D696E3D0000206D61783D000000DA
:10486000204176673D00000049324320736C617639
:10487000652040616464726573732030783333005F
:104880000000000000000000A41700001018000045
:104890004A170000441900004E1700005817000086
:1048A0007217000074260000A4260000000000001B
:1048B0000024014000000000000100000028014029
:1048C0000000000001000000002401400080000002
:1048D00001010000002801400080000002000000EB
:1048E00000240140000001000201000000280140F6
:1048F00000000100030000000024014000800100CE
:1049000003010000002801400080010004000000B5
:1049100000240140000002000401000000280140C2
:104920000000020005000000002401400080020099
:104930000501000000280140008002000600000080
:10494000002401400000030006010000002801408F
:104950000000030007000000002401400080030065
:104960000701000000280140008003001000000043
:104970000024014000000400100100000028014054
:104980000000040011000000002401400080040029
:10499000110100000028014000800400FFFFFFFF1C
:1049A000000000000000000016000000005400405D
:1049B0000F00000018000000005400400F0300002A
:1049C0001A000000005800400F000000FFFFFFFF2A
:1049D000000000000000000017000000005400402C
:1049E0000F00000019000000005400400F030000F9
:1049F0001B000000005800400F000000FFFFFFFFF9
:104A00000000000000000000000000000000004066
:104A10000B92000001000000000000400B1201009A
:104A200002000000000000400B92010003000000A3
:104A3000000000400B1202000600000000040040CD
:104A40000B95000007000000000400400B1501005A
:104A500010000000000400400B9501001100000050
:104A6000000400400B150200160000000008004082
:104A70000B97000017000000000800400B17010012
:104A800018000000000800400B970100190000000A
:104A9000000800400B17020008000000002C014035
:104AA0000B8E000009000000002C01400B0E0100DD
:104AB0000A000000002C01400B8E01000B000000DA
:104AC000002C01400B0E02001D000000002C0140D4
:104AD0000B8E00001E000000002C01400B0E010098
:104AE0000F000000002C01400B8E0100FFFFFFFFB4
:104AF00000000000000000000B0000000038014032
:104B000018000000000000000044004018000000F1
:104B10001D000000004800401800000013000000C5
:104B2000004C004018000000FFFFFFFF00000000E5
:104B3000000000000C000000003801400B000000E5
:104B400001000000004400400B0000001E000000B7
:104B5000004800400B00000014000000004C004022
:104B60000B000000FFFFFFFF00000000000000003E
:104B70000A00000000380140180000001700000083
:104B80000038014018050000030000000044004008
:104B9000180000001B000000004800401800000042
:104BA0002B00000000480040180900001100000020
:104BB000004C00401800000015000000004C0040B0
:104BC00018400000FFFFFFFF000000000000000091
:104BD00009000000003801400B0000001600000032
:104BE000003801400B0500000200000000440040B6
:104BF0000B0000001A000000004800400B000000FD
:104C00002A000000004800400B09000010000000CE
:104C1000004C00400B00000005000000004C00406C
:104C20000B400000FFFFFFFF00000000000000003D
:104C3000000000000100000002000000030000006E
:104C4000040000000500000006000000070000004E
:104C50001000000011000000000000000100000032
:104C60000200000003000000040000000500000036
:104C70000600000007000000080000000900000016
:104C80000A0000000B0000000C0000000D000000F6
:104C90000E0000000F0000001000000011000000D6
:104CA00012000000130000001400000015000000B6
:104CB0001600000017000000180000001900000096
:104CC0001A0000001B0000001C0000001D00000076
:104CD0001E0000001F0000002D0000002E0000003C
:104CE0002F00000030000000310000000000000034
:104CF000000000002C200000642000004A17000083
:104D00002620000028200000462000002820000067
:104D100074260000A42600000D0A0000F8260000FA
:104D2000082700001A270000262700003827000067
:104D3000000102030405060708090A0B0C0D0E0FFB
:104D400010110000D43300000434000008340000C7
:104D50000E34000012340000183400001C3400002F
:104D60002234000026340000323400003C340000BD
:104D7000403400004C340000583400005C34000023
:104D80006834000074340000803400008434000073
:104D9000903400009C340000A0340000A6340000D1
:104DA000AA340000B2340000BA340000BE3400005F
:104DB000C4340000C8340000D2340000D6340000EF
:104DC000E2340000E6340000EE340000F23400006B
:104DD000FE340000023500000C35000010350000E4
:104DE0001A3500001E350000283500002C35000063
:104DF00034350000383500004035000048350000EB
:104E0000543500005C350000603500006835000056
:104E10006C350000743500007835000080350000E6
:104E2000843500008C350000943500009835000072
:104E3000A0350000A8350000AC350000B4350000F6
:104E4000B8350000C0350000C8350000CC35000082
:104E5000D4350000DC350000E0350000E835000006
:104E6000F0350000F4350000FC3500000436000089
:104E70000836000010360000183600001C3600000E
:104E800024360000010000000200000004000000C1
:104E9000080000001000000020000000400000009A
:104EA000800000000001000000020000000400007B
:104EB000000800000010000000200000004000007A
:104EC00000800000D43E0000E03E0000E43E000010
:104ED000E83E0000EE3E0000F23E00000000000050
:104EE00000000000000000000000000000000000C2
:104EF00000000000000000000000000000000000B2
:104F000000000000000000000000000000000000A1
:104F10000000000000000000000000000000000091
:104F20000000000000000000000000000000000081
:104F3000000000000000000000000000000102026C
:104F40000303030304040404040404040505050521
:104F500005050505050505050505050506060606FD
:104F600006060606060606060606060606060606E1
:104F700006060606060606060606060607070707CD
:104F800007070707070707070707070707070707B1
:104F900007070707070707070707070707070707A1
:104FA0000707070707070707070707070707070791
:104FB000070707070707070707070707080808087D
:104FC0000808080808080808080808080808080861
:104FD0000808080808080808080808080808080851
:104FE0000808080808080808080808080808080841
:104FF0000808080808080808080808080808080831
:105000000808080808080808080808080808080820
:105010000808080808080808080808080808080810
:105020000808080808080808080808080808080800
:0C50300008080808080808080808080814
:10503C0094430000D8150000CE1C0000CA210000CB
:04504C00DC1C000068
:10505000C0000000C1000000C2000000C30000004A
:10506000C4000000C5000000C6000000C70000002A
:1050700000080140000C01400010014000140140F4
:10508000001801401600000000000000170000009A
:1050900000000000180000000000000019000000DF
:1050A000000000001A0000000000000027000000BF
:1050B00000000000270000000000000027000000A2
:1050C0000000000027000000000000002700000092
:1050D0000000000038000000000000003800000060
:1050E0000000000038000000000000003800000050
:1050F0000000000038000000000000003800000040
:10510000000000000000000001020304010203048B
:105110000607080900000000000000000000000071
:10512000000000000000000000000000FFFFFFFF83
:10513000FFFFFFFFFFFFFFFFFFFFFFFF000000007B
:105140000400000000000000FC4E00001C4F0000A6
:10515000DC4E000000000000000000000000000025
:10516000000000000000000000000000000000003F
:10517000000000000000000000000000000000002F
:10518000000000000000000000000000000000001F
:10519000000000000000000000000000000000000F
:1051A00000000000000000000100000001000000FD
:1051B0000100000001000000FFFFFFFFB40300201A
:1051C00002040608004495080C0000000C000000D2
:1051D000F40000200607080900100020003000003D
:0400000300001000E9
:00000001FF
