:101000006F30206713000000130000001300000081
:101010001300000013000000130000001300000084
:101020001300000013000000130000001300000074
:08103000130000007300100022
:101038000010000000000000B63E0000BA3E0000AC
:1010480000000000BE3E000000000000000000009C
:10105800BC3E00000E46000000000000000000003A
:101068000C380000000000001246000000000000DC
:101078001446000016460000184600001A460000F4
:101088001C4600001E460000B2380000C0380000B0
:10109800CE380000DC380000EA3800002A4600009C
:1010A8002C4600002E460000304600003246000064
:1010B8003446000036460000384600003A46000034
:1010C8003C4600003E46000040460000F83800005C
:1010D80044460000D8320000484600008033000033
:1010E80090330000B2330000D4330000EC2E00002F
:1010F800022F0000142F00002A2F00005A4600007B
:101108005C4600005E460000604600006246000043
:101118002839000066460000684600006A4600005C
:101128006C4600006E46000070460000000000009B
:081138000000000000000000AF
:101140003D432A876373C3029377F700BDEFADE594
:10115000937606FF3D8ABA960CC34CC30CC74CC7A6
:101160004107E36BD7FE11E28280B306C3408A06D3
:101170009702000096966780A6002307B700A30693
:10118000B7002306B700A305B7002305B700A304E3
:10119000B7002304B700A303B7002303B700A302DB
:1011A000B7002302B700A301B7002301B700A300D3
:1011B000B7002300B700828093F5F50F9396850062
:1011C000D58D93960501D58D61B79396270097022B
:1011D000000096968682E78086FA9680C1171D8F5A
:1011E0003E96E374C3F8A5B7397101436EC619A0E2
:1011F000397141536AC866CA62CC5ECE19A0397192
:1012000001535AD056D252D44ED64AD826DA22DCCE
:1012100006DE33016140828241114AC026C222C4E7
:1012200006C68282B24D4101024D924C224CB24B15
:101230004101024B924A224AB24941010249924479
:101240002244B24041018280EFF21FFD1C418841DF
:101250008297EDB785476307F60089476306F60076
:10126000014582800CC1EDBF9C411CC1D5BFEFF28E
:10127000BFFA1C418297D9B785476307F6008947B3
:101280006306F600014582800CC1EDBF9C411CC184
:10129000D5BF1C4599C7EFF23FF8AA850D46829746
:1012A00071BF828041118147A14638003306F700A3
:1012B0003307F500182385071337470618A2E3966E
:1012C000D7FE81470147A14630003E961022850790
:1012D0003297E39BD7FE014509CF954763DDE700D1
:1012E0009C8489CF9C8599CB1C8689CB1C8709451A
:1012F00091C7410182800545E30DA7FE108501CA13
:1013000094851C86DD8E81C61C871545FDF38946B4
:101310000545E3D0E6FE98841C84BA979885B29779
:101320009086BA97188632971087329790873297AF
:1013300063D6F600E34FE5FA114565BF0545E3DAEC
:10134000E6FAE388D7FA0D456DB7EFF25FEB3704A5
:10135000002013040400814413890193A14908402B
:1013600089451104EF30B01C0325C4FFEF309019FC
:101370001181B30799001345F5FF88A38504E39015
:1013800034FF45BDEFF25FE937660000B765000046
:101390001306867893850579138541A1EF20C00D4A
:1013A0008147938601917D55138701903546B3851A
:1013B000F60088A1B305F700238005008507E398B0
:1013C000C7FEADBD938501911387019001469387B8
:1013D00001909386019113880193A1483305C800B9
:1013E000082103C305006373650088A103C30700D8
:1013F0006373A30088A3050685058507E31016FF20
:101400008147A1453386F600102208236364A600B5
:10141000210610A385070507E396B7FE0547238E2F
:10142000E1848280EFF25FDF85452A844D45EF300D
:101430001010814511C085454D45EF30501CFDBB56
:10144000EFF2FFDB83A741850547AA846394E70495
:1014500001447D4A054BA149B38784009C23014682
:101460006374FA0013D6470083A78185931504019E
:10147000C181639F67012206138501940504EF1063
:101480008013E31B34FD13850194EF00105155B315
:101490004206DDB70947E39CE7FE0144414A854A1D
:1014A000A149B3878400902311823306CA40137682
:1014B000F60F63135601014683C7C18593150401D6
:1014C000C18191CB2206138501940504EF10A00E73
:1014D000E31934FD4DBF4206FDB7014793860191E4
:1014E0009308F00F13860190214EB387E60003C3E3
:1014F0000700B307E5009C233308E6000348080013
:10150000B3876740B387170333086840B3C707033F
:1015100063D4F8009307F00F3388E50063D3070026
:1015200081472300F8000507E311C7FD828003D738
:101530000184130505F8420541813306E540B28771
:1015400042064186F155938601846353B600F157F4
:1015500093950701C18511466353B6009147BA9729
:10156000C207C18313970701420541874185198D41
:101570000D85AA97C207C1839EA2938707083E855F
:10158000C207C1871307F00F6354F7001305F00F6C
:101590009317050163D3070001451375F50F82808A
:1015A000FD571CA223800600814801488147130E85
:1015B000F00F21433307150118233307EE4042078C
:1015C0004183B30E17033A98F69783CE060063F370
:1015D000EE0098A2834E06006373D70118A2850817
:1015E000E39A68FC130770020145635407031D4723
:1015F0003308E8021307F00FB387E7029356184049
:10160000B697B3D707036374F7009307F00F9CA155
:1016100005458280EFF2BFBE2A89EF30900F938597
:10162000218498211386C1893A96931727009386BF
:10163000018B0507BE961377F70F83A906000022DA
:1016400088C22300260198A1CD47AA8493863184BD
:1016500063FAE7048547238005009CA24A85C13DC3
:10166000018D4205418193170501C18713070008C9
:10167000635FF702930705F0C207C187B384344163
:1016800085C4130580073385A7029307F00F334500
:1016900095021305050863D3A7021305F00F137510
:1016A000F50F29A09C22DDFB1305000859B613078E
:1016B00000F8E3D5E7FC930705107DBFE35105FE75
:1016C0000145F1BFEFF2BFB30E052E89935585405A
:1016D000138B1500A1474111328AB68A1374F50F96
:1016E0006313FB001D4B138501949304F00F818C51
:1016F0002EC6EF00307533069902B245138501946A
:10170000B387440321864206B384540393F707F05A
:101710005D8EA184458EEF00106AB3078902DA85D9
:101720001385019433064403A187C207218622064C
:10173000D18F3306540321865D8EEF00D067138569
:101740000194EF0090254101EDB4EFF27FAAB68B32
:101750003A8C03A74185BE8C8D472A892E8B328A0D
:10176000938A41856303F700E139938581864A8531
:1017700093862186138631862535268913848186B2
:1017800021C103A70A008D476317F7000820E686EA
:101790006286DE85053F1C20938401929CA483C74A
:1017A0003186138501929CB483C72186BCA4DD3C9D
:1017B000C8A463060A000820B13DA385A192ADB478
:1017C000E3090BFE93870192230004002394070092
:1017D0002385070023860700E9BFEFF25FA24111CE
:1017E00013850194EF00500E13850194EF00F01A59
:1017F00001450D398D451305900CEF304053F165CF
:101800000946138541A193850520EF10C077B76580
:1018100000009385C57C138541A1EF10904113858D
:101820000196EF00C06E23AC01849D679387C7BB10
:10183000F453BC531387C19674C301468146930584
:1018400030031385C1963CC7EF10A02DB7270000C9
:10185000938747AA3EC0B7170000938787243EC6E8
:10186000B7170000938747258A851385C1963EC424
:10187000EF10602D0A85313CB7270000938767EA97
:101880003EC0B71700009387E7263EC6B717000093
:10189000938787278A851385C1963EC4EF10602FF2
:1018A0000A85C53A0D49214AFD5A8144939904019C
:1018B00093D909012946CE8513850194EF00B04FD5
:1018C00013850194EF00700D7945EF3000660146F5
:1018D000CE8513850194EF00104E13850194850485
:1018E000EF00B00BE39444FD9D449399040193D918
:1018F00009012946CE8513850194EF00D04B13854D
:101900000194EF0090097945EF3020620146CE85C1
:1019100013850194EF00304A13850194FD14EF0004
:10192000D007E39454FD7D19E31109F81385019460
:10193000EF00505141016FF0DF8FEFF2FF8D138701
:1019400001851C431384818585071CC30567130724
:101950008738B3E7E70285E71040B7650000938555
:10196000C57A138541A1EF10303103C6C185B76533
:1019700000009385857B138541A1EF10F02FF13294
:101980001C400547638CE708C9C30D476385E70A18
:101990001305900CEF3000503336A0009387D185AB
:1019A00001CD982311EB9386C18498221347170029
:1019B00098A241CB0D4718C0184090A38D476315DE
:1019C000F708EF300055138481841C401D8D930768
:1019D000900F63F8A702EF30C053138741841C2394
:1019E00008C01306800293C717001CA391E30146A9
:1019F00013850194A145EF00103C13850194EF007D
:101A0000C0790545EF306052A5A081470147D14616
:101A100001468145138501930D3B9DBF938501923E
:101A2000138501935D3C81475147814605468545B5
:101A300013850192D5B7138501931934EFF09F9860
:101A400081BF232004008DBF83C7C185014681C7A4
:101A5000056613060640A14513850194EF00B035D5
:101A600013850194EF00607318408D47E30BF7F482
:101A70006FF0CFFCEFF24FFA930620056D46A545B7
:101A800013850194EF00B02FEF30A04823A6A18664
:101A90006FF0CFFAEFF24FF813850194EF00E0609A
:101AA0006FF0CFF9EFF2CFF441112A8402C202C4E1
:101AB00002C60145635980001385C196EF00903A34
:101AC0001375F50F7D14B94763E7A70299679387EC
:101AD000475A0A053E951C41828737660000B76564
:101AE0000000130686789385055E138541A1EF10EB
:101AF000B01823AC0184B769000037690000635156
:101B0000803A1385C196EF00F0359376F50F138672
:101B1000897893054975138541A17D14EF10D0157F
:101B2000F9BF37660000B765000013068678938515
:101B3000855F138541A1EF103014054723ACE18484
:101B40005DBF37660000B765000021478946130670
:101B5000867893850561138541A1EF10F0118567A3
:101B6000938727807C8235464C001385C196EF0011
:101B7000303B51B737660000B76500001306867822
:101B800093858562138541A1EF10100FEFF08FFF51
:101B90000D4723ACE184EF30C03723A8A186EF3096
:101BA00040378567938787383E9523AAA186A1B7DA
:101BB00083C6C18537660000B765000013068678C6
:101BC00093850564138541A15482EF10F00A61BF2B
:101BD00037660000B76500001306867893850566B2
:101BE000138541A1EF10500983C7C1858DCB814476
:101BF000138A019193890190A14AB3079A00902317
:101C0000A68513850196BD26B387990090239385F9
:101C10008400138501968504B12EE39054FF13854B
:101C20000196AD26C9BDB76500009385456713854C
:101C300041A1EF10100037660000B7650000138562
:101C400041A11306867893854568EF10F002814420
:101C50009389019113890190A14AA6851385019664
:101C6000F52CB387990088A393858400138501968A
:101C7000F524B307990088A38504E39054FF054732
:101C8000238EE1848DBD37660000B7650000130622
:101C9000867893858569138541A1EF10E07D3546EF
:101CA00093850191D9B537660000B765000013062A
:101CB00086789385C56A138541A1EF10E07B354690
:101CC000938501905DB59D47E3D787E237690000B2
:101CD000B7650000130689789385056C138541A1CB
:101CE000EF1080798149138A0191376B0000A14A76
:101CF0001385C196EF001017B3073A0188A39376B6
:101D0000F50F1306897893054B6D138541A185095D
:101D1000EF108076E39E59FDB765000013068978C1
:101D20009385056E138541A1EF1000759387018699
:101D3000054798A39C3361140547E39EE7DA238E99
:101D4000F18455BB9D47E3D887DA37690000B76552
:101D50000000130689789385C56E138541A1EF10A5
:101D6000A0718149138A0190376B0000A14A138545
:101D7000C196EF00300FB3073A0188A39376F50FB1
:101D80001306897893050B70138541A18509EF101F
:101D9000A06EE39E59FDB765000013068978938510
:101DA000056E138541A1EF10206D938701860547CD
:101DB00098B361149C2349B78D47E3DE87D213851E
:101DC000C196EF00300A2A8A1385C196EF00900968
:101DD000AA841385C196EF00F0082A891385C1965D
:101DE000EF0050083706FF00C204F18C41667D16F3
:101DF00022093379C900B3E424011376F50F138562
:101E00000194458E9375FA0FEF00E07A71141385F3
:101E100001946126CDB1635580081385C196EF000A
:101E200070049374F50F37660000B7650000A6864E
:101E3000130686789385C570138541A1EF10C063A2
:101E400023AA91847D14E39804CA13850194EF00BA
:101E5000607F1385019475BF635480041385C19618
:101E6000EF005000AA849376F50F37660000B7653F
:101E700000001306867893854572138541A1EF1003
:101E8000A05F13F5F40F7D14EFF0CFD9ADB1B765B6
:101E9000000093850574138541A1EF108059A1B905
:101EA00041016FF06FB8EFF22FB7138441861C40E9
:101EB0001307803E85071CC0639AE702EF30600578
:101EC0009384C186944037660000B7650000B3066E
:101ED000D5401306867893854577138541A1EF1089
:101EE000A059EF30000388C02320040003A7818598
:101EF00085473546630AF700938501931385C1969C
:101F0000EF0010026FF08FB393850192C5BFEFF21F
:101F1000AFB0E9471CC51C412A848DEF6945EF30FD
:101F20002005B707002003D7478008C037060020E8
:101F300018A183D767801CB18947184463FCE70068
:101F4000939617001840B29683D6C6803E978507B1
:101F500014A3E5B7230204006FF04FAE1C41014704
:101F600081CB63C70500144563F4D500AE97982371
:101F70003A8582801C4191CB63C90500184563F600
:101F8000E500054758A1AE9790A382805C21F5C378
:101F9000B707002010411387078083A707804111EE
:101FA00014223EC01C32C207B6973EC21C47B70679
:101FB0006745938636123EC45C473797EFCD1307CB
:101FC000B79A3EC6B7270240D4C3D8C394C798C7B0
:101FD000984B1367070298CB984B1367070498CB6D
:101FE000D847058B75FF984BB7050020372802406E
:101FF0001377F7FD98CB984BA1461367070198CB51
:1020000081471397170093080101BA9883D808FFF6
:102010002E97231017810327C800058B6DFF8507B6
:10202000E391D7FE144595CA89471305F00F370889
:102030000020B728024063F2D7023307F6000C23D2
:10204000638BA5001397170042972316B78003A749
:10205000C800058B6DFF8507F9BFB7270240984B75
:1020600005453D9B98CB984B1367070898CB4101DA
:10207000828005458280EFF22F9A2A84013F232037
:102080000400232404006FF06F9B9387019623A024
:1020900007002382070023A407008280EFF2CF9776
:1020A00013850196C93F6FF06F99EFF2EF962A847E
:1020B0004845EF20307A03156400634505008145EB
:1020C000EF20F0466FF08F978317650063C3070218
:1020D000EFF28F942A8485453E85EF205045031505
:1020E00064008145EF20B05185471CB005456FF075
:1020F000EF94A300050001458280EFF2EF912A845E
:1021000048454111AE84EF20F07438381C28114640
:102110006313F7000D46330696024206418252A031
:10212000328532C6EF20707248C409C932468145F3
:10213000EFF00F8126A041016FF04F9023120400B1
:1021400023110400CDBF13D825401378380013D7CE
:10215000654013D64540A308050113F8350093B533
:1021600005100CA14C450D8B0D8A343983480501AF
:1021700038B910A92309050185C1B3861641118F0D
:1021800093B61600133717006388E600EFF2CF8886
:102190002E21A5376FF08F8A82805C4563890730D6
:1021A000EFF28F872A849304B012EF2050575C48D7
:1021B0006374F50048C8D5BF1D8DE3F8A4FE996788
:1021C000739007801C20638A072C5C444E20144CBB
:1021D000504C8823BE951387170093070008337867
:1021E000F50090CA63030816010001000100010018
:1021F00001000100010001000100010001000100D7
:1022000001000100010001000100010001000100C6
:1022100001000100010001000100010001000100B6
:1022200001000100010001000100010001000100A6
:102230000100010001000100010001000100010096
:102240000100010001000100010001000100010086
:102250000100010001000100010001000100010076
:102260000100010001000100010001000100010066
:102270000100010001000100010001000100010056
:102280000100010001000100010001000100010046
:102290000100010001000100010001000100010036
:1022A0000100010001000100010001000100010026
:1022B0000100010001000100010001000100010016
:1022C0000100010001000100D0CA0100010001006D
:1022D00001000100010001000100010001000100F6
:1022E00001000100010001000100010001000100E6
:1022F00001000100010001000100010001000100D6
:1023000001000100010001000100010001000100C5
:1023100001000100010001000100010001000100B5
:1023200001000100010001000100010001000100A5
:10233000010001000100010001000100858763899F
:10234000071493F7F70F010059BD010001000100C8
:102350000100010001000100010001000100010075
:102360000100010001000100010001000100010065
:102370000100010001000100010001000100010055
:102380000100010001000100010001000100010045
:102390000100010001000100010001000100010035
:1023A0000100010001000100010001000100010025
:1023B000010001000100D0CA01000100010001007C
:1023C0000100010001000100010001000100010005
:1023D00001000100010001000100010001000100F5
:1023E00001000100010001000100010001000100E5
:1023F00001000100010001000100010001000100D5
:1024000001000100010001000100010001000100C4
:1024100001000100010001000100010001000100B4
:1024200001000100010001000100010001000100A4
:102430000100010001000100010001000100010094
:102440000100010001000100010001000100010084
:102450000100010001000100010001000100010074
:102460000100010001000100010001000100010064
:102470000100010001000100010001000100010054
:1024800001000100010001000100010001007DB513
:102490006375B7000823050789B399679387870891
:1024A00073900780EF20B02748C86FE03FD9828043
:1024B000EFE29FD61C312A84AE8481CB03156500E0
:1024C000634505008145EF2090061C3066A089CB4E
:1024D00085452685EF20B00581452685EF20301201
:1024E0007A20930740029376F70F63EED7049D6737
:1024F0009387C7BB8A06BE969C4213770770D98F15
:1025000013D747003D8B114681466369E600B70645
:102510000020938686020A07369714430547BD8B31
:10252000B317F70014CC5CCC37170140639BE6006F
:1025300037270240185BB706000F758F19E3B58384
:102540005CCC6FE0BFCF1376070C9305000CFD57F2
:10255000E318B6FA1306900CE364D6FA9377F70300
:102560009D66938646B98A07B6979C439D66938677
:10257000C6BB8A07B697137707709C4349B7EFE24B
:10258000BFC94111AE84A3000500B6852304050030
:1025900023260500232A05002A8432C6EFF0BFBA9D
:1025A000A6852285EFF07FB532462285B2850937B0
:1025B00041016FE0BFC83E2163F5F5048348850003
:1025C0009356060113578600639E080293F6F60F92
:1025D0001377F70F1378F60F03433501034E050108
:1025E0005C4563126E040D46B385C502BE951C2979
:1025F000AE9794A31C39AE9798A33C29BE9523802F
:102600000501828093F6F60F1377F70F1378F60F14
:10261000B386160333071703A182330818032183F7
:102620001358880055BF8A05BE95618263980800DB
:102630001376F60F2E932300C30055BF33061603FF
:102640002182CDBFEFE25FBD522148458145EFE0D9
:102650003FAF6FE0BFBE014582801A2D6A29330566
:10266000A74082807E29162D2A8763F8D700144957
:10267000BE96850788227EAB82807D5582807A292E
:102680001E2D6376F7001C49BA97882382807D55FA
:102690008280084D8327050A81CFEFE2FFB78327A9
:1026A000450A231105021305850982976FE01FB9BA
:1026B0008280EFE27FB6834745024111CC872A84AE
:1026C000B1C3263193070040850463C997041E31C6
:1026D00063FF97009307000263F4F4009304000281
:1026E000484CA685EF20503E09CD48CC06B0363088
:1026F0005C4C98870545B69798A33E3085073EB059
:1027000019A801A005469305F10013058502EF0005
:1027100000771335150041016FE05FB20145E5BF59
:10272000EFE2FFAD834745022A843289A9CB2631E7
:1027300093070040B29463E297041E31AE8963FDB3
:1027400097029307000263F4F40093040002484CDC
:10275000A685EF20703705C148CC06B03E30484C06
:102760004A86CE853E95EF20900F3E30CA973EB008
:102770004A856FE01FAC01A0F5F00149D5BF4206C4
:10278000418213058502EF00806F7DD1FDB793076D
:10279000803E1CC599679387C77E1CC19D6723280F
:1027A00005082320050A9387C7BBF84F232205009D
:1027B00078C1BC4F3CC582805E2963F6B702EFE268
:1027C000BFA5930700022E8463F4F50013040002F2
:1027D000AA840849A285EF20302F09C588C8C2A85D
:1027E0006FE0DFA501A08280EFE21FA3004D032967
:1027F000C5024111832704099DCF7A281E2C636CE2
:10280000F702AA84CA852285453F08484A869385EF
:102810008403EF20D00483270409231B0400231C16
:1028200024014AC699E3EF20C075832744096C0050
:1028300013058408829741016FE05FA0584D11CBCA
:10284000EFE29F9D123181453A85EFE07F8F6FE087
:10285000FF9E8280EFE25F9C2A84231B0500231CDD
:102860000500084909C552288145EFE07F8D2311F5
:1028700004022285E1376FE07F9CEFE27F972A8494
:1028800068410111EF20E02E8145EF20404A6C4065
:102890001147014593D74500BD8B6369F7003707A2
:1028A00000208A0713078702BA978843BD898547A6
:1028B000B395B700C205C181EF104036631D0518FE
:1028C0002844370A0020514BEF20A02A8545EF20ED
:1028D0000046914B130A8A02054CB7F400E02549E3
:1028E0002C44014593D74500BD8B63E5FB008A0767
:1028F000D2978843BD89B315BC00C205C181EF10D2
:10290000C0349844DC441306803E3AC03EC2984826
:10291000DC48814693091700B3BAE900BE9AB305B3
:102920005903B337390333053903BE95EF30900AA5
:10293000024792473AC43EC6014781479044D44477
:1029400032C036C22246B2460248924863E8D810E6
:10295000639416016364C810024E924E2248B24836
:1029600033030E4133366E0033881E419A86330896
:10297000C840BE9633B6F600429732970246B687F5
:10298000924632C436C6E36BB7FA6394E500E3E7D8
:10299000A7FA2C44014593D74500BD8B63E5FB00A6
:1029A0008A07D2978843BD89B315BC00C205C1818F
:1029B000EF1060289844DC441306803E3AC83ECAB3
:1029C0009848DC48814693091700B3BAE900BE9ADB
:1029D000B3055903B337390333053903BE95EF30D7
:1029E000607F4247D2473ACC3ECE01478147904470
:1029F000D44432C836CA6246F2464248D24863E3FB
:102A0000D80863941601636FC806424ED24E6248DE
:102A1000F24833030E4133366E0033881E419A86E6
:102A20003308C840BE9633B6F60042973297424606
:102A3000B687D24632CC36CEE36BB7FA6394E50064
:102A4000E3E7A7FA7D1BE31D0BE82844EF206012A3
:102A50008145EF20C02D05616FE00FFD2248B2488F
:102A6000024EB3860941924E33B3D900B3881A415E
:102A70003386C601B38868403338D600F698B286EC
:102A80004698C5BD6248F248424EB3860941D24ECF
:102A900033B3D900B3881A413386C601B38868407E
:102AA0003338D600F698B2864698ADBFEFE2CFF63F
:102AB00093971500FD1593B51500A302F5022301A8
:102AC000B508A301C5082302D50823280500232A39
:102AD0000500231C0500230D050028C1232E050039
:102AE00023200502230205022A84413B8346540227
:102AF00093048402E16511669385056A2685112A8F
:102B00008347240889EFB72500009385256926852A
:102B1000E12EB72500009385857E2685E1266FE0AE
:102B2000EFF1EFE26FEF93F5F50F49376FE00FF13B
:102B3000944118415C4114C1D441411154C198C120
:102B4000DCC141018280EFE22FED9C45411102C4BE
:102B50002A841309850889CB09460A85AE848297A1
:102B6000DC443EC69C443EC4CA850A85D137A24790
:102B7000032704090A852328F408B2473AC4032727
:102B80004409232AF4083AC6EFE0AFF041016FE0B0
:102B9000EFEAEFE26FE89C45411102C42A84130971
:102BA000850989CB09460A85AE848297DC443EC6F6
:102BB0009C443EC4CA850A85A53FA2470327040A50
:102BC0000A852320F40AB2473AC40327440A232281
:102BD000F40A3AC6EFE0EFEB41016FE02FE6EFE2D7
:102BE000AFE31385C196EFF09FBA6FE02FE5EFE2F8
:102BF000AFE21384C19699679387C77E1305840952
:102C00001CC0EFE00FE913058408EFE08FE86FE0E8
:102C1000EFE263090516EFE28FDE2A84484D1D6A54
:102C2000AE849305CA93B6893289EF1070182A8B47
:102C300008509D6A9385CA90EF109017AA8563018A
:102C40000B14630F05125A85EF10D01A08C06309E0
:102C50000512B757004093870740130B44006319D0
:102C6000F502854537052000EF10203881453705EE
:102C70002000EF108037854537052000EF10203306
:102C80009307F0025CD0930700031CD423AC618748
:102C90001840B7670040938707806319F70285459E
:102CA00037054000EF106034814537054000EF10D4
:102CB000C033854537054000EF10602F93071003A0
:102CC0005CD0930720031CD423AE61870850938502
:102CD000CA90EF10100A484C9305CA93EF10700980
:102CE000084061671307076A48C0BA876371970293
:102CF00037270600130707A8BA87637A9700374774
:102D00000F0013070724814763639700BA87616741
:102D10001CC4231604001307076A916763649700B5
:102D2000B167FD177EA4930700403EA88347A40522
:102D300023183401231A240185EF5E21585085465B
:102D400093E707705EA19357570093870704339664
:102D5000E6008A0737E700E0BA9790C3105493570C
:102D60005600938707048A07B396C600BA9794C3A0
:102D700093058400EF00B07C08408545EF10400BC0
:102D80006FE02FCB8280EFE22FC92A840841B7047D
:102D9000001093850440EF10200E11C50840938564
:102DA0000440EF1080100840B70400109385041011
:102DB000EF10800C11C5084093850410EF10E00E51
:102DC0006FE0CFC7EFE24FC52A840841B705001076
:102DD000C105EF10600A09C508408545EF104005A0
:102DE0006FE0CFC5EFE24FC32A840841B70400105B
:102DF00093850404EF10400809C9938404047D49B5
:102E00000840A685EF10400715E50840C145EF10C2
:102E1000600429E50840B705001093850508EF1008
:102E2000A00509C55C5899C3228582972285A13FD8
:102E30006FE0CFC00840EF10600183478405E36175
:102E4000F9FC83478405A297238CA7028347840556
:102E5000850793F7F70F230CF4045DB783478405C8
:102E600093F7F70F5CD4230C04045C546356F00012
:102E70001C5899C3228582972285A93761BFEFE24A
:102E80002FB7AA842E8B328A37090600EF00F00C88
:102E9000AA8A8149014413094908894B63654401A1
:102EA0004E856FE06FB8B3078B008C23C8400504D4
:102EB0001374F40FEF005079C840CA85EF00907981
:102EC00071FDEF0090093305554163EBAB0088407D
:102ED000EF00B07961D526857D352685E535E9BFDA
:102EE00095496DBF0CD982804CD9828003A581871A
:102EF0009387818098437115050798C3E535730062
:102F00002030B7070020938707169843050798C31A
:102F10007300203003A5C1879387C1809843711542
:102F2000050798C3C13573002030938741809843CB
:102F3000050798C37300203082807D558280EFE2C0
:102F4000AFAD1C414111CC87DC439305F100054630
:102F5000829741016FE08FAEEFE20FAC4111930514
:102F6000F1004105EF10503C09E5888741016FE011
:102F7000EFAC7D55E5BFEFE22FAA2E85B285EF10AD
:102F8000F02A6FE0AFAB137736009387C182BA9710
:102F900003C807006CC12300C50413770603930719
:102FA0000003930600606307F70093760602B336CA
:102FB000D000AA0609860D8A7D168947014763E776
:102FC000C7000606938701833E961A22A14763062F
:102FD000F800A547630BF80001A00146EFE2CFA37C
:102FE0004105EF10501B6FE06FA50566C5BF13F7D5
:102FF000F50F9307400263EDE7009D679387C7BB1A
:103000000A073E971C4393F50570CD8F5CD58280EF
:1030100093F6050C1306000CFD57E399C6FE9306C4
:10302000900CE3E5E6FE93F7F5031D67130747B938
:103030008A07BA979C431D671307C7BB8A07BA97CD
:1030400093F505709C43D1B713F7F50F9307400232
:1030500063EDE7009D679387C7BB0A073E971C4354
:1030600093F50570CD8F1CD5828093F6050C130661
:10307000000CFD57E399C6FE9306900CE3E5E6FECF
:1030800093F7F5031D67130747B98A07BA979C435F
:103090001D671307C7BB8A07BA9793F505709C4352
:1030A000D1B7EFE26F979307803E1CC59D6793876A
:1030B00087C51CC10CC923220500A9452A84053FE8
:1030C000A5452285513758541C546314F700FD5709
:1030D0005CD4FD571CD85CD86FE04F96EFE2CF93DD
:1030E000B745014093850580138541A15D3F6FE0A1
:1030F000EF94EFE26F921C452A8481CB0D46AA859E
:103100008297232404002326040022856FE00F9376
:10311000B7370140938707C0630BF50237070040BC
:1031200085476307E5021307074089476302E50205
:1031300037170040930607808D47630BD5001307B0
:1031400007C091476306E500C167FD1711A08147DD
:103150003E858280EFE24F8C2A84084D553FAA8439
:1031600013058401EF1000628A041385C1A526951A
:10317000232A040093044408232005001304440375
:1031800063878400C1142685EFE0AF90D5BF6FE060
:10319000EF8AEFE26F8841112A84C1642E852EC622
:1031A000FD14BD37B2456313950001A01C4C91C3BB
:1031B00001A0931725001385C1A53E9593074401EF
:1031C0001CC1930700085CD4930700041CD80CCCE6
:1031D0001305840140C8232E040023200402231277
:1031E0000402EF10A05213054403EFF09FF0130503
:1031F0004404EFF01FF013054405EFF09FEF1305B3
:103200004406EFF01FEF13054407EFF09FEE084C64
:103210002320040023220400232404002326040086
:1032200023280400232E040004D08545EF00706499
:10323000084C9305C401EF00305D41016FE00F8041
:10324000EFD29FFD232E050223260504232E05041D
:1032500023260506232E0506232C0500EFF07FF319
:10326000B7E700E01307002023A2E71005679306E5
:10327000078023A2D71023A2E710096723A2E71033
:10328000116723A2E7106FD07FFBEFD2FFF818453C
:1032900019E3EF10104F5C4582976FD03FFA11E1B0
:1032A00001A0EFD27FF72A8408418545EF00105E28
:1032B00015C11C40DE27858B91CF2285EF10C044BD
:1032C00008415C5D81C713054503C137084085454A
:1032D000EF00505D6FD09FF603A5C1A519C1110580
:1032E0007D3F7300203011E101A0EFD2FFF22A846C
:1032F00008415E25898B91EB5E25918B99E75E25D0
:10330000A18B81E75E25C18B9DC78945EF001058D1
:103310001C4005C589453E85EF00D058854422856F
:10332000EF10803E084192049384440326951C4587
:1033300099C3EFF09FF56FD07FF03E859145EF0088
:10334000F0541C4019C591453E85EF00B0558944A5
:10335000F9B73E85A145EF0070531C4019C5A14542
:103360003E85EF0030548D445DBFC1453E85EF0082
:10337000F05155D50840C1459144EF00B05245B7D2
:1033800003A5C1A501C51105EFF0FFF573002030BD
:10339000411122C61384C1A5484001C91105EFF0AF
:1033A0001FF048401105EFF01FF432444101730053
:1033B0002030411122C61384C1A5084401C911055A
:1033C000EFF0FFED08441105EFF0FFF13244410149
:1033D00073002030411122C61384C1A5484401C99D
:1033E0001105EFF0DFEB48441105EFF0DFEF324459
:1033F00041017300203095C1EFD21FE241112A84B0
:103400002E852EC6EF1090791C40B2452A86DC43EB
:103410002285829741016FD07FE201458280EFD201
:10342000BFDFB765000093850577EFF0DFFC6FD055
:10343000FFE0EFD27FDEAA84EFF0FFFB2A8426852F
:10344000EFF0FFFD22956FD07FDFEFD2FFDC3284FB
:1034500019C9AE87634C050009476349A700B285C7
:103460003E85EF10A05C22856FD05FDD184122867B
:10347000BE8558430297C5BF397132D4301006CE8D
:1034800036D63AD83EDA42DC46DE32C6EF10F07964
:10349000F24021618280EFD23FD82A84EF1070275A
:1034A00048C41C402285DC4B8297635A0500EF100C
:1034B00050265C441D8D1C44E365F5FE7D556FD0A0
:1034C000FFD7EFD27FD54111AA8401442EC632C462
:1034D000630EC4002685EFF01FFC63490500B2456A
:1034E0002246B387850088A30504CDB72285410114
:1034F0006FD0DFD4EFD2BFD001449DC2B6843289F1
:103500002E8AAA8901444E85EFF0FFF8634A050030
:1035100063084501B307890088A30504E39584FE89
:1035200022856FD01FD1EFD23FCFB9266FD01FD1E8
:10353000914763E3A706EFD23FCE9D679387C7C746
:103540000A053E951C41854582871145EF005024B0
:10355000371501401305058001A82145EF005023D0
:1035600037150140130505C06FD05FCD4145EF0011
:10357000302237150140CDBF13050002EF00502166
:103580003715014013050540C5B713050004EF00CA
:103590003020372501407DBF01458280EFD2DFC753
:1035A0009D6593850581EF1080033D819377F5013B
:1035B00045476373F70001A01D65130505C93E95D6
:1035C00008216FD0BFC78567138717006306E50022
:1035D00089076305F50001A0414582804545828049
:1035E000EFD29FC3B7270140938707406314F502CA
:1035F000854513050020EF00B01903A5018193173D
:10360000350163C707009D6593850581EF007076DE
:103610006FD0DFC2B737014093870780E31FF5FC07
:10362000854513050040C1BFEFD21FBF8145C126AC
:103630006FD0DFC0EFD25FBE7971AA84130600029B
:1036400081450808EFD0DFAF9397340123170100BD
:1036500063D407088567890763E097082685EFF03C
:103660009FF6372401402A8913040440228523A8A9
:103670009180EFF0FFF63165EF009004854723025B
:10368000F102B7070E003ECE0C08854722853ED4D6
:1036900002D002CA02C802CC012685452285232019
:1036A0000400B1269375F90F22859D460546A5268F
:1036B00085452285A9268945228511296DDD7C4411
:1036C0002285C207C1837C87EFF01FF6228569241B
:1036D000288745616FD09FB69D65938505812685B6
:1036E000EF00106D2A842685EFF05FEB2A89BDBFBD
:1036F000EFD2FFB09D6941119385C9962A8AEF00E8
:10370000306BEFF0FFA0131925009384C1A5CA9474
:1037100098401384C1A515E39385C9965285EF009F
:1037200030692AC613054008EF105002B245AA8935
:10373000EFF01FB19C4023A03701B30724019C4345
:10374000804309C82285EFF0FFA093054008228539
:10375000EF10500241016FD0DFAD03A5018883A5B2
:10376000418882808280EFD23FABEFF01FFF6FD0A5
:10377000FFACEFD2DFA84111EFF03FFEB7F400E05D
:103780009844DC442A893AC43EC62E84EFF0FFFCFC
:103790009844DC44AA893AC29848DC4813061700CA
:1037A000B336E600BE966314A900630AB40212455C
:1037B0001304803E3305A640B337A600B387F64016
:1037C000B307F402B335A4023305A402BE95330453
:1037D0003403EF203020229541016FD09FA522476E
:1037E000B2471304803E3305E640B335A600B387E5
:1037F000F6408D8FB307F402B335A4023305A4025B
:10380000BE95EF20301D33042403F1B79387018860
:1038100003A8070083A847001307180033350701E2
:1038200098C3B3061501D4C3EFF0DFF3B7F700E098
:1038300023A2070073002030B7F700E023A207009F
:1038400023A00700814694C70147D8C703A7C181B9
:103850009306803E3357D70281461306F7FF90CB7D
:10386000D4CB3D4798C3B7E700E07D572386E740B8
:10387000056723A0E7108280EFD21F9AEFF0DFFBED
:103880006FD0DF9B814705476307E500850705810A
:1038900093F7F70FD5BF370700208E071307C7032D
:1038A000BA97DC4391C7EFD23F9782976FD01F99A9
:1038B00082800545B5240545EFF0DFFC730020301C
:1038C0000945B92C0945EFF0FFFB73002030114585
:1038D000812C1145EFF01FFB730020302145892416
:1038E0002145EFF03FFA730020304145152C41454A
:1038F000EFF05FF973002030411122C626C4130493
:10390000000295442285F52A01C92285112C131540
:1039100004014181EFF01FF7FD140604E5F4324481
:10392000A244410173002030411122C626C4130471
:10393000004099442285F12201C92285D522131520
:1039400004014181EFF01FF4FD140604E5F4324454
:10395000A244410173002030EFD21F8CB7270140F1
:1039600093870740631CF500854513050020B92D9A
:10397000814513050020992D6FD05F8CB73701402A
:1039800093870780E31AF5FE8545130500403D2D1A
:10399000814513050040C5B75C413707F1E01307C7
:1039A000F7EF944D7D8F9C41D58FD44DD58FD44169
:1039B000A206D58FD98F5CC11C4537F7F1FF1307DD
:1039C000D77FD4457D8F9C49D58F94458606D58F6A
:1039D000D98F1CC55C55370710FF7D177D8FDC29FB
:1039E000FD1793F7F70FD207D98F5CD582801C455E
:1039F00089C593E717001CC58280F99BEDBF1C4564
:103A000091C537075000D98F1CC582803707B0FF9A
:103A10007D17F98FD5BFA54763F7B7048D47138787
:103A200065FF3307F7020328C5009D47B397E700FA
:103A300093C7F7FFB3F70701B396E600DD8E54C5D1
:103A4000994763E3C70495477D163306F602585934
:103A5000FD47B397C70093C7F7FFF98F3396C500AB
:103A60005D8E50D982800D473387E502032805011A
:103A70009D47B397E70093C7F7FFB3F70701B396E6
:103A8000E600DD8E14C96DBFB14763E2C7029547FA
:103A900065163306F6021859FD47B397C70093C75A
:103AA000F7FFF98F3396C5005D8E10D98280954758
:103AB0004D163306F6025855FD47B397C70093C716
:103AC000F7FFF98FB395C500DD8D4CD58280084195
:103AD0006D8D3335A0008280138741811C4393860E
:103AE00041B23E95636BD500B756002093860680A1
:103AF00063E5A60008C33E858280FD57EDBF828046
:103B00008280B70701401387074083A70740584BBF
:103B1000698F09C77D8D3335A00082800145828081
:103B2000B707014023AAA74082809C4513F70701ED
:103B300013F8F70001C7D8413368E800372702407F
:103B4000145B3707000F758F4DEB85462384D188B2
:103B5000371701406315E5009A2135839AA18E211C
:103B600013F7F50F39C318418146854E3D4F930F2A
:103B7000800293028004214E3396DE00B3F8C50024
:103B8000631116039398260033131F011343F3FFA9
:103B90003377E300B318180133E7E8006397F707BA
:103BA00050C98506E39AC6FD18C11307F00F637567
:103BB000B70454412146854E3D4F930F8002930236
:103BC0008004414EB398CE0033F715016392E802AA
:103BD0001317260001173313EF001343F3FFB376D7
:103BE000D3003317E800D98E6395F703232A150114
:103BF0000506E319C6FD54C1828037170140E31062
:103C0000E5F603C7818821DF81BFE39C57F810C91F
:103C100049BFE39F57FC23281501D9BFB7170140BF
:103C20006316F50083C7818891C3B58108456D8D02
:103C30003335A0008280B71701406316F50083C7B3
:103C4000818891C3B5810CC98280B7170140631682
:103C5000F50083C7818891C3B5814CC98280B707BD
:103C6000014063570504DC4F135705019376F700B5
:103C7000131605013707300041823378E500635A97
:103C800005066317E804138706018D46B396E60020
:103C900093C6F6FFF58F89C91357550112073317DD
:103CA000E600D98F63550506370701405CCF828057
:103CB00037270240145BDC433707000F758F4DF741
:103CC00013D71700F976CE07758FCD83D98F69BFCB
:103CD0001317B500635607000D47B316D7004DBF45
:103CE0001357550112073317E6001347F7FFF98FF3
:103CF0005DB76312E80237080140832648003707A2
:103D000000F17D17F98F758F2322E800D1F5370771
:103D100001405CC382801317B500635C07000D4748
:103D20003317D7001347F7FF7D8FB707000FD98FE1
:103D3000F1BF1357550112073317E600E5B7EFD26D
:103D4000AFCD79712A84462168082EC65922925730
:103D500037470F001307072433D7E702C204C18097
:103D600093F404FCC204C180B24561651305056A81
:103D7000131607014182D18C46A01620C206C182CB
:103D8000F99AC206C18216A094416369D5048606D9
:103D9000B3D7D7029146139707014183BA8763735C
:103DA000D700914705064206C2074182C18312B07F
:103DB0005EAC1E20DA21B62593E717001EA01E2058
:103DC000558FC207C18393F757BFD98F1EA09A257D
:103DD000DE25D98F1EA445616FD04FC6EA2131661A
:103DE0007D16631DC5020D46B386C602B3D7D70242
:103DF000C207C1839396470199E293E71700A16632
:103E0000D58F9306C0123307D7029306803E3347FF
:103E1000D7020507420741831AB059BF6546B386EA
:103E2000C602B3D7D7029166C207C183D58FD9B76F
:103E30001E2189C593E717001EA18280C207C18396
:103E4000F99BC207C183CDBF0EA982800A291375D1
:103E5000F50F82805E290A2D42055D8D6D8D22054C
:103E600021810D8D1335150082805E290A2D4205B2
:103E70005D8D220521818280411102C402C693D743
:103E8000C5012AC63EC4A247A205A18199CBB2476B
:103E9000D1073EC6B247884341016D8D3335A0003E
:103EA0008280B247C181E107EDB793C5F5FFC20536
:103EB000C1814EA982807300203001A001A001A021
:103EC000B7160240DC4251777D17F98F5D8DC8C26D
:103ED0008280371702405C439146B18B6385D700DF
:103EE000A1466382D706B7177A00938707201CC1C3
:103EF000371602405C42370700201307C70B918337
:103F0000BD8BBA9794231C41B3D7D7005CC15442F0
:103F1000A1829D8ABA969422B3D6D70014C5544282
:103F2000AD829D8A36971823B3D7E7005CC5584207
:103F30003983937637001387818136971823B3D757
:103F4000E7021CC982805C435843C166C983BD8BAC
:103F5000758F8907C5466393D700C94701EF374777
:103F6000024003270780418B09CF37177A001307D8
:103F7000072021A83717024058439316E700E3D6DD
:103F800006FE37173D0013070790B387E70285B792
:103F900099C5371702401C4F5D8D08CF8280B71737
:103FA0000240984F1345F5FF798D88CF828099C5DF
:103FB000371702405C4F5D8D48CF8280B7170240B3
:103FC000D84F1345F5FF798DC8CF828099C5371733
:103FD00002405C475D8D48C78280B7170240D847D2
:103FE0001345F5FF798DC8C7828099C53717024000
:103FF0001C4B5D8D08CB8280B7170240984B134550
:10400000F5FF798D88CB82801E2137370140130759
:1040100007C0C207C1836304E5023707004063009D
:10402000E50213070740630CE500371700409306CD
:1040300007806306D500130707C06316E500BA21A1
:1040400093F7F7F8D98FFA2193F7F7CFC207C18317
:10405000D98F1EA1DE215EB59E211EB5B737014066
:10406000938707C06314F5009C251EB985475EA998
:1040700082801E2189C593E707081EA18280C2079E
:10408000C18393F7F7F7C207C183C5BF1E294A252D
:10409000ED8F4205418189C76D8D3335A000828047
:1040A0000145828093C5F5FFC205C1810EA98280BA
:1040B000EFD28F961629F577FD17F58FF621DA25C1
:1040C0007971D58F1EA95625FD779387379FF58F78
:1040D000D6212A842EC6D58F9625D58FB625D58F85
:1040E0005EA55E29C207C18393F7F7CFD98F5EA97A
:1040F0006808EFF01FDEB747014093870780B2459D
:10410000631AF404A25756246547B387E702C20630
:10411000C186984163D20604060752244206B3D7EB
:10412000E702130740064186B3D6E702B3F7E7027A
:104130009206635506028E0793872703B3D7E702DB
:1041400013F77700B367D700C207C1831EA4456188
:104150006FD0CF8E925745BF0A07C1B7920793879A
:104160002703B3D7E702BD8BD58FF9BF91C55E2575
:104170000967D98F5EA582805A25F977FD17F98FD7
:10418000D5BF93F5F51F4EA182804A211375F51F07
:1041900082805E2989C593E787005EA98280C20775
:1041A000C183DD9BC207C183CDBF0A216D8D33352D
:1041B000A0008280B71702409843B706FFF8136744
:1041C000170098C3D843758FD8C39843B706F7FE36
:1041D000FD16758F98C39843B706FCFFFD16758FC3
:1041E00098C3D843B70681FFFD16758FD8C337072C
:1041F0009F0098C7B746024003A7068013670701D0
:1042000023A0E680D843B706C1FFFD16D8C3D84324
:10421000D8C3D84313670740D8C3D843758FD8C3D2
:10422000D843B7063C00558FD8C39843B706000162
:10423000558F98C3984393166700E3DD06FED84375
:10424000B7160240719BD8C3D84313672700D8C361
:104250002147DC42B18BE39EE7FE8280FD577D570C
:104260006317F500014582806387A700B1059C4173
:10427000E39CE7FEC5BF05458280EFC25FF84111B0
:1042800002C202C402C6FD576313F50001A0937772
:10429000F500139727009D67938747DE118113D49C
:1042A0008540BA973D89AE8403A907001374F407CB
:1042B000EFF00FA8AA890DC485450545EFF05FCD45
:1042C0007D149307F00463ED87009D67938747CAC9
:1042D0000A043E941C40828785450545EFF03F98CF
:1042E00093D7244013F734008D8B630707243AC417
:1042F0000947638FE7220D47638EE72205476387EF
:10430000E722C1473EC6A1A48145C1BF85450945F5
:10431000F1B78145EDBF85451145C9B78145EDBF71
:104320008545214565BF8145EDBF854537051400AD
:104330001305050365B7854537051400410579BFA9
:104340008145EDB78545370516001305050C79B78E
:104350008545370516001305050449B78145E5B7BE
:10436000854537051800130505308DBF8545370590
:104370001800130505209DB785453705180013055E
:104380000510A9BF8145F1BF854537151A001305F2
:1043900005C0A9B737151A008545130505803DBF2F
:1043A0008145E5B78545056515BF8145EDBF854567
:1043B00037451D0025B7854537651D0005B7814583
:1043C000E5BF8545216519BF8145EDBF85453705A9
:1043D0002000050521B78145DDBF85453705200053
:1043E00013050502E5BD8145D5BF8545370520008C
:1043F0009DB78145E5BF85453705200013050508B4
:10440000F1BD8145D5BF8545370520000905F9B5C2
:104410008145DDBF8545370520001105C1B58145C2
:10442000DDBF85453705200021054DBD8145DDBF38
:1044300085453705200019B78145E5BF8545370516
:10444000300035BF85453705300025B78545370530
:1044500030001305054059B5854537152000BDBD11
:104460008145E5BF8145372520008DBD8545E5BFE8
:104470008545374520009DB58145E5BF8545370514
:10448000008061BF8145E5BF8545370513807DB557
:1044900081453705138049BF8145C5BF854537052F
:1044A000158055BD8545370515801DBF8145C5BFA4
:1044B00085453705008071BF8145E5BF85453705D6
:1044C0003080A9B785453705308021B78145C5BF04
:1044D00085453705328089BF85453705328035BF30
:1044E0008145C5BF854537053480DDBD8545370528
:1044F0003480A9B58145C5BF854537053680FDBDEA
:1045000085453705368081BD8145C5BF8545370561
:10451000388085B585453705388095B58145C5BF57
:1045200085453705208035B78145E5BFD147D9BBE3
:10453000E147C9BBF147F9B305476383E70299C770
:1045400089466381D702930780026DBB02C64C0087
:104550004E8523122101EFF04FDD41016FC07FCD69
:1045600091474DB391848D8893078004E39DE4FCCB
:1045700051BBFD577D57631DF50082806399A700ED
:10458000EFC29FC98C45EFF05FCF6FC03FCBB10545
:104590009C41E395E7FE01A07D579C416394E700B1
:1045A000014582806394A700C8418280B105F5B7B8
:1045B000FD576308F500EFC23FC6EFF0FFFD6FC087
:1045C000FFC7014582807D579C416394E7007D557C
:1045D00082806394A70088458280B105F5B7FD57B6
:1045E0006308F500EFC25FC3EFF0FFFD6FC01FC5AA
:1045F0007D5582806305B50019C181E5AA852E85A8
:1046000082808145EDBF01A001A001A001A001A011
:1046100001A001A001A001A001A001A001A001A092
:1046200001A001A001A001A001A001A001A001A082
:1046300001A001A001A001A001A001A001A001A072
:1046400001A001A001A001A001A001A001A001A062
:1046500001A001A001A001A001A001A001A001A052
:1046600001A001A001A001A001A001A001A001A042
:1046700001A097C1FF1F9381E12E171100201301A4
:104680006198173500001305659797C5FF1F93853F
:1046900065971386018463FAC5008322050023A071
:1046A000550011059105E3EAC5FE13850184938544
:1046B00041B26377B500232005001105E36DB5FE17
:1046C000FD42739002BC8D42739042809302800839
:1046D00073A0023097D2FFFF9382429693E232009A
:1046E00073905230171500001305E58BEF00D00AC8
:1046F000EF00D00EEFF01FAC9702000093828246CD
:10470000739012347300203071158280EFC2DFB0D5
:104710001841B7370140938707C02A846318F70010
:104720000565854513050580EFF09F861840B7079E
:1047300000406316F70085450545EFF05F87184098
:10474000B7070040938707406316F7008545094582
:10475000EFF0FF851840B717004093870780631676
:10476000F70085451145EFF09F841840B7170040CA
:10477000938707C06316F70085452145EFF03F8317
:104780006FC0DFABEFC25FA91841B7370140938715
:1047900007C02A846318F700056581451305058065
:1047A000EFF00FFF1840B70700406316F700814590
:1047B0000545EFF0CFFF1840B7070040938707404B
:1047C0006316F70081450945EFF06FFE1840B717F3
:1047D0000040938707806316F70081451145EFF08D
:1047E0000FFD1840B7170040938707C06316F70006
:1047F00081452145EFF0AFFB6FC05FA4EFC2DF9EA4
:104800002A84084D9D6A4111AE8D93854AB3328D3D
:10481000368CBA8CEFF0DFD92AC6484C1D6A930556
:104820004AADEFF0FFD8AA8408509D69938589A905
:10483000EFF01FD8AA8B48501D699305C9A5EFF06A
:104840003FD7B2476385070E544C7D572A8B63844C
:10485000E600638E040C14507D576384E600638881
:104860000B0C54507D576384E60063020B0C3E85AD
:10487000A685EFF03FD8DE8508C0EFF0BFD708C0AF
:10488000DA85EFF03FD708C05DC1B7470140938795
:1048900007806311F50A85451165EFF06FEF930707
:1048A0005003230604021CD4084C93854AB3EFF04E
:1048B0005FCC91C4484C93054AADEFF09FCB014AC1
:1048C00063890B000850938589A9130A0010EFF043
:1048D0005FCA63090B0048509305C9A5136A0A20F3
:1048E000EFF03FC98347C40208402324B401139763
:1048F0002700938701A7BA971307440098C3B147CD
:1049000048C02316A40123179401231884013EA84C
:10491000231A440181E48545EFF0BF8748409305A1
:104920008400EFF0EFF848408545EFF03F84410107
:104930006FC05F8FB747004093870740631DF50046
:10494000854537050200EFF08FE685472306F40220
:104950009307600389BFB757004013870780631D23
:10496000E500854537050400EFF06FE4894723062D
:10497000F4029307700305BF938707C0E316F5F2AF
:10498000854537050800EFF08FE28D472306F402D6
:104990009307D00309BF19C5EFC21F88EFF01FE6C8
:1049A0006FC0DF898280EFC23F879D6703A407BE87
:1049B0009D65938545B32285EFF09FBF05C13705FF
:1049C0000020F1659307C50C014781460146938598
:1049D00005201305C50C80CFEFF05FE26FC01F8686
:1049E000EFC29F838347C5029305000213972700F8
:1049F000938701A7BA979C438843EFF00FFB1335C9
:104A000015006FC0BF83EFC23F818347C502930586
:104A1000000413972700938701A7BA979C43884304
:104A2000EFF0AFF8133515006FC05F81EFC24FFC98
:104A300037040020AA84AE89EFE03FD29307C40C6C
:104A400003C7C7028D472A8A1304C40C63E9E7042D
:104A50000347C402938701A70A07BA9703A907006F
:104A6000938A01A7711963060904130B703E4A85E6
:104A7000EFF07FF959ED338A3401638D44034A85A1
:104A8000EFF07FF86DFD8347C402850483C5F4FF12
:104A90008A07D6979C438843EFF0AFEEF9BF9D6736
:104AA00003AB07BE1D69930549B35A85EFF05FB0AC
:104AB00009E581494E856FC02FF7230604028D4B0F
:104AC000938A01A78347C40263FAFB00EFF0BFEDAE
:104AD0000347C4028D47E3FDE7F6E1BF8A07D69797
:104AE0009C4399E78347C40285072306F402D9BF94
:104AF000930549B35A85EFF0BFAB0347C402931740
:104B00002700D6979C439C43E39EA7FCE3F2EBF47B
:104B100075BFEFE09FC4B30745413335F500E39A15
:104B2000A5F8E376FBF471B711E57D5582807D55DC
:104B30006FC0CFF0EFC24FEE2A84AE84EFF05FEA91
:104B40007DF58347C40213972700938701A7BA977F
:104B50009C438843EFF06FE388A00145D1BF82807A
:104B6000EFC28FEBEFE03F9CEFC03FC7EFC0FFDC31
:104B7000F5BF93574500BD8B11476367F7021D676B
:104B80001307C7BB81471376F50F930650020C43FA
:104B90006397C50013750570C98F3E8582808507B0
:104BA0001107E396D7FED5BF93075002FDB71377E1
:104BB000F50FA547AA8663EAE7029D67938747B981
:104BC000131627003E961042937705709305400216
:104BD000D18F13F6F70F63F6C50493F5070C130591
:104BE000000C6382A50A7D5582801378050C93071B
:104BF000000C7D556318F8089305900C63E4E508F4
:104C000013F6F6039D67938747B90A063E9610424E
:104C100093F7067093084002D18F13F6F70F63EBFA
:104C2000C8049D679387C7BB0A063E96A5471042F6
:104C300063E9E7009D670A07938747B93E971C43DE
:104C40002DA093F7060C9305000C130500706391DB
:104C5000B7029307900C63EDE70093F7F6031D6727
:104C60008A07130747B9BA979C43DD8E13F5067080
:104C7000518D09A893F8070C6396080193F7F70381
:104C800063F9C50082809305900C93F7F703E3EC7A
:104C9000C5F49D658A07938545B9AE979C431D660B
:104CA0001306C6BB8A07B2979043A54763E5E700A2
:104CB0000A072E9769B793F7060C1308000C130523
:104CC0000070E39707FB9307900CE3E3E7FA13F711
:104CD000F603F9BF6387C502637DB600918D8547F2
:104CE000B397B700636EF50005053355B5007D1524
:104CF000828001C90505B305B6403315B500C5BFAF
:104D000001458280EFC24FD1EFF07FEAFD57630E7D
:104D1000F500138401820C40EFE0DF9103A641828D
:104D20000C40EFF03FFB6FC06FD10145EDBFEFC20C
:104D30000FCD9377F50F13074002636DF7061D67DC
:104D40008A071307C7BBBA97804313750570FD57D1
:104D5000498C6308F4089357240093F9C703938799
:104D600001A8CE979C43137AF400AE84B3D74701D1
:104D7000858B138901A88DC79D659385C59622856E
:104D8000EFF0CFCD01C52285EFE09F96B307390143
:104D900094430547331747011347F7FF758F98C3AF
:104DA000954763ED97049D658A04938545E2AE942B
:104DB0009C4082871377050C9306000C6313D7027F
:104DC0001307900C636FF7009377F5031D678A074D
:104DD000130747B9BA979C439DB791452285EFF0D9
:104DE000CFC96FC00FC58D45D5BFE145C5BF930580
:104DF0008002EDB78145DDB79D45CDB701A0EFC27B
:104E0000AFC11377F50F930740022E8663E5E704E1
:104E10009D679387C7BB0A073E971C4313750570B0
:104E2000C98F13D747003D8B9146014563E9E600E2
:104E3000B70600200A079386860236970843BD8B83
:104E40000547B317F70093950701C18129C2EFE029
:104E50009FDE6FC0AFBE9376050C9305000CFD5727
:104E6000E391B6FC9306900CE3EDE6FA9377F50335
:104E70001D67130747B98A07BA979C431D67130735
:104E8000C7BB8A07BA97137505709C4351BFEFE003
:104E9000DFDBC1B7EFC24FB89377F50F13074002BE
:104EA0006365F7041D678A071307C7BBBA978C436E
:104EB00013750570C98D93D74500BD8B114701450A
:104EC0006369F700370700208A0713078702BA973C
:104ED00088438547BD89B395B700C205C181EFE01E
:104EE000FFD33335A0006FC06FB51377050C930661
:104EF000000CFD55E311D7FC1307900CE36DF7FA96
:104F00009377F5031D678A07130747B9BA979C4340
:104F100051BFEFC26FB0EFE01F856FC02FB2EFC27D
:104F2000AFAFEFE01F856FC06FB105C1EFC2CFAE6D
:104F30002A84EFE05F83AA84EFF07FC2EFE0BF82B4
:104F4000058DE36B85FE6FC06FAF8280411122C477
:104F500006C62A8411E105442285C52811E52128C9
:104F600011E125200295CDBFB2402244410182804B
:104F70006FF0DFFD11A89387C18888430F00F00F01
:104F80008280411106C61120F1A04111194506C6C3
:104F9000C12E0545EF10E060AA8581460146014516
:104FA000E1A14111972700009387870422C41724A9
:104FB00000001304A4041D8C26C206C60984BE8406
:104FC00019E42244B240924441016FE05FB37D1482
:104FD00093172400A6979C438297DDB7411197272A
:104FE00000009387A7FF22C417240000130404FFC6
:104FF0001D8C26C24AC006C6098481443E89639836
:105000008402EFE0FFAF97270000938727FD172466
:1050100000001304E4FD1D8C098481443E89639FD4
:105020008400B24022449244024941018280939715
:105030002400CA979C4385048297D1B79397240094
:10504000CA979C4385048297D9BF93878182AA859A
:10505000884365A293878182AA858843EDA8B3C758
:10506000A5008D8B3307C50081E78D4763EDC70031
:10507000AA87637EE508942185078505A38FD7FE5F
:10508000E3EBE7FE828093763500AA8789CA9421F4
:1050900085078505A38FD7FE93F63700C5BF9376A6
:1050A000C7FF138606FE63F0C70683A3050083A22D
:1050B000450083AF850003AFC50083AE050103AE95
:1050C000450103A3850183A8C5019385450223A05B
:1050D000770003A8C5FF23A2570023A4F70123A646
:1050E000E70123A8D70123AAC70123AC670023AE99
:1050F00017019387470223AE07FF75B790419107C9
:10510000910523AEC7FEE3EBD7FEE3E6E7F6828028
:1051100063F1A504B386C500637DD5029345F6FF10
:105120008147FD176393F50082803387F6000348BB
:1051300007003387C7002A9723000701DDB73387AD
:10514000F50014233307F500850714A3E319F6FED1
:1051500082808147E5BFCDC183A7C5FF411122C42D
:1051600006C626C21384C5FF63D307003E94AA84F3
:105170006D2B938701899C4399EB2322040023A87C
:1051800081882244B24026859244410145A3637E32
:10519000F40014403307D4006396E7009843DC43DF
:1051A000369718C05CC0E1BFBA87D84319C3E37D06
:1051B000E4FE94433386D700631F86001040B29606
:1051C00094C33386D700E31EC7FA10435843B29600
:1051D00094C3D8C37DB76375C400B1479CC055B7AD
:1051E0001040B306C4006316D70014435843B29668
:1051F00014C058C0C0C371B78280011126CA9384FD
:105200003500F19806CE22CC4AC84EC6A104B1475B
:1052100063F1F404B14463E0B4042A893923938729
:10522000018998433A8431E0938741899C4391E70F
:1052300081454A85452023AAA188A6854A85592803
:10524000FD5963173507B1472320F9004A85F9292D
:1052500029A0E3D204FCB1471CC10145F2406244DD
:10526000D2444249B249056182801C40858F63CE99
:105270000702AD4663F6F6001CC03E9404C031A0A0
:105280005C406312870223A8F1884A8545211305F3
:10529000B4009307440061993307F54061D33A9411
:1052A000898F1CC065BF5CC3CDB722874040A5BFB6
:1052B000130435007198E30385FCB305A4404A85C7
:1052C0001128E31D35FB41B7938781822E86AA857D
:1052D0008843B1A9411122C42A842E8523A001B29A
:1052E00006C6EFE06FFFFD576317F500938701B225
:1052F0009C4391C31CC0B240224441018280FD47BF
:1053000063F6B700D9471CC17D5582807C410111ED
:1053100022CC06CE2E862A8491C713972500BA97F1
:10532000984319EB228532C68528AA8522856244D6
:105330003246F24005611DA8854601456308D70045
:10534000FD566319D700D9471CC00545F240624499
:10535000056182802E8523A0070002970145FDB7D5
:1053600093878182AA8588436FF07FF9411122C417
:105370002A842E85B28523A001B206C6EF10202014
:10538000FD576317F500938701B29C4391C31CC07E
:10539000B2402244410182806F10A01DAA87850778
:1053A00003C7F7FF6DFF3385A7407D15828013018A
:1053B00001DC93070020232C812223263123232E76
:1053C0001122232A9122232821233ECE2A84AE892A
:1053D000368701C91C4D91E732C436C6E12A3247EF
:1053E000224613090102B286CA85700822859921D6
:1053F000AA847D5591CCF2462686CE852285352815
:105400002ACE63862401A6852285EFF0DFD472457B
:105410008320C123032481238324412303290123DF
:105420008329C12213010124828093878182B2865D
:105430002E86AA8588436FF09FF7411122C42A84E3
:105440002E85B285368623A001B206C6EFD0FFFFB7
:10545000FD576317F500938701B29C4391C31CC0AD
:10546000B240224441018280938781899C432A8EE5
:1054700099EF138741A923ACE18817B5FFFF130506
:1054800065B8BA8709C51C4123AEF1B0BA87D843C5
:105490007D487D556347E804630E0E0203A8870824
:1054A0006301080493182700C29823A0C8000323AF
:1054B000081005463316E6003363C3002320681046
:1054C00023A0D80889466317DE0083264810558E2E
:1054D0002322C810930617000A07D4C3BA978CC7B3
:1054E0000145828097B7FFFF9387C7B199C717051A
:1054F0000000130545AB6FF03FAA8280411122C422
:1055000006C62A844EA572A5232005002322050085
:10551000232405002322050623280500232A05004D
:10552000232C0500214681451305C505EFB05FC159
:1055300097070000938767255CD097070000938743
:10554000A7271CD4970700009387A72B5CD4970745
:1055500000009387072E00D01CD8B240224441019E
:105560008280970500009385E54899AA411126C2DB
:10557000130680069384F5FFB384C4024AC02E89C3
:1055800022C406C693854407EFF03FC72A8401CDA5
:105590002320050023222501310508C41386840633
:1055A0008145EFB0FFB92285B240224492440249BE
:1055B000410182801C4DA5E7411106C622C4970710
:1055C0000000938747FA1CD5938781839C4323244B
:1055D000050423260504232805046314F5008547E4
:1055E0001CCD2A84352848C022851D2808C4228560
:1055F000052848C4484001469145EFF03FF0084473
:105600000546A545EFF09FEF48440946C945EFF030
:10561000FFEE85471CCCB24022444101828082804B
:1056200041119387818326C284434AC006C69C4C9D
:1056300022C42A8981E72685EFF0DFF7938484046A
:105640008044DC40FD1763D607009C40B9CF8440FE
:10565000C5BF0317C40039E7C177850723220406B5
:105660002320040023220400232404005CC42328F4
:105670000400232A0400232C04002146814513053D
:10568000C405EFB0FFAB232A0402232C0402232419
:105690000404232604042285B24022449244024991
:1056A000410182801304840671BF91454A85EFF061
:1056B000FFEB88C049FDB1472320F9000144E1BF59
:1056C000797122D44AD052CC56CA5AC85EC606D680
:1056D00026D24ECE2A8AAE8A130485040149054B90
:1056E000FD5B09ECB25022544A8592540259F249AA
:1056F000624AD24A424BB24B4561828004448329BC
:105700004400FD1963D409000040E1BFDE24637B3F
:10571000FB008397E40063877701A6855285829A10
:105720003369A90093848406E9BF8280828081E581
:10573000B2856FF09FAC011122CC06CE26CA4AC8B2
:105740004EC6328401EEEFF01FA10149F2406244DF
:105750004A85D2444249B24905618280AE84AA8911
:105760001D262689E37485FEA2854E85EFF0FFA8ED
:105770002A8969DDA6852286EFF07F8EA6854E8573
:10578000EFF07F9DE1B7411122C42E848395E5009F
:1057900006C6EF00F01F634905007C48AA977CC845
:1057A000B2402244410182805E247D777D17F98FCB
:1057B0005EA4FDB7DE25011122CC26CA4AC84EC61A
:1057C00006CE93F70710AA842E843289B68991C732
:1057D0008395E5008946014641245E247D777D1747
:1057E000F98F5EA48315E4006244F240CE864A86B7
:1057F000B24942492685D24405616FF01FC4411168
:1058000022C42E848395E50006C6B924FD575A2488
:10581000631AF500FD77FD17F98F5EA4B2402244AC
:10582000410182808567D98F5EA468C8C5BF839512
:10583000E5008DA01971A2DC86DE32841C4036861C
:1058400095C51308806081E7130880288145231AD5
:1058500001012EC42ECC63DF07009307B0081CC1E2
:105860008147F65066543E8509618280130880287E
:105870008147F1BF3EC83ECEBA86FD572C00FC835F
:10588000FD2C8147E34F05FCA24708C02380070099
:10589000E247C1BF411122C42A842E8523A001B250
:1058A00006C6EF00504CFD576317F500938701B211
:1058B0009C4391C31CC0B240224441018280DE253A
:1058C000011122CC26CA06CE4AC84EC613F787005D
:1058D000AA842E8461EFD841634DE000B841634A49
:1058E000E0000145F2406244D2444249B2490561B8
:1058F000828058547DD703A904009396370123A0D2
:10590000040063DC060670485E24918B99C75C40F6
:105910001D8E5C5899C33C401D8E5C540C508146D2
:1059200026858297FD575A24631DF5009440F5475C
:1059300063E9D706B70740208507B3D7D700858B23
:10594000ADC31C48232204001CC09317370163D841
:105950000700FD576314F5009C4091E368C84C585C
:1059600023A02401BDDD930744046385F50026854B
:10597000EFF06FFE232A0402ADB70C5001468546B6
:1059800026850297FD572A86E310F5F89C40ADDF87
:1059900075476385E70059476393E70423A0240113
:1059A00089B7136707045AA47D552DBF83A9050144
:1059B000E38909F203A905008D8B23A03501330982
:1059C0003941014791E3D84918C4E35C20F11C54E4
:1059D0000C50CA864E86268582976347A0005E24B7
:1059E00093E707045EA4C9B7AA993309A940F1BF98
:1059F0009C49ADC3011122CC06CE2A8419C51C4D89
:105A000089E72EC6EFF01FBBB245971700009387BA
:105A10002745639CF5004C408397C5009DC72285B0
:105A20006244F24005616FF09FE997170000938789
:105A300027456394F5000C44C5B79717000093877A
:105A40002740E39BF5FC4C44C1BFF2406244014552
:105A50000561828001458280411122C42A842E85FD
:105A6000B285368623A001B206C6EF001032FD577C
:105A70006317F500938701B29C4391C31CC0B240E9
:105A800022444101828083A7C5FF1385C7FF63D5E8
:105A90000700AA959C413E95828001114AC803A93E
:105AA000850022CC52C45AC006CE26CA4EC656C263
:105AB0002E84328B368A63E92609DE2513F70748E0
:105AC00051C304408C495848AA8AB389B4408D44D4
:105AD000B384E4020947B3C4E402138716004E9767
:105AE00063F3E400BA8493F70740BDCFA6855685DB
:105AF000EFF0AFF02A891DE1B14723A0FA005E2440
:105B00007D5593E707045EA4F2406244D2444249C3
:105B1000B249224A924A024B056182800C484E8665
:105B2000EFF0EFD35E2493F7F7B793E707085EA48F
:105B30002328240144C84E99B384344123202401EE
:105B400004C4528963732A01528908404A86DA855F
:105B5000EFF00FDC1C440145B38727411CC41C40F7
:105B60003E99232024014DB726865685EFF03FBC91
:105B70002A895DFD0C485685EFF0EFDDB5BFDE25C7
:105B8000717126D34AD14ECF06D722D552CD56CBEE
:105B90005AC95EC762C566C393F70708AA892E89EA
:105BA000B284B9C39C49A9E39305000436C6EFF05B
:105BB000CFE42320A9002328A900B24615E1B1476C
:105BC00023A0F9007D55BA502A549A540A59FA492B
:105BD0006A4ADA4A4A4BBA4B2A4C9A4C4D61828047
:105BE00093070004232AF90093070002A30CF10293
:105BF0009307000302DA230DF10236CE930B500215
:105C0000971A0000938ACA29054C294B26841C2028
:105C100099C363987709B30C9440638E0C00E686B1
:105C20002686CA854E85EFF05FE7FD576308F518B5
:105C3000D256E69636DA1C2063820718FD57930485
:105C4000140002D002D63ED202D4A301010682DCA7
:105C50008C20154656859D2313841400825721E518
:105C600013F7070109C713070002A301E10613F7A1
:105C7000870009C71307B002A301E10694201307A8
:105C8000A002638AE602B257268481462546182080
:105C900093051400130707FD6372E6068DC63ED612
:105CA0001DA00504ADB7330555413315AC00C98FB0
:105CB0003ED0A28471BF724793064700184336CE88
:105CC000634707023AD618209307E002631DF704E2
:105CD00018309307A002631BF702F24709041387E9
:105CE00047009C433ACE63C107023ED22DA833073A
:105CF000E04093E727003AD63ED0F1B7B387670379
:105D000085462E84BA9761B7FD57C5B7050402D200
:105D1000814681472546182093051400130707FD87
:105D20006374E606F9F20C200D4617150000130502
:105D3000A517692111CD971700009387E7161D8DD0
:105D400093070004B397A700025505045D8D2AD080
:105D50000C2019461715000013054515930414006F
:105D6000230CB102A12925C597A7FFFF9387872997
:105D700095E70257F2471377071009CF91073ECEF8
:105D8000D257D2973EDA59B5B387670385462E843A
:105D9000BA9751B79D07E19BA107D5B77808970639
:105DA00000009386C6CF4A860C104E8597000000EF
:105DB000E7000000FD572A8AE314F5FC8357C90069
:105DC0007D5593F70704E39007E05255EDBB780843
:105DD000970600009386A6CC4A860C104E85012AB1
:105DE000D1BF797156CA9C49BA8A984522D426D225
:105DF0004ECE52CC06D64AD05AC85EC6AA892E8448
:105E0000B284368A63D3E700BA879CC00347340460
:105E100019C385079CC01C4093F7070281C79C40AB
:105E200089079CC00329040013796900631A0900DB
:105E3000130B9401FD5B5C449840998F634CF9040B
:105E40001C408346340493F70702B336D000A5EB19
:105E500013063404D2854E85829AFD576303F504F8
:105E60001C4011469840998B544481446397C70065
:105E7000B384E64063D3040081441C44184863544F
:105E8000F700998FBE94014969047D5B63982405EE
:105E9000014509A885465A86D2854E85829A631E99
:105EA00075017D55B250225492540259F249624A0A
:105EB000D24A424BB24B456182800509ADBF3307E0
:105EC000D40013060003A301C704034754049387B7
:105ED0001600A2978906A381E7049DBF8546228606
:105EE000D2854E85829AE30E65FB050945B7797127
:105EF00022D426D24AD04ECE06D652CC56CA5AC842
:105F0000B689942D930790063289AA842E8413862D
:105F10003504638DF60263E2D70693078005638636
:105F2000F61863EDD700638E062093073004638E66
:105F3000F60A930A24042301D404C9A09307300667
:105F40006385F60A93074006E395F6FE1C40084376
:105F500093F6070893054500C5C61C410CC363D8DA
:105F600007001307D002B307F040A301E40497161B
:105F70000000938626F4294765A8930700076382EB
:105F8000F61663E5D7029307E0066389F6189307D0
:105F9000F006E390F6FA0C401C4313F8050813854D
:105FA00047006307080608C39C4385A8930750076A
:105FB000E383F6FE930780076389F61293073007A1
:105FC000E399F6F61C43D04181459386470014C3FC
:105FD00083AA07005685DD2201C53305554148C017
:105FE0005C401CC8A301040461A81C43930A240458
:105FF000938647009C4314C32301F4048547D5B717
:1060000093F607041C410CC3B9DAC207C18781BFEC
:1060100093F5050408C3C9D99E231307F0066387C7
:10602000E60E971600009386E6E82947A3010404CC
:106030004C400CC463C5050008406D9908C099E345
:10604000B28A89CDB28AB3F5E702FD1AB6958C21E2
:106050002380BA00B3D5E70263F0E70CA147631EC3
:10606000F7001C40858B91CB58401C4863C7E70064
:1060700093070003A38FFAFEFD1A3306564110C89A
:106080004E87CA867000A2852685EFF09FD57D5A7F
:10609000631D450B7D55B250225492540259F2496A
:1060A000624AD24A424B45618280A382D504971648
:1060B0000000938626E00C40084313F805081C41B5
:1060C0001105630D080208C313F7150001C793E516
:1060D00005020CC04147B9FB0C4093F5F5FD0CC01F
:1060E000B1B79C4193E707029CC193078007A302C5
:1060F000F40497160000938626DD75BF13F8050497
:1061000008C3E30308FCC207C1837DBF97160000E4
:10611000938646DA214719BFAE8735B794411C43B1
:10612000CC4913F80608138547006306080008C326
:106130009C438CC339A008C393F606049C43F5DA4C
:106140008EA323280400B28A25BF14485686CA8528
:1061500026858299E30045F51C40898B8DE7B2477F
:106160004844E35AF5F23E853DB785465686CA85D2
:1061700026858299E30065F3050A5C443247998FCE
:10618000E345FAFEE9BF014A930A94017D5BF5B746
:10619000411122C42A842E85B285368623A001B2FD
:1061A00006C6D52EFD576317F500938701B29C43B1
:1061B00091C31CC0B24022444101828093F5F50F87
:1061C0002A966314C500014582801C21E38EB7FE28
:1061D0000505C5BFB687B2882A832E88639B06143F
:1061E00063F8C50A4167636BE61AB707000163608D
:1061F000F63493568601E14717170000130707CEC0
:1062000036971823BA97130700021D8F19CB3398BE
:10621000E500B357F500B318E60033E80701331380
:10622000E50013D608013355C80293960801C182D0
:10623000935703013377C802B385A6024207336838
:10624000F700637AB80046989307F5FF6364180176
:106250006365B8303E853308B8403357C8024203FF
:10626000135303013378C802B386E6024208336849
:106270006800637BD80046989307F7FF63651801B1
:1062800079176363D8003E874205598D8145828026
:1062900001E60547B358C702416763E8E80EB70750
:1062A000000163EAF82893D68801E1471717000038
:1062B0001307C7C236971423BE9693070002958F23
:1062C000FDE7939E08013387154113DF080193DE34
:1062D0000E018545935703013355E7033377E703F1
:1062E000B306D5034207D98F63FAD700C6971307C1
:1062F000F5FF63E4170163E5D7263A85958F33D719
:10630000E703420313530301B3F7E703B30ED703C5
:10631000C207B3E7670063FBD701C6979306F7FF91
:1063200063E51701791763E3D70136874205598D75
:10633000828063E1D504C16763E1F604B707000119
:1063400063E3F61E13D78601614897170000938711
:10635000E7B8BA979823130E00024297330EEE4027
:10636000631A0E0C63EDB61C3335C50013451500DA
:10637000814582808145014582809307F00F63F358
:10638000D71C13D786002148C9B71307F00FC6865C
:10639000E37E17F193D68800A14709BF1307F00FDA
:1063A000B286E37BC7E493568600A147B1B5B398A4
:1063B000F80033D6D50013DF0801335EE6033397C8
:1063C000F500B356D500558F939E080193DE0E015C
:1063D0003313F50093550701B376E603B387CE0375
:1063E000C206CD8E63FBF600C6961306FEFF63E47D
:1063F000161763F2F616791EC6969D8E33D6E603FF
:1064000093170701C183B3F6E6033385CE021397D2
:1064100006015D8F637BA70046979307F6FF6368CD
:1064200017136376A7127916469793150E01098FF5
:10643000D18D4DB5B357E600B396C601DD8E33D38B
:10644000E50013DF0601B357E303939E060193DED5
:106450000E013398C5013357E5003368070193589F
:1064600008013316C6013373E303B385FE0242030A
:10647000B368130163FBB800B6981387F7FF63EAAC
:10648000D80C63F8B80CF917B698B388B84033D76E
:10649000E803420813580801B3F8E8033383EE0217
:1064A000C208B3E5080163FB6500B6951308F7FF62
:1064B00063EDD50863FB65087917B695C207416F90
:1064C000D98F1307FFFFB3F6E70093D80701718F49
:1064D0004182B38EE602B3856540B386C60213D807
:1064E0000E013387E802BA96C2963386C80263F378
:1064F000E6007A9693D80601469663E2C502638564
:10650000C5003E858145828041677D17F98EC206B0
:10651000B3FEEE003315C501F696E374D5FE138580
:10652000F7FF8145828013D70601414839BD935654
:106530000601C147D1B193D60801C14785BB81454A
:10654000054582803687014809B5428785BF3E866A
:10655000E9BDBA871DBF328E4DB579154698E5B9AC
:106560007915C69761BB9307800523A0F1B27D55CD
:1065700082809307800523A0F1B27D558280930726
:10658000800523A0F1B27D5582809307800523A06A
:10659000F1B27D5582809307800523A0F1B27D552D
:1065A000828001A0DA1A0000221B0000421B0000BA
:1065B0008E1E0000741B0000B01B0000261C000093
:1065C000D01B0000861C0000A61C0000C61C00009A
:1065D000441D0000B81D0000161E0000581E0000DB
:1065E0005B25735D20434D445F5345545F4D4F44DD
:1065F000455F5241570D0A005B25735D20434D44B2
:106600005F5345545F4D4F44455F43414C0D0A0075
:106610005B25735D2076657273696F6E2025642E2D
:1066200025640D0A000000005B25735D20434D4486
:106630005F43414C4942524154450D0A000000005D
:106640005B25735D20434D445F49535F43414C4993
:106650004252415445443A2025640D0A000000008E
:106660005B25735D20434D445F534156455F434175
:106670004C0D0A00434D445F4C4F41445F43414C35
:10668000000000005B25735D20434D445F4C4F418B
:10669000445F43414C0D0A005B25735D20434D442C
:1066A0005F4745545F4D494E0D0A00005B25735D01
:1066B00020434D445F4745545F4D41580D0A00004B
:1066C0005B25735D207365742063616C206D696E5A
:1066D000200A00005B25735D2025642C200A000041
:1066E0005B25735D200D0A0A000000005B25735DC9
:1066F000207365742063616C206D61780D0A000061
:106700005B25735D2025642C0A0000005B25735D0A
:10671000206C6564206D6F64653D2025640D0A0A58
:10672000000000005B25735D20456D69747465721F
:10673000206C6576656C203D2025640D0A00000004
:1067400044656661756C742073776974636820634F
:10675000617365005B25735D2072656164696E67B6
:1067600020657874726120627974653A202564200E
:106770000D0A00005B25735D2064656C61793D2521
:10678000640D0A0A0000000044454255470000001D
:106790005B25735D2073746172742063616C696240
:1067A000726174696E670D0A0A0000006D6F64659E
:1067B0003D25640D0A00000069732063616C696205
:1067C00072617465643A2025640D0A0049324320E1
:1067D000736C617665204061646472657373203008
:1067E000783333000000000000000000B2260000F3
:1067F0002027000056260000542800005A260000DA
:10680000642600007E260000C2340000F43400003C
:106810000000000000240140000000000001000012
:106820000028014000000000010000000024014099
:1068300000800000010100000028014000800000ED
:1068400002000000002401400000010002010000DD
:106850000028014000000100030000000024014066
:1068600000800100030100000028014000800100B9
:1068700004000000002401400000020004010000A8
:106880000028014000000200050000000024014033
:106890000080020005010000002801400080020085
:1068A0000600000000240140000003000601000073
:1068B0000028014000000300070000000024014000
:1068C0000080030007010000002801400080030051
:1068D000100000000024014000000400100100002E
:1068E00000280140000004001100000000240140C5
:1068F0000080040011010000002801400080040015
:10690000FFFFFFFF00000000000000001600000075
:10691000005400400F000000180000000054004028
:106920000F0300001A000000005800400F00000094
:10693000FFFFFFFF00000000000000001700000044
:10694000005400400F0000001900000000540040F7
:106950000F0300001B000000005800400F00000063
:10696000FFFFFFFF0000000000000000000000002B
:10697000000000400B9200000100000000000040F9
:106980000B12010002000000000000400B92010009
:1069900003000000000000400B120200060000008F
:1069A000000400400B9500000700000000040040B8
:1069B0000B15010010000000000400400B950100C1
:1069C00011000000000400400B150200160000003A
:1069D000000800400B97000017000000000800406E
:1069E0000B17010018000000000800400B97010081
:1069F00019000000000800400B170200080000000A
:106A0000002C01400B8E000009000000002C01400A
:106A10000B0E01000A000000002C01400B8E01004B
:106A20000B000000002C01400B0E02001D000000B6
:106A3000002C01400B8E00001E000000002C0140C5
:106A40000B0E01000F000000002C01400B8E010016
:106A5000FFFFFFFF00000000000000000B0000002F
:106A60000038014018000000000000000044004011
:106A7000180000001D000000004800401800000041
:106A800013000000004C004018000000FFFFFFFF53
:106A900000000000000000000C0000000038014071
:106AA0000B00000001000000004400400B0000004B
:106AB0001E000000004800400B0000001400000011
:106AC000004C00400B000000FFFFFFFF0000000033
:106AD000000000000A00000000380140180000001B
